{
	"docs.chain.link/samples/APIRequests/APIConsumer.sol": {
		"APIConsumer": {
			"abi": [
				{
					"inputs": [],
					"stateMutability": "nonpayable",
					"type": "constructor"
				},
				{
					"anonymous": false,
					"inputs": [
						{
							"indexed": true,
							"internalType": "bytes32",
							"name": "id",
							"type": "bytes32"
						}
					],
					"name": "ChainlinkCancelled",
					"type": "event"
				},
				{
					"anonymous": false,
					"inputs": [
						{
							"indexed": true,
							"internalType": "bytes32",
							"name": "id",
							"type": "bytes32"
						}
					],
					"name": "ChainlinkFulfilled",
					"type": "event"
				},
				{
					"anonymous": false,
					"inputs": [
						{
							"indexed": true,
							"internalType": "bytes32",
							"name": "id",
							"type": "bytes32"
						}
					],
					"name": "ChainlinkRequested",
					"type": "event"
				},
				{
					"inputs": [
						{
							"internalType": "bytes32",
							"name": "_requestId",
							"type": "bytes32"
						},
						{
							"internalType": "uint256",
							"name": "_volume",
							"type": "uint256"
						}
					],
					"name": "fulfill",
					"outputs": [],
					"stateMutability": "nonpayable",
					"type": "function"
				},
				{
					"inputs": [],
					"name": "requestVolumeData",
					"outputs": [
						{
							"internalType": "bytes32",
							"name": "requestId",
							"type": "bytes32"
						}
					],
					"stateMutability": "nonpayable",
					"type": "function"
				},
				{
					"inputs": [],
					"name": "volume",
					"outputs": [
						{
							"internalType": "uint256",
							"name": "",
							"type": "uint256"
						}
					],
					"stateMutability": "view",
					"type": "function"
				}
			],
			"devdoc": {
				"kind": "dev",
				"methods": {},
				"version": 1
			},
			"evm": {
				"assembly": "    /* \"docs.chain.link/samples/APIRequests/APIConsumer.sol\":460:2756  contract APIConsumer is ChainlinkClient {... */\n  mstore(0x40, 0x80)\n    /* \"@chainlink/contracts/src/v0.8/ChainlinkClient.sol\":1291:1292  1 */\n  0x01\n    /* \"@chainlink/contracts/src/v0.8/ChainlinkClient.sol\":1258:1292  uint256 private s_requestCount = 1 */\n  0x04\n  sstore\n    /* \"docs.chain.link/samples/APIRequests/APIConsumer.sol\":868:1098  constructor() {... */\n  callvalue\n  dup1\n  iszero\n  tag_1\n  jumpi\n  0x00\n  dup1\n  revert\ntag_1:\n  pop\n    /* \"docs.chain.link/samples/APIRequests/APIConsumer.sol\":892:917  setPublicChainlinkToken() */\n  tag_4\n    /* \"docs.chain.link/samples/APIRequests/APIConsumer.sol\":892:915  setPublicChainlinkToken */\n  shl(0x20, tag_5)\n    /* \"docs.chain.link/samples/APIRequests/APIConsumer.sol\":892:917  setPublicChainlinkToken() */\n  0x20\n  shr\n  jump\t// in\ntag_4:\n    /* \"docs.chain.link/samples/APIRequests/APIConsumer.sol\":936:978  0xc57B33452b4F7BB189bB5AfaE9cc4aBa1f7a4FD8 */\n  0xc57b33452b4f7bb189bb5afae9cc4aba1f7a4fd8\n    /* \"docs.chain.link/samples/APIRequests/APIConsumer.sol\":927:933  oracle */\n  0x07\n  0x00\n    /* \"docs.chain.link/samples/APIRequests/APIConsumer.sol\":927:978  oracle = 0xc57B33452b4F7BB189bB5AfaE9cc4aBa1f7a4FD8 */\n  0x0100\n  exp\n  dup2\n  sload\n  dup2\n  0xffffffffffffffffffffffffffffffffffffffff\n  mul\n  not\n  and\n  swap1\n  dup4\n  0xffffffffffffffffffffffffffffffffffffffff\n  and\n  mul\n  or\n  swap1\n  sstore\n  pop\n    /* \"docs.chain.link/samples/APIRequests/APIConsumer.sol\":988:1030  jobId = \"d5270d1c311941d0b08bead21fea7747\" */\n  0x6435323730643163333131393431643062303862656164323166656137373437\n    /* \"docs.chain.link/samples/APIRequests/APIConsumer.sol\":988:993  jobId */\n  0x08\n    /* \"docs.chain.link/samples/APIRequests/APIConsumer.sol\":988:1030  jobId = \"d5270d1c311941d0b08bead21fea7747\" */\n  dup2\n  swap1\n  sstore\n  pop\n    /* \"docs.chain.link/samples/APIRequests/APIConsumer.sol\":1046:1060  0.1 * 10 ** 18 */\n  0x016345785d8a0000\n    /* \"docs.chain.link/samples/APIRequests/APIConsumer.sol\":1040:1043  fee */\n  0x09\n    /* \"docs.chain.link/samples/APIRequests/APIConsumer.sol\":1040:1060  fee = 0.1 * 10 ** 18 */\n  dup2\n  swap1\n  sstore\n  pop\n    /* \"docs.chain.link/samples/APIRequests/APIConsumer.sol\":460:2756  contract APIConsumer is ChainlinkClient {... */\n  jump(tag_6)\n    /* \"@chainlink/contracts/src/v0.8/ChainlinkClient.sol\":8856:8979  function setPublicChainlinkToken() internal {... */\ntag_5:\n    /* \"@chainlink/contracts/src/v0.8/ChainlinkClient.sol\":8906:8974  setChainlinkToken(PointerInterface(LINK_TOKEN_POINTER).getAddress()) */\n  tag_8\n    /* \"@chainlink/contracts/src/v0.8/ChainlinkClient.sol\":1077:1119  0xC89bD4E1632D3A43CB03AAAd5262cbe4038Bc571 */\n  0xc89bd4e1632d3a43cb03aaad5262cbe4038bc571\n    /* \"@chainlink/contracts/src/v0.8/ChainlinkClient.sol\":8924:8971  PointerInterface(LINK_TOKEN_POINTER).getAddress */\n  0xffffffffffffffffffffffffffffffffffffffff\n  and\n  0x38cc4831\n    /* \"@chainlink/contracts/src/v0.8/ChainlinkClient.sol\":8924:8973  PointerInterface(LINK_TOKEN_POINTER).getAddress() */\n  mload(0x40)\n  dup2\n  0xffffffff\n  and\n  0xe0\n  shl\n  dup2\n  mstore\n  0x04\n  add\n  0x20\n  mload(0x40)\n  dup1\n  dup4\n  sub\n  dup2\n  dup7\n  dup1\n  extcodesize\n  iszero\n  dup1\n  iszero\n  tag_9\n  jumpi\n  0x00\n  dup1\n  revert\ntag_9:\n  pop\n  gas\n  staticcall\n  iszero\n  dup1\n  iszero\n  tag_11\n  jumpi\n  returndatasize\n  0x00\n  dup1\n  returndatacopy\n  revert(0x00, returndatasize)\ntag_11:\n  pop\n  pop\n  pop\n  pop\n  mload(0x40)\n  returndatasize\n  not(0x1f)\n  0x1f\n  dup3\n  add\n  and\n  dup3\n  add\n  dup1\n  0x40\n  mstore\n  pop\n  dup2\n  add\n  swap1\n  tag_12\n  swap2\n  swap1\n  tag_13\n  jump\t// in\ntag_12:\n    /* \"@chainlink/contracts/src/v0.8/ChainlinkClient.sol\":8906:8923  setChainlinkToken */\n  shl(0x20, tag_14)\n    /* \"@chainlink/contracts/src/v0.8/ChainlinkClient.sol\":8906:8974  setChainlinkToken(PointerInterface(LINK_TOKEN_POINTER).getAddress()) */\n  0x20\n  shr\n  jump\t// in\ntag_8:\n    /* \"@chainlink/contracts/src/v0.8/ChainlinkClient.sol\":8856:8979  function setPublicChainlinkToken() internal {... */\n  jump\t// out\n    /* \"@chainlink/contracts/src/v0.8/ChainlinkClient.sol\":8625:8733  function setChainlinkToken(address linkAddress) internal {... */\ntag_14:\n    /* \"@chainlink/contracts/src/v0.8/ChainlinkClient.sol\":8716:8727  linkAddress */\n  dup1\n    /* \"@chainlink/contracts/src/v0.8/ChainlinkClient.sol\":8688:8694  s_link */\n  0x02\n  0x00\n    /* \"@chainlink/contracts/src/v0.8/ChainlinkClient.sol\":8688:8728  s_link = LinkTokenInterface(linkAddress) */\n  0x0100\n  exp\n  dup2\n  sload\n  dup2\n  0xffffffffffffffffffffffffffffffffffffffff\n  mul\n  not\n  and\n  swap1\n  dup4\n  0xffffffffffffffffffffffffffffffffffffffff\n  and\n  mul\n  or\n  swap1\n  sstore\n  pop\n    /* \"@chainlink/contracts/src/v0.8/ChainlinkClient.sol\":8625:8733  function setChainlinkToken(address linkAddress) internal {... */\n  pop\n  jump\t// out\n    /* \"#utility.yul\":7:150   */\ntag_17:\n    /* \"#utility.yul\":64:69   */\n  0x00\n    /* \"#utility.yul\":95:101   */\n  dup2\n    /* \"#utility.yul\":89:102   */\n  mload\n    /* \"#utility.yul\":80:102   */\n  swap1\n  pop\n    /* \"#utility.yul\":111:144   */\n  tag_19\n    /* \"#utility.yul\":138:143   */\n  dup2\n    /* \"#utility.yul\":111:144   */\n  tag_20\n  jump\t// in\ntag_19:\n    /* \"#utility.yul\":7:150   */\n  swap3\n  swap2\n  pop\n  pop\n  jump\t// out\n    /* \"#utility.yul\":156:507   */\ntag_13:\n    /* \"#utility.yul\":226:232   */\n  0x00\n    /* \"#utility.yul\":275:277   */\n  0x20\n    /* \"#utility.yul\":263:272   */\n  dup3\n    /* \"#utility.yul\":254:261   */\n  dup5\n    /* \"#utility.yul\":250:273   */\n  sub\n    /* \"#utility.yul\":246:278   */\n  slt\n    /* \"#utility.yul\":243:362   */\n  iszero\n  tag_22\n  jumpi\n    /* \"#utility.yul\":281:360   */\n  tag_23\n  tag_24\n  jump\t// in\ntag_23:\n    /* \"#utility.yul\":243:362   */\ntag_22:\n    /* \"#utility.yul\":401:402   */\n  0x00\n    /* \"#utility.yul\":426:490   */\n  tag_25\n    /* \"#utility.yul\":482:489   */\n  dup5\n    /* \"#utility.yul\":473:479   */\n  dup3\n    /* \"#utility.yul\":462:471   */\n  dup6\n    /* \"#utility.yul\":458:480   */\n  add\n    /* \"#utility.yul\":426:490   */\n  tag_17\n  jump\t// in\ntag_25:\n    /* \"#utility.yul\":416:490   */\n  swap2\n  pop\n    /* \"#utility.yul\":372:500   */\n  pop\n    /* \"#utility.yul\":156:507   */\n  swap3\n  swap2\n  pop\n  pop\n  jump\t// out\n    /* \"#utility.yul\":594:690   */\ntag_28:\n    /* \"#utility.yul\":631:638   */\n  0x00\n    /* \"#utility.yul\":660:684   */\n  tag_30\n    /* \"#utility.yul\":678:683   */\n  dup3\n    /* \"#utility.yul\":660:684   */\n  tag_31\n  jump\t// in\ntag_30:\n    /* \"#utility.yul\":649:684   */\n  swap1\n  pop\n    /* \"#utility.yul\":594:690   */\n  swap2\n  swap1\n  pop\n  jump\t// out\n    /* \"#utility.yul\":696:822   */\ntag_31:\n    /* \"#utility.yul\":733:740   */\n  0x00\n    /* \"#utility.yul\":773:815   */\n  0xffffffffffffffffffffffffffffffffffffffff\n    /* \"#utility.yul\":766:771   */\n  dup3\n    /* \"#utility.yul\":762:816   */\n  and\n    /* \"#utility.yul\":751:816   */\n  swap1\n  pop\n    /* \"#utility.yul\":696:822   */\n  swap2\n  swap1\n  pop\n  jump\t// out\n    /* \"#utility.yul\":951:1068   */\ntag_24:\n    /* \"#utility.yul\":1060:1061   */\n  0x00\n    /* \"#utility.yul\":1057:1058   */\n  dup1\n    /* \"#utility.yul\":1050:1062   */\n  revert\n    /* \"#utility.yul\":1074:1196   */\ntag_20:\n    /* \"#utility.yul\":1147:1171   */\n  tag_37\n    /* \"#utility.yul\":1165:1170   */\n  dup2\n    /* \"#utility.yul\":1147:1171   */\n  tag_28\n  jump\t// in\ntag_37:\n    /* \"#utility.yul\":1140:1145   */\n  dup2\n    /* \"#utility.yul\":1137:1172   */\n  eq\n    /* \"#utility.yul\":1127:1190   */\n  tag_38\n  jumpi\n    /* \"#utility.yul\":1186:1187   */\n  0x00\n    /* \"#utility.yul\":1183:1184   */\n  dup1\n    /* \"#utility.yul\":1176:1188   */\n  revert\n    /* \"#utility.yul\":1127:1190   */\ntag_38:\n    /* \"#utility.yul\":1074:1196   */\n  pop\n  jump\t// out\n    /* \"docs.chain.link/samples/APIRequests/APIConsumer.sol\":460:2756  contract APIConsumer is ChainlinkClient {... */\ntag_6:\n  dataSize(sub_0)\n  dup1\n  dataOffset(sub_0)\n  0x00\n  codecopy\n  0x00\n  return\nstop\n\nsub_0: assembly {\n        /* \"docs.chain.link/samples/APIRequests/APIConsumer.sol\":460:2756  contract APIConsumer is ChainlinkClient {... */\n      mstore(0x40, 0x80)\n      callvalue\n      dup1\n      iszero\n      tag_1\n      jumpi\n      0x00\n      dup1\n      revert\n    tag_1:\n      pop\n      jumpi(tag_2, lt(calldatasize, 0x04))\n      shr(0xe0, calldataload(0x00))\n      dup1\n      0x4357855e\n      eq\n      tag_3\n      jumpi\n      dup1\n      0x6021abac\n      eq\n      tag_4\n      jumpi\n      dup1\n      0xc618a1e4\n      eq\n      tag_5\n      jumpi\n    tag_2:\n      0x00\n      dup1\n      revert\n        /* \"docs.chain.link/samples/APIRequests/APIConsumer.sol\":2498:2635  function fulfill(bytes32 _requestId, uint256 _volume) public recordChainlinkFulfillment(_requestId)... */\n    tag_3:\n      tag_6\n      0x04\n      dup1\n      calldatasize\n      sub\n      dup2\n      add\n      swap1\n      tag_7\n      swap2\n      swap1\n      tag_8\n      jump\t// in\n    tag_7:\n      tag_9\n      jump\t// in\n    tag_6:\n      stop\n        /* \"docs.chain.link/samples/APIRequests/APIConsumer.sol\":1288:2420  function requestVolumeData() public returns (bytes32 requestId) ... */\n    tag_4:\n      tag_10\n      tag_11\n      jump\t// in\n    tag_10:\n      mload(0x40)\n      tag_12\n      swap2\n      swap1\n      tag_13\n      jump\t// in\n    tag_12:\n      mload(0x40)\n      dup1\n      swap2\n      sub\n      swap1\n      return\n        /* \"docs.chain.link/samples/APIRequests/APIConsumer.sol\":552:573  uint256 public volume */\n    tag_5:\n      tag_14\n      tag_15\n      jump\t// in\n    tag_14:\n      mload(0x40)\n      tag_16\n      swap2\n      swap1\n      tag_17\n      jump\t// in\n    tag_16:\n      mload(0x40)\n      dup1\n      swap2\n      sub\n      swap1\n      return\n        /* \"docs.chain.link/samples/APIRequests/APIConsumer.sol\":2498:2635  function fulfill(bytes32 _requestId, uint256 _volume) public recordChainlinkFulfillment(_requestId)... */\n    tag_9:\n        /* \"docs.chain.link/samples/APIRequests/APIConsumer.sol\":2586:2596  _requestId */\n      dup2\n        /* \"@chainlink/contracts/src/v0.8/ChainlinkClient.sol\":11663:11680  s_pendingRequests */\n      0x05\n        /* \"@chainlink/contracts/src/v0.8/ChainlinkClient.sol\":11663:11691  s_pendingRequests[requestId] */\n      0x00\n        /* \"@chainlink/contracts/src/v0.8/ChainlinkClient.sol\":11681:11690  requestId */\n      dup3\n        /* \"@chainlink/contracts/src/v0.8/ChainlinkClient.sol\":11663:11691  s_pendingRequests[requestId] */\n      dup2\n      mstore\n      0x20\n      add\n      swap1\n      dup2\n      mstore\n      0x20\n      add\n      0x00\n      keccak256\n      0x00\n      swap1\n      sload\n      swap1\n      0x0100\n      exp\n      swap1\n      div\n      0xffffffffffffffffffffffffffffffffffffffff\n      and\n        /* \"@chainlink/contracts/src/v0.8/ChainlinkClient.sol\":11649:11691  msg.sender == s_pendingRequests[requestId] */\n      0xffffffffffffffffffffffffffffffffffffffff\n      and\n        /* \"@chainlink/contracts/src/v0.8/ChainlinkClient.sol\":11649:11659  msg.sender */\n      caller\n        /* \"@chainlink/contracts/src/v0.8/ChainlinkClient.sol\":11649:11691  msg.sender == s_pendingRequests[requestId] */\n      0xffffffffffffffffffffffffffffffffffffffff\n      and\n      eq\n        /* \"@chainlink/contracts/src/v0.8/ChainlinkClient.sol\":11641:11736  require(msg.sender == s_pendingRequests[requestId], \"Source must be the oracle of the request\") */\n      tag_19\n      jumpi\n      mload(0x40)\n      0x08c379a000000000000000000000000000000000000000000000000000000000\n      dup2\n      mstore\n      0x04\n      add\n      tag_20\n      swap1\n      tag_21\n      jump\t// in\n    tag_20:\n      mload(0x40)\n      dup1\n      swap2\n      sub\n      swap1\n      revert\n    tag_19:\n        /* \"@chainlink/contracts/src/v0.8/ChainlinkClient.sol\":11749:11766  s_pendingRequests */\n      0x05\n        /* \"@chainlink/contracts/src/v0.8/ChainlinkClient.sol\":11749:11777  s_pendingRequests[requestId] */\n      0x00\n        /* \"@chainlink/contracts/src/v0.8/ChainlinkClient.sol\":11767:11776  requestId */\n      dup3\n        /* \"@chainlink/contracts/src/v0.8/ChainlinkClient.sol\":11749:11777  s_pendingRequests[requestId] */\n      dup2\n      mstore\n      0x20\n      add\n      swap1\n      dup2\n      mstore\n      0x20\n      add\n      0x00\n      keccak256\n      0x00\n        /* \"@chainlink/contracts/src/v0.8/ChainlinkClient.sol\":11742:11777  delete s_pendingRequests[requestId] */\n      0x0100\n      exp\n      dup2\n      sload\n      swap1\n      0xffffffffffffffffffffffffffffffffffffffff\n      mul\n      not\n      and\n      swap1\n      sstore\n        /* \"@chainlink/contracts/src/v0.8/ChainlinkClient.sol\":11807:11816  requestId */\n      dup1\n        /* \"@chainlink/contracts/src/v0.8/ChainlinkClient.sol\":11788:11817  ChainlinkFulfilled(requestId) */\n      0x7cc135e0cebb02c3480ae5d74d377283180a2601f8f644edf7987b009316c63a\n      mload(0x40)\n      mload(0x40)\n      dup1\n      swap2\n      sub\n      swap1\n      log2\n        /* \"docs.chain.link/samples/APIRequests/APIConsumer.sol\":2621:2628  _volume */\n      dup2\n        /* \"docs.chain.link/samples/APIRequests/APIConsumer.sol\":2612:2618  volume */\n      0x06\n        /* \"docs.chain.link/samples/APIRequests/APIConsumer.sol\":2612:2628  volume = _volume */\n      dup2\n      swap1\n      sstore\n      pop\n        /* \"docs.chain.link/samples/APIRequests/APIConsumer.sol\":2498:2635  function fulfill(bytes32 _requestId, uint256 _volume) public recordChainlinkFulfillment(_requestId)... */\n      pop\n      pop\n      pop\n      jump\t// out\n        /* \"docs.chain.link/samples/APIRequests/APIConsumer.sol\":1288:2420  function requestVolumeData() public returns (bytes32 requestId) ... */\n    tag_11:\n        /* \"docs.chain.link/samples/APIRequests/APIConsumer.sol\":1333:1350  bytes32 requestId */\n      0x00\n        /* \"docs.chain.link/samples/APIRequests/APIConsumer.sol\":1367:1399  Chainlink.Request memory request */\n      dup1\n        /* \"docs.chain.link/samples/APIRequests/APIConsumer.sol\":1402:1468  buildChainlinkRequest(jobId, address(this), this.fulfill.selector) */\n      tag_24\n        /* \"docs.chain.link/samples/APIRequests/APIConsumer.sol\":1424:1429  jobId */\n      sload(0x08)\n        /* \"docs.chain.link/samples/APIRequests/APIConsumer.sol\":1439:1443  this */\n      address\n        /* \"docs.chain.link/samples/APIRequests/APIConsumer.sol\":1446:1467  this.fulfill.selector */\n      shl(0xe0, 0x4357855e)\n        /* \"docs.chain.link/samples/APIRequests/APIConsumer.sol\":1402:1423  buildChainlinkRequest */\n      tag_25\n        /* \"docs.chain.link/samples/APIRequests/APIConsumer.sol\":1402:1468  buildChainlinkRequest(jobId, address(this), this.fulfill.selector) */\n      jump\t// in\n    tag_24:\n        /* \"docs.chain.link/samples/APIRequests/APIConsumer.sol\":1367:1468  Chainlink.Request memory request = buildChainlinkRequest(jobId, address(this), this.fulfill.selector) */\n      swap1\n      pop\n        /* \"docs.chain.link/samples/APIRequests/APIConsumer.sol\":1540:1635  request.add(\"get\", \"https://min-api.cryptocompare.com/data/pricemultifull?fsyms=ETH&tsyms=USD\") */\n      tag_26\n      mload(0x40)\n      dup1\n      0x40\n      add\n      0x40\n      mstore\n      dup1\n      0x03\n      dup2\n      mstore\n      0x20\n      add\n      0x6765740000000000000000000000000000000000000000000000000000000000\n      dup2\n      mstore\n      pop\n      mload(0x40)\n      dup1\n      0x80\n      add\n      0x40\n      mstore\n      dup1\n      0x49\n      dup2\n      mstore\n      0x20\n      add\n      data_f3fa6b402eb4c49347f9ac6c8c8e0baf0eacaf39bcd59583feb12d9b90720124\n      0x49\n      swap2\n      codecopy\n        /* \"docs.chain.link/samples/APIRequests/APIConsumer.sol\":1540:1547  request */\n      dup4\n        /* \"docs.chain.link/samples/APIRequests/APIConsumer.sol\":1540:1551  request.add */\n      tag_27\n      swap1\n        /* \"docs.chain.link/samples/APIRequests/APIConsumer.sol\":1540:1635  request.add(\"get\", \"https://min-api.cryptocompare.com/data/pricemultifull?fsyms=ETH&tsyms=USD\") */\n      swap3\n      swap2\n      swap1\n      0xffffffff\n      and\n      jump\t// in\n    tag_26:\n        /* \"docs.chain.link/samples/APIRequests/APIConsumer.sol\":2050:2097  request.add(\"path\", \"RAW,ETH,USD,VOLUME24HOUR\") */\n      tag_28\n      mload(0x40)\n      dup1\n      0x40\n      add\n      0x40\n      mstore\n      dup1\n      0x04\n      dup2\n      mstore\n      0x20\n      add\n      0x7061746800000000000000000000000000000000000000000000000000000000\n      dup2\n      mstore\n      pop\n      mload(0x40)\n      dup1\n      0x40\n      add\n      0x40\n      mstore\n      dup1\n      0x18\n      dup2\n      mstore\n      0x20\n      add\n      0x5241572c4554482c5553442c564f4c554d453234484f55520000000000000000\n      dup2\n      mstore\n      pop\n        /* \"docs.chain.link/samples/APIRequests/APIConsumer.sol\":2050:2057  request */\n      dup4\n        /* \"docs.chain.link/samples/APIRequests/APIConsumer.sol\":2050:2061  request.add */\n      tag_27\n      swap1\n        /* \"docs.chain.link/samples/APIRequests/APIConsumer.sol\":2050:2097  request.add(\"path\", \"RAW,ETH,USD,VOLUME24HOUR\") */\n      swap3\n      swap2\n      swap1\n      0xffffffff\n      and\n      jump\t// in\n    tag_28:\n        /* \"docs.chain.link/samples/APIRequests/APIConsumer.sol\":2244:2259  int timesAmount */\n      0x00\n        /* \"docs.chain.link/samples/APIRequests/APIConsumer.sol\":2262:2268  10**18 */\n      0x0de0b6b3a7640000\n        /* \"docs.chain.link/samples/APIRequests/APIConsumer.sol\":2244:2268  int timesAmount = 10**18 */\n      swap1\n      pop\n        /* \"docs.chain.link/samples/APIRequests/APIConsumer.sol\":2278:2314  request.addInt(\"times\", timesAmount) */\n      tag_29\n      mload(0x40)\n      dup1\n      0x40\n      add\n      0x40\n      mstore\n      dup1\n      0x05\n      dup2\n      mstore\n      0x20\n      add\n      0x74696d6573000000000000000000000000000000000000000000000000000000\n      dup2\n      mstore\n      pop\n        /* \"docs.chain.link/samples/APIRequests/APIConsumer.sol\":2302:2313  timesAmount */\n      dup3\n        /* \"docs.chain.link/samples/APIRequests/APIConsumer.sol\":2278:2285  request */\n      dup5\n        /* \"docs.chain.link/samples/APIRequests/APIConsumer.sol\":2278:2292  request.addInt */\n      tag_30\n      swap1\n        /* \"docs.chain.link/samples/APIRequests/APIConsumer.sol\":2278:2314  request.addInt(\"times\", timesAmount) */\n      swap3\n      swap2\n      swap1\n      0xffffffff\n      and\n      jump\t// in\n    tag_29:\n        /* \"docs.chain.link/samples/APIRequests/APIConsumer.sol\":2369:2413  sendChainlinkRequestTo(oracle, request, fee) */\n      tag_31\n        /* \"docs.chain.link/samples/APIRequests/APIConsumer.sol\":2392:2398  oracle */\n      0x07\n      0x00\n      swap1\n      sload\n      swap1\n      0x0100\n      exp\n      swap1\n      div\n      0xffffffffffffffffffffffffffffffffffffffff\n      and\n        /* \"docs.chain.link/samples/APIRequests/APIConsumer.sol\":2400:2407  request */\n      dup4\n        /* \"docs.chain.link/samples/APIRequests/APIConsumer.sol\":2409:2412  fee */\n      sload(0x09)\n        /* \"docs.chain.link/samples/APIRequests/APIConsumer.sol\":2369:2391  sendChainlinkRequestTo */\n      tag_32\n        /* \"docs.chain.link/samples/APIRequests/APIConsumer.sol\":2369:2413  sendChainlinkRequestTo(oracle, request, fee) */\n      jump\t// in\n    tag_31:\n        /* \"docs.chain.link/samples/APIRequests/APIConsumer.sol\":2362:2413  return sendChainlinkRequestTo(oracle, request, fee) */\n      swap3\n      pop\n      pop\n      pop\n        /* \"docs.chain.link/samples/APIRequests/APIConsumer.sol\":1288:2420  function requestVolumeData() public returns (bytes32 requestId) ... */\n      swap1\n      jump\t// out\n        /* \"docs.chain.link/samples/APIRequests/APIConsumer.sol\":552:573  uint256 public volume */\n    tag_15:\n      sload(0x06)\n      dup2\n      jump\t// out\n        /* \"@chainlink/contracts/src/v0.8/ChainlinkClient.sol\":1850:2133  function buildChainlinkRequest(... */\n    tag_25:\n        /* \"@chainlink/contracts/src/v0.8/ChainlinkClient.sol\":1992:2016  Chainlink.Request memory */\n      tag_33\n      tag_34\n      jump\t// in\n    tag_33:\n        /* \"@chainlink/contracts/src/v0.8/ChainlinkClient.sol\":2024:2052  Chainlink.Request memory req */\n      tag_36\n      tag_34\n      jump\t// in\n    tag_36:\n        /* \"@chainlink/contracts/src/v0.8/ChainlinkClient.sol\":2065:2128  req.initialize(specId, callbackAddr, callbackFunctionSignature) */\n      tag_37\n        /* \"@chainlink/contracts/src/v0.8/ChainlinkClient.sol\":2080:2086  specId */\n      dup6\n        /* \"@chainlink/contracts/src/v0.8/ChainlinkClient.sol\":2088:2100  callbackAddr */\n      dup6\n        /* \"@chainlink/contracts/src/v0.8/ChainlinkClient.sol\":2102:2127  callbackFunctionSignature */\n      dup6\n        /* \"@chainlink/contracts/src/v0.8/ChainlinkClient.sol\":2065:2068  req */\n      dup5\n        /* \"@chainlink/contracts/src/v0.8/ChainlinkClient.sol\":2065:2079  req.initialize */\n      tag_38\n      swap1\n        /* \"@chainlink/contracts/src/v0.8/ChainlinkClient.sol\":2065:2128  req.initialize(specId, callbackAddr, callbackFunctionSignature) */\n      swap4\n      swap3\n      swap2\n      swap1\n      0xffffffff\n      and\n      jump\t// in\n    tag_37:\n        /* \"@chainlink/contracts/src/v0.8/ChainlinkClient.sol\":2058:2128  return req.initialize(specId, callbackAddr, callbackFunctionSignature) */\n      swap2\n      pop\n      pop\n        /* \"@chainlink/contracts/src/v0.8/ChainlinkClient.sol\":1850:2133  function buildChainlinkRequest(... */\n      swap4\n      swap3\n      pop\n      pop\n      pop\n      jump\t// out\n        /* \"@chainlink/contracts/src/v0.8/Chainlink.sol\":1951:2126  function add(... */\n    tag_27:\n        /* \"@chainlink/contracts/src/v0.8/Chainlink.sol\":2061:2087  self.buf.encodeString(key) */\n      tag_40\n        /* \"@chainlink/contracts/src/v0.8/Chainlink.sol\":2083:2086  key */\n      dup3\n        /* \"@chainlink/contracts/src/v0.8/Chainlink.sol\":2061:2065  self */\n      dup5\n        /* \"@chainlink/contracts/src/v0.8/Chainlink.sol\":2061:2069  self.buf */\n      0x80\n      add\n      mload\n        /* \"@chainlink/contracts/src/v0.8/Chainlink.sol\":2061:2082  self.buf.encodeString */\n      tag_41\n      swap1\n        /* \"@chainlink/contracts/src/v0.8/Chainlink.sol\":2061:2087  self.buf.encodeString(key) */\n      swap2\n      swap1\n      0xffffffff\n      and\n      jump\t// in\n    tag_40:\n        /* \"@chainlink/contracts/src/v0.8/Chainlink.sol\":2093:2121  self.buf.encodeString(value) */\n      tag_42\n        /* \"@chainlink/contracts/src/v0.8/Chainlink.sol\":2115:2120  value */\n      dup2\n        /* \"@chainlink/contracts/src/v0.8/Chainlink.sol\":2093:2097  self */\n      dup5\n        /* \"@chainlink/contracts/src/v0.8/Chainlink.sol\":2093:2101  self.buf */\n      0x80\n      add\n      mload\n        /* \"@chainlink/contracts/src/v0.8/Chainlink.sol\":2093:2114  self.buf.encodeString */\n      tag_41\n      swap1\n        /* \"@chainlink/contracts/src/v0.8/Chainlink.sol\":2093:2121  self.buf.encodeString(value) */\n      swap2\n      swap1\n      0xffffffff\n      and\n      jump\t// in\n    tag_42:\n        /* \"@chainlink/contracts/src/v0.8/Chainlink.sol\":1951:2126  function add(... */\n      pop\n      pop\n      pop\n      jump\t// out\n        /* \"@chainlink/contracts/src/v0.8/Chainlink.sol\":2712:2880  function addInt(... */\n    tag_30:\n        /* \"@chainlink/contracts/src/v0.8/Chainlink.sol\":2818:2844  self.buf.encodeString(key) */\n      tag_44\n        /* \"@chainlink/contracts/src/v0.8/Chainlink.sol\":2840:2843  key */\n      dup3\n        /* \"@chainlink/contracts/src/v0.8/Chainlink.sol\":2818:2822  self */\n      dup5\n        /* \"@chainlink/contracts/src/v0.8/Chainlink.sol\":2818:2826  self.buf */\n      0x80\n      add\n      mload\n        /* \"@chainlink/contracts/src/v0.8/Chainlink.sol\":2818:2839  self.buf.encodeString */\n      tag_41\n      swap1\n        /* \"@chainlink/contracts/src/v0.8/Chainlink.sol\":2818:2844  self.buf.encodeString(key) */\n      swap2\n      swap1\n      0xffffffff\n      and\n      jump\t// in\n    tag_44:\n        /* \"@chainlink/contracts/src/v0.8/Chainlink.sol\":2850:2875  self.buf.encodeInt(value) */\n      tag_45\n        /* \"@chainlink/contracts/src/v0.8/Chainlink.sol\":2869:2874  value */\n      dup2\n        /* \"@chainlink/contracts/src/v0.8/Chainlink.sol\":2850:2854  self */\n      dup5\n        /* \"@chainlink/contracts/src/v0.8/Chainlink.sol\":2850:2858  self.buf */\n      0x80\n      add\n      mload\n        /* \"@chainlink/contracts/src/v0.8/Chainlink.sol\":2850:2868  self.buf.encodeInt */\n      tag_46\n      swap1\n        /* \"@chainlink/contracts/src/v0.8/Chainlink.sol\":2850:2875  self.buf.encodeInt(value) */\n      swap2\n      swap1\n      0xffffffff\n      and\n      jump\t// in\n    tag_45:\n        /* \"@chainlink/contracts/src/v0.8/Chainlink.sol\":2712:2880  function addInt(... */\n      pop\n      pop\n      pop\n      jump\t// out\n        /* \"@chainlink/contracts/src/v0.8/ChainlinkClient.sol\":3687:4443  function sendChainlinkRequestTo(... */\n    tag_32:\n        /* \"@chainlink/contracts/src/v0.8/ChainlinkClient.sol\":3823:3840  bytes32 requestId */\n      0x00\n        /* \"@chainlink/contracts/src/v0.8/ChainlinkClient.sol\":3848:3861  uint256 nonce */\n      dup1\n        /* \"@chainlink/contracts/src/v0.8/ChainlinkClient.sol\":3864:3878  s_requestCount */\n      sload(0x04)\n        /* \"@chainlink/contracts/src/v0.8/ChainlinkClient.sol\":3848:3878  uint256 nonce = s_requestCount */\n      swap1\n      pop\n        /* \"@chainlink/contracts/src/v0.8/ChainlinkClient.sol\":3909:3910  1 */\n      0x01\n        /* \"@chainlink/contracts/src/v0.8/ChainlinkClient.sol\":3901:3906  nonce */\n      dup2\n        /* \"@chainlink/contracts/src/v0.8/ChainlinkClient.sol\":3901:3910  nonce + 1 */\n      tag_48\n      swap2\n      swap1\n      tag_49\n      jump\t// in\n    tag_48:\n        /* \"@chainlink/contracts/src/v0.8/ChainlinkClient.sol\":3884:3898  s_requestCount */\n      0x04\n        /* \"@chainlink/contracts/src/v0.8/ChainlinkClient.sol\":3884:3910  s_requestCount = nonce + 1 */\n      dup2\n      swap1\n      sstore\n      pop\n        /* \"@chainlink/contracts/src/v0.8/ChainlinkClient.sol\":3916:3943  bytes memory encodedRequest */\n      0x00\n        /* \"@chainlink/contracts/src/v0.8/ChainlinkClient.sol\":3976:4024  ChainlinkRequestInterface.oracleRequest.selector */\n      shl(0xe0, 0x40429946)\n        /* \"@chainlink/contracts/src/v0.8/ChainlinkClient.sol\":784:785  0 */\n      0x00\n        /* \"@chainlink/contracts/src/v0.8/ChainlinkClient.sol\":728:729  0 */\n      dup1\n        /* \"@chainlink/contracts/src/v0.8/ChainlinkClient.sol\":4245:4248  req */\n      dup8\n        /* \"@chainlink/contracts/src/v0.8/ChainlinkClient.sol\":4245:4251  req.id */\n      0x00\n      add\n      mload\n        /* \"@chainlink/contracts/src/v0.8/ChainlinkClient.sol\":4267:4271  this */\n      address\n        /* \"@chainlink/contracts/src/v0.8/ChainlinkClient.sol\":4280:4283  req */\n      dup10\n        /* \"@chainlink/contracts/src/v0.8/ChainlinkClient.sol\":4280:4302  req.callbackFunctionId */\n      0x40\n      add\n      mload\n        /* \"@chainlink/contracts/src/v0.8/ChainlinkClient.sol\":4310:4315  nonce */\n      dup8\n        /* \"@chainlink/contracts/src/v0.8/ChainlinkClient.sol\":837:838  1 */\n      0x01\n        /* \"@chainlink/contracts/src/v0.8/ChainlinkClient.sol\":4350:4353  req */\n      dup13\n        /* \"@chainlink/contracts/src/v0.8/ChainlinkClient.sol\":4350:4357  req.buf */\n      0x80\n      add\n      mload\n        /* \"@chainlink/contracts/src/v0.8/ChainlinkClient.sol\":4350:4361  req.buf.buf */\n      0x00\n      add\n      mload\n        /* \"@chainlink/contracts/src/v0.8/ChainlinkClient.sol\":3946:4367  abi.encodeWithSelector(... */\n      add(0x24, mload(0x40))\n      tag_50\n      swap9\n      swap8\n      swap7\n      swap6\n      swap5\n      swap4\n      swap3\n      swap2\n      swap1\n      tag_51\n      jump\t// in\n    tag_50:\n      mload(0x40)\n      0x20\n      dup2\n      dup4\n      sub\n      sub\n      dup2\n      mstore\n      swap1\n      0x40\n      mstore\n      swap1\n      not(0xffffffffffffffffffffffffffffffffffffffffffffffffffffffff)\n      and\n      0x20\n      dup3\n      add\n      dup1\n      mload\n      0xffffffffffffffffffffffffffffffffffffffffffffffffffffffff\n      dup4\n      dup2\n      dup4\n      and\n      or\n      dup4\n      mstore\n      pop\n      pop\n      pop\n      pop\n        /* \"@chainlink/contracts/src/v0.8/ChainlinkClient.sol\":3916:4367  bytes memory encodedRequest = abi.encodeWithSelector(... */\n      swap1\n      pop\n        /* \"@chainlink/contracts/src/v0.8/ChainlinkClient.sol\":4380:4438  _rawRequest(oracleAddress, nonce, payment, encodedRequest) */\n      tag_52\n        /* \"@chainlink/contracts/src/v0.8/ChainlinkClient.sol\":4392:4405  oracleAddress */\n      dup7\n        /* \"@chainlink/contracts/src/v0.8/ChainlinkClient.sol\":4407:4412  nonce */\n      dup4\n        /* \"@chainlink/contracts/src/v0.8/ChainlinkClient.sol\":4414:4421  payment */\n      dup7\n        /* \"@chainlink/contracts/src/v0.8/ChainlinkClient.sol\":4423:4437  encodedRequest */\n      dup5\n        /* \"@chainlink/contracts/src/v0.8/ChainlinkClient.sol\":4380:4391  _rawRequest */\n      tag_53\n        /* \"@chainlink/contracts/src/v0.8/ChainlinkClient.sol\":4380:4438  _rawRequest(oracleAddress, nonce, payment, encodedRequest) */\n      jump\t// in\n    tag_52:\n        /* \"@chainlink/contracts/src/v0.8/ChainlinkClient.sol\":4373:4438  return _rawRequest(oracleAddress, nonce, payment, encodedRequest) */\n      swap3\n      pop\n      pop\n      pop\n        /* \"@chainlink/contracts/src/v0.8/ChainlinkClient.sol\":3687:4443  function sendChainlinkRequestTo(... */\n      swap4\n      swap3\n      pop\n      pop\n      pop\n      jump\t// out\n        /* \"@chainlink/contracts/src/v0.8/Chainlink.sol\":987:1338  function initialize(... */\n    tag_38:\n        /* \"@chainlink/contracts/src/v0.8/Chainlink.sol\":1129:1153  Chainlink.Request memory */\n      tag_54\n      tag_34\n      jump\t// in\n    tag_54:\n        /* \"@chainlink/contracts/src/v0.8/Chainlink.sol\":1161:1210  BufferChainlink.init(self.buf, defaultBufferSize) */\n      tag_56\n        /* \"@chainlink/contracts/src/v0.8/Chainlink.sol\":1182:1186  self */\n      dup6\n        /* \"@chainlink/contracts/src/v0.8/Chainlink.sol\":1182:1190  self.buf */\n      0x80\n      add\n      mload\n        /* \"@chainlink/contracts/src/v0.8/Chainlink.sol\":361:364  256 */\n      0x0100\n        /* \"@chainlink/contracts/src/v0.8/Chainlink.sol\":1161:1181  BufferChainlink.init */\n      tag_57\n        /* \"@chainlink/contracts/src/v0.8/Chainlink.sol\":1161:1210  BufferChainlink.init(self.buf, defaultBufferSize) */\n      jump\t// in\n    tag_56:\n      pop\n        /* \"@chainlink/contracts/src/v0.8/Chainlink.sol\":1226:1231  jobId */\n      dup4\n        /* \"@chainlink/contracts/src/v0.8/Chainlink.sol\":1216:1220  self */\n      dup6\n        /* \"@chainlink/contracts/src/v0.8/Chainlink.sol\":1216:1223  self.id */\n      0x00\n      add\n        /* \"@chainlink/contracts/src/v0.8/Chainlink.sol\":1216:1231  self.id = jobId */\n      dup2\n      dup2\n      mstore\n      pop\n      pop\n        /* \"@chainlink/contracts/src/v0.8/Chainlink.sol\":1260:1272  callbackAddr */\n      dup3\n        /* \"@chainlink/contracts/src/v0.8/Chainlink.sol\":1237:1241  self */\n      dup6\n        /* \"@chainlink/contracts/src/v0.8/Chainlink.sol\":1237:1257  self.callbackAddress */\n      0x20\n      add\n        /* \"@chainlink/contracts/src/v0.8/Chainlink.sol\":1237:1272  self.callbackAddress = callbackAddr */\n      swap1\n      0xffffffffffffffffffffffffffffffffffffffff\n      and\n      swap1\n      dup2\n      0xffffffffffffffffffffffffffffffffffffffff\n      and\n      dup2\n      mstore\n      pop\n      pop\n        /* \"@chainlink/contracts/src/v0.8/Chainlink.sol\":1304:1316  callbackFunc */\n      dup2\n        /* \"@chainlink/contracts/src/v0.8/Chainlink.sol\":1278:1282  self */\n      dup6\n        /* \"@chainlink/contracts/src/v0.8/Chainlink.sol\":1278:1301  self.callbackFunctionId */\n      0x40\n      add\n        /* \"@chainlink/contracts/src/v0.8/Chainlink.sol\":1278:1316  self.callbackFunctionId = callbackFunc */\n      swap1\n      not(0xffffffffffffffffffffffffffffffffffffffffffffffffffffffff)\n      and\n      swap1\n      dup2\n      not(0xffffffffffffffffffffffffffffffffffffffffffffffffffffffff)\n      and\n      dup2\n      mstore\n      pop\n      pop\n        /* \"@chainlink/contracts/src/v0.8/Chainlink.sol\":1329:1333  self */\n      dup5\n        /* \"@chainlink/contracts/src/v0.8/Chainlink.sol\":1322:1333  return self */\n      swap1\n      pop\n        /* \"@chainlink/contracts/src/v0.8/Chainlink.sol\":987:1338  function initialize(... */\n      swap5\n      swap4\n      pop\n      pop\n      pop\n      pop\n      jump\t// out\n        /* \"@chainlink/contracts/src/v0.8/vendor/CBORChainlink.sol\":2777:2981  function encodeString(BufferChainlink.buffer memory buf, string memory value) internal pure {... */\n    tag_41:\n        /* \"@chainlink/contracts/src/v0.8/vendor/CBORChainlink.sol\":2875:2946  encodeFixedNumeric(buf, MAJOR_TYPE_STRING, uint64(bytes(value).length)) */\n      tag_59\n        /* \"@chainlink/contracts/src/v0.8/vendor/CBORChainlink.sol\":2894:2897  buf */\n      dup3\n        /* \"@chainlink/contracts/src/v0.8/vendor/CBORChainlink.sol\":383:384  3 */\n      0x03\n        /* \"@chainlink/contracts/src/v0.8/vendor/CBORChainlink.sol\":2931:2936  value */\n      dup4\n        /* \"@chainlink/contracts/src/v0.8/vendor/CBORChainlink.sol\":2925:2944  bytes(value).length */\n      mload\n        /* \"@chainlink/contracts/src/v0.8/vendor/CBORChainlink.sol\":2875:2893  encodeFixedNumeric */\n      tag_60\n        /* \"@chainlink/contracts/src/v0.8/vendor/CBORChainlink.sol\":2875:2946  encodeFixedNumeric(buf, MAJOR_TYPE_STRING, uint64(bytes(value).length)) */\n      jump\t// in\n    tag_59:\n        /* \"@chainlink/contracts/src/v0.8/vendor/CBORChainlink.sol\":2952:2976  buf.append(bytes(value)) */\n      tag_61\n        /* \"@chainlink/contracts/src/v0.8/vendor/CBORChainlink.sol\":2969:2974  value */\n      dup2\n        /* \"@chainlink/contracts/src/v0.8/vendor/CBORChainlink.sol\":2952:2955  buf */\n      dup4\n        /* \"@chainlink/contracts/src/v0.8/vendor/CBORChainlink.sol\":2952:2962  buf.append */\n      tag_62\n      swap1\n        /* \"@chainlink/contracts/src/v0.8/vendor/CBORChainlink.sol\":2952:2976  buf.append(bytes(value)) */\n      swap2\n      swap1\n      0xffffffff\n      and\n      jump\t// in\n    tag_61:\n      pop\n        /* \"@chainlink/contracts/src/v0.8/vendor/CBORChainlink.sol\":2777:2981  function encodeString(BufferChainlink.buffer memory buf, string memory value) internal pure {... */\n      pop\n      pop\n      jump\t// out\n        /* \"@chainlink/contracts/src/v0.8/vendor/CBORChainlink.sol\":1704:2150  function encodeInt(BufferChainlink.buffer memory buf, int value) internal pure {... */\n    tag_46:\n        /* \"@chainlink/contracts/src/v0.8/vendor/CBORChainlink.sol\":1800:1820  -0x10000000000000000 */\n      0xffffffffffffffffffffffffffffffffffffffffffffffff0000000000000000\n        /* \"@chainlink/contracts/src/v0.8/vendor/CBORChainlink.sol\":1792:1797  value */\n      dup2\n        /* \"@chainlink/contracts/src/v0.8/vendor/CBORChainlink.sol\":1792:1820  value < -0x10000000000000000 */\n      slt\n        /* \"@chainlink/contracts/src/v0.8/vendor/CBORChainlink.sol\":1789:2146  if(value < -0x10000000000000000) {... */\n      iszero\n      tag_64\n      jumpi\n        /* \"@chainlink/contracts/src/v0.8/vendor/CBORChainlink.sol\":1830:1860  encodeSignedBigNum(buf, value) */\n      tag_65\n        /* \"@chainlink/contracts/src/v0.8/vendor/CBORChainlink.sol\":1849:1852  buf */\n      dup3\n        /* \"@chainlink/contracts/src/v0.8/vendor/CBORChainlink.sol\":1854:1859  value */\n      dup3\n        /* \"@chainlink/contracts/src/v0.8/vendor/CBORChainlink.sol\":1830:1848  encodeSignedBigNum */\n      tag_66\n        /* \"@chainlink/contracts/src/v0.8/vendor/CBORChainlink.sol\":1830:1860  encodeSignedBigNum(buf, value) */\n      jump\t// in\n    tag_65:\n        /* \"@chainlink/contracts/src/v0.8/vendor/CBORChainlink.sol\":1789:2146  if(value < -0x10000000000000000) {... */\n      jump(tag_67)\n    tag_64:\n        /* \"@chainlink/contracts/src/v0.8/vendor/CBORChainlink.sol\":1884:1902  0xFFFFFFFFFFFFFFFF */\n      0xffffffffffffffff\n        /* \"@chainlink/contracts/src/v0.8/vendor/CBORChainlink.sol\":1876:1881  value */\n      dup2\n        /* \"@chainlink/contracts/src/v0.8/vendor/CBORChainlink.sol\":1876:1902  value > 0xFFFFFFFFFFFFFFFF */\n      sgt\n        /* \"@chainlink/contracts/src/v0.8/vendor/CBORChainlink.sol\":1873:2146  if(value > 0xFFFFFFFFFFFFFFFF) {... */\n      iszero\n      tag_68\n      jumpi\n        /* \"@chainlink/contracts/src/v0.8/vendor/CBORChainlink.sol\":1912:1942  encodeBigNum(buf, uint(value)) */\n      tag_69\n        /* \"@chainlink/contracts/src/v0.8/vendor/CBORChainlink.sol\":1925:1928  buf */\n      dup3\n        /* \"@chainlink/contracts/src/v0.8/vendor/CBORChainlink.sol\":1935:1940  value */\n      dup3\n        /* \"@chainlink/contracts/src/v0.8/vendor/CBORChainlink.sol\":1912:1924  encodeBigNum */\n      tag_70\n        /* \"@chainlink/contracts/src/v0.8/vendor/CBORChainlink.sol\":1912:1942  encodeBigNum(buf, uint(value)) */\n      jump\t// in\n    tag_69:\n        /* \"@chainlink/contracts/src/v0.8/vendor/CBORChainlink.sol\":1873:2146  if(value > 0xFFFFFFFFFFFFFFFF) {... */\n      jump(tag_71)\n    tag_68:\n        /* \"@chainlink/contracts/src/v0.8/vendor/CBORChainlink.sol\":1967:1968  0 */\n      0x00\n        /* \"@chainlink/contracts/src/v0.8/vendor/CBORChainlink.sol\":1958:1963  value */\n      dup2\n        /* \"@chainlink/contracts/src/v0.8/vendor/CBORChainlink.sol\":1958:1968  value >= 0 */\n      slt\n        /* \"@chainlink/contracts/src/v0.8/vendor/CBORChainlink.sol\":1955:2146  if(value >= 0) {... */\n      tag_72\n      jumpi\n        /* \"@chainlink/contracts/src/v0.8/vendor/CBORChainlink.sol\":1978:2041  encodeFixedNumeric(buf, MAJOR_TYPE_INT, uint64(uint256(value))) */\n      tag_73\n        /* \"@chainlink/contracts/src/v0.8/vendor/CBORChainlink.sol\":1997:2000  buf */\n      dup3\n        /* \"@chainlink/contracts/src/v0.8/vendor/CBORChainlink.sol\":234:235  0 */\n      0x00\n        /* \"@chainlink/contracts/src/v0.8/vendor/CBORChainlink.sol\":2033:2038  value */\n      dup4\n        /* \"@chainlink/contracts/src/v0.8/vendor/CBORChainlink.sol\":1978:1996  encodeFixedNumeric */\n      tag_60\n        /* \"@chainlink/contracts/src/v0.8/vendor/CBORChainlink.sol\":1978:2041  encodeFixedNumeric(buf, MAJOR_TYPE_INT, uint64(uint256(value))) */\n      jump\t// in\n    tag_73:\n        /* \"@chainlink/contracts/src/v0.8/vendor/CBORChainlink.sol\":1955:2146  if(value >= 0) {... */\n      jump(tag_74)\n    tag_72:\n        /* \"@chainlink/contracts/src/v0.8/vendor/CBORChainlink.sol\":2062:2139  encodeFixedNumeric(buf, MAJOR_TYPE_NEGATIVE_INT, uint64(uint256(-1 - value))) */\n      tag_75\n        /* \"@chainlink/contracts/src/v0.8/vendor/CBORChainlink.sol\":2081:2084  buf */\n      dup3\n        /* \"@chainlink/contracts/src/v0.8/vendor/CBORChainlink.sol\":288:289  1 */\n      0x01\n        /* \"@chainlink/contracts/src/v0.8/vendor/CBORChainlink.sol\":2131:2136  value */\n      dup4\n        /* \"@chainlink/contracts/src/v0.8/vendor/CBORChainlink.sol\":2126:2128  -1 */\n      0xffffffffffffffffffffffffffffffffffffffffffffffffffffffffffffffff\n        /* \"@chainlink/contracts/src/v0.8/vendor/CBORChainlink.sol\":2126:2136  -1 - value */\n      tag_76\n      swap2\n      swap1\n      tag_77\n      jump\t// in\n    tag_76:\n        /* \"@chainlink/contracts/src/v0.8/vendor/CBORChainlink.sol\":2062:2080  encodeFixedNumeric */\n      tag_60\n        /* \"@chainlink/contracts/src/v0.8/vendor/CBORChainlink.sol\":2062:2139  encodeFixedNumeric(buf, MAJOR_TYPE_NEGATIVE_INT, uint64(uint256(-1 - value))) */\n      jump\t// in\n    tag_75:\n        /* \"@chainlink/contracts/src/v0.8/vendor/CBORChainlink.sol\":1955:2146  if(value >= 0) {... */\n    tag_74:\n        /* \"@chainlink/contracts/src/v0.8/vendor/CBORChainlink.sol\":1873:2146  if(value > 0xFFFFFFFFFFFFFFFF) {... */\n    tag_71:\n        /* \"@chainlink/contracts/src/v0.8/vendor/CBORChainlink.sol\":1789:2146  if(value < -0x10000000000000000) {... */\n    tag_67:\n        /* \"@chainlink/contracts/src/v0.8/vendor/CBORChainlink.sol\":1704:2150  function encodeInt(BufferChainlink.buffer memory buf, int value) internal pure {... */\n      pop\n      pop\n      jump\t// out\n        /* \"@chainlink/contracts/src/v0.8/ChainlinkClient.sol\":6629:7059  function _rawRequest(... */\n    tag_53:\n        /* \"@chainlink/contracts/src/v0.8/ChainlinkClient.sol\":6771:6788  bytes32 requestId */\n      0x00\n        /* \"@chainlink/contracts/src/v0.8/ChainlinkClient.sol\":6835:6839  this */\n      address\n        /* \"@chainlink/contracts/src/v0.8/ChainlinkClient.sol\":6841:6846  nonce */\n      dup5\n        /* \"@chainlink/contracts/src/v0.8/ChainlinkClient.sol\":6818:6847  abi.encodePacked(this, nonce) */\n      add(0x20, mload(0x40))\n      tag_79\n      swap3\n      swap2\n      swap1\n      tag_80\n      jump\t// in\n    tag_79:\n      mload(0x40)\n      0x20\n      dup2\n      dup4\n      sub\n      sub\n      dup2\n      mstore\n      swap1\n      0x40\n      mstore\n        /* \"@chainlink/contracts/src/v0.8/ChainlinkClient.sol\":6808:6848  keccak256(abi.encodePacked(this, nonce)) */\n      dup1\n      mload\n      swap1\n      0x20\n      add\n      keccak256\n        /* \"@chainlink/contracts/src/v0.8/ChainlinkClient.sol\":6796:6848  requestId = keccak256(abi.encodePacked(this, nonce)) */\n      swap1\n      pop\n        /* \"@chainlink/contracts/src/v0.8/ChainlinkClient.sol\":6885:6898  oracleAddress */\n      dup5\n        /* \"@chainlink/contracts/src/v0.8/ChainlinkClient.sol\":6854:6871  s_pendingRequests */\n      0x05\n        /* \"@chainlink/contracts/src/v0.8/ChainlinkClient.sol\":6854:6882  s_pendingRequests[requestId] */\n      0x00\n        /* \"@chainlink/contracts/src/v0.8/ChainlinkClient.sol\":6872:6881  requestId */\n      dup4\n        /* \"@chainlink/contracts/src/v0.8/ChainlinkClient.sol\":6854:6882  s_pendingRequests[requestId] */\n      dup2\n      mstore\n      0x20\n      add\n      swap1\n      dup2\n      mstore\n      0x20\n      add\n      0x00\n      keccak256\n      0x00\n        /* \"@chainlink/contracts/src/v0.8/ChainlinkClient.sol\":6854:6898  s_pendingRequests[requestId] = oracleAddress */\n      0x0100\n      exp\n      dup2\n      sload\n      dup2\n      0xffffffffffffffffffffffffffffffffffffffff\n      mul\n      not\n      and\n      swap1\n      dup4\n      0xffffffffffffffffffffffffffffffffffffffff\n      and\n      mul\n      or\n      swap1\n      sstore\n      pop\n        /* \"@chainlink/contracts/src/v0.8/ChainlinkClient.sol\":6928:6937  requestId */\n      dup1\n        /* \"@chainlink/contracts/src/v0.8/ChainlinkClient.sol\":6909:6938  ChainlinkRequested(requestId) */\n      0xb5e6e01e79f91267dc17b4e6314d5d4d03593d2ceee0fbb452b750bd70ea5af9\n      mload(0x40)\n      mload(0x40)\n      dup1\n      swap2\n      sub\n      swap1\n      log2\n        /* \"@chainlink/contracts/src/v0.8/ChainlinkClient.sol\":6952:6958  s_link */\n      0x02\n      0x00\n      swap1\n      sload\n      swap1\n      0x0100\n      exp\n      swap1\n      div\n      0xffffffffffffffffffffffffffffffffffffffff\n      and\n        /* \"@chainlink/contracts/src/v0.8/ChainlinkClient.sol\":6952:6974  s_link.transferAndCall */\n      0xffffffffffffffffffffffffffffffffffffffff\n      and\n      0x4000aea0\n        /* \"@chainlink/contracts/src/v0.8/ChainlinkClient.sol\":6975:6988  oracleAddress */\n      dup7\n        /* \"@chainlink/contracts/src/v0.8/ChainlinkClient.sol\":6990:6997  payment */\n      dup6\n        /* \"@chainlink/contracts/src/v0.8/ChainlinkClient.sol\":6999:7013  encodedRequest */\n      dup6\n        /* \"@chainlink/contracts/src/v0.8/ChainlinkClient.sol\":6952:7014  s_link.transferAndCall(oracleAddress, payment, encodedRequest) */\n      mload(0x40)\n      dup5\n      0xffffffff\n      and\n      0xe0\n      shl\n      dup2\n      mstore\n      0x04\n      add\n      tag_81\n      swap4\n      swap3\n      swap2\n      swap1\n      tag_82\n      jump\t// in\n    tag_81:\n      0x20\n      mload(0x40)\n      dup1\n      dup4\n      sub\n      dup2\n      0x00\n      dup8\n      dup1\n      extcodesize\n      iszero\n      dup1\n      iszero\n      tag_83\n      jumpi\n      0x00\n      dup1\n      revert\n    tag_83:\n      pop\n      gas\n      call\n      iszero\n      dup1\n      iszero\n      tag_85\n      jumpi\n      returndatasize\n      0x00\n      dup1\n      returndatacopy\n      revert(0x00, returndatasize)\n    tag_85:\n      pop\n      pop\n      pop\n      pop\n      mload(0x40)\n      returndatasize\n      not(0x1f)\n      0x1f\n      dup3\n      add\n      and\n      dup3\n      add\n      dup1\n      0x40\n      mstore\n      pop\n      dup2\n      add\n      swap1\n      tag_86\n      swap2\n      swap1\n      tag_87\n      jump\t// in\n    tag_86:\n        /* \"@chainlink/contracts/src/v0.8/ChainlinkClient.sol\":6944:7054  require(s_link.transferAndCall(oracleAddress, payment, encodedRequest), \"unable to transferAndCall to oracle\") */\n      tag_88\n      jumpi\n      mload(0x40)\n      0x08c379a000000000000000000000000000000000000000000000000000000000\n      dup2\n      mstore\n      0x04\n      add\n      tag_89\n      swap1\n      tag_90\n      jump\t// in\n    tag_89:\n      mload(0x40)\n      dup1\n      swap2\n      sub\n      swap1\n      revert\n    tag_88:\n        /* \"@chainlink/contracts/src/v0.8/ChainlinkClient.sol\":6629:7059  function _rawRequest(... */\n      swap5\n      swap4\n      pop\n      pop\n      pop\n      pop\n      jump\t// out\n        /* \"@chainlink/contracts/src/v0.8/vendor/BufferChainlink.sol\":1001:1400  function init(buffer memory buf, uint256 capacity) internal pure returns (buffer memory) {... */\n    tag_57:\n        /* \"@chainlink/contracts/src/v0.8/vendor/BufferChainlink.sol\":1075:1088  buffer memory */\n      tag_91\n      tag_92\n      jump\t// in\n    tag_91:\n        /* \"@chainlink/contracts/src/v0.8/vendor/BufferChainlink.sol\":1117:1118  0 */\n      0x00\n        /* \"@chainlink/contracts/src/v0.8/vendor/BufferChainlink.sol\":1111:1113  32 */\n      0x20\n        /* \"@chainlink/contracts/src/v0.8/vendor/BufferChainlink.sol\":1100:1108  capacity */\n      dup4\n        /* \"@chainlink/contracts/src/v0.8/vendor/BufferChainlink.sol\":1100:1113  capacity % 32 */\n      tag_94\n      swap2\n      swap1\n      tag_95\n      jump\t// in\n    tag_94:\n        /* \"@chainlink/contracts/src/v0.8/vendor/BufferChainlink.sol\":1100:1118  capacity % 32 != 0 */\n      eq\n        /* \"@chainlink/contracts/src/v0.8/vendor/BufferChainlink.sol\":1096:1167  if (capacity % 32 != 0) {... */\n      tag_96\n      jumpi\n        /* \"@chainlink/contracts/src/v0.8/vendor/BufferChainlink.sol\":1157:1159  32 */\n      0x20\n        /* \"@chainlink/contracts/src/v0.8/vendor/BufferChainlink.sol\":1146:1154  capacity */\n      dup3\n        /* \"@chainlink/contracts/src/v0.8/vendor/BufferChainlink.sol\":1146:1159  capacity % 32 */\n      tag_97\n      swap2\n      swap1\n      tag_95\n      jump\t// in\n    tag_97:\n        /* \"@chainlink/contracts/src/v0.8/vendor/BufferChainlink.sol\":1140:1142  32 */\n      0x20\n        /* \"@chainlink/contracts/src/v0.8/vendor/BufferChainlink.sol\":1140:1160  32 - (capacity % 32) */\n      tag_98\n      swap2\n      swap1\n      tag_99\n      jump\t// in\n    tag_98:\n        /* \"@chainlink/contracts/src/v0.8/vendor/BufferChainlink.sol\":1128:1160  capacity += 32 - (capacity % 32) */\n      dup3\n      tag_100\n      swap2\n      swap1\n      tag_49\n      jump\t// in\n    tag_100:\n      swap2\n      pop\n        /* \"@chainlink/contracts/src/v0.8/vendor/BufferChainlink.sol\":1096:1167  if (capacity % 32 != 0) {... */\n    tag_96:\n        /* \"@chainlink/contracts/src/v0.8/vendor/BufferChainlink.sol\":1229:1237  capacity */\n      dup2\n        /* \"@chainlink/contracts/src/v0.8/vendor/BufferChainlink.sol\":1214:1217  buf */\n      dup4\n        /* \"@chainlink/contracts/src/v0.8/vendor/BufferChainlink.sol\":1214:1226  buf.capacity */\n      0x20\n      add\n        /* \"@chainlink/contracts/src/v0.8/vendor/BufferChainlink.sol\":1214:1237  buf.capacity = capacity */\n      dup2\n      dup2\n      mstore\n      pop\n      pop\n        /* \"@chainlink/contracts/src/v0.8/vendor/BufferChainlink.sol\":1277:1281  0x40 */\n      0x40\n        /* \"@chainlink/contracts/src/v0.8/vendor/BufferChainlink.sol\":1271:1282  mload(0x40) */\n      mload\n        /* \"@chainlink/contracts/src/v0.8/vendor/BufferChainlink.sol\":1301:1304  ptr */\n      dup1\n        /* \"@chainlink/contracts/src/v0.8/vendor/BufferChainlink.sol\":1296:1299  buf */\n      dup5\n        /* \"@chainlink/contracts/src/v0.8/vendor/BufferChainlink.sol\":1289:1305  mstore(buf, ptr) */\n      mstore\n        /* \"@chainlink/contracts/src/v0.8/vendor/BufferChainlink.sol\":1324:1325  0 */\n      0x00\n        /* \"@chainlink/contracts/src/v0.8/vendor/BufferChainlink.sol\":1319:1322  ptr */\n      dup2\n        /* \"@chainlink/contracts/src/v0.8/vendor/BufferChainlink.sol\":1312:1326  mstore(ptr, 0) */\n      mstore\n        /* \"@chainlink/contracts/src/v0.8/vendor/BufferChainlink.sol\":1363:1371  capacity */\n      dup3\n        /* \"@chainlink/contracts/src/v0.8/vendor/BufferChainlink.sol\":1358:1361  ptr */\n      dup2\n        /* \"@chainlink/contracts/src/v0.8/vendor/BufferChainlink.sol\":1354:1372  add(ptr, capacity) */\n      add\n        /* \"@chainlink/contracts/src/v0.8/vendor/BufferChainlink.sol\":1350:1352  32 */\n      0x20\n        /* \"@chainlink/contracts/src/v0.8/vendor/BufferChainlink.sol\":1346:1373  add(32, add(ptr, capacity)) */\n      add\n        /* \"@chainlink/contracts/src/v0.8/vendor/BufferChainlink.sol\":1340:1344  0x40 */\n      0x40\n        /* \"@chainlink/contracts/src/v0.8/vendor/BufferChainlink.sol\":1333:1374  mstore(0x40, add(32, add(ptr, capacity))) */\n      mstore\n        /* \"@chainlink/contracts/src/v0.8/vendor/BufferChainlink.sol\":1252:1380  {... */\n      pop\n        /* \"@chainlink/contracts/src/v0.8/vendor/BufferChainlink.sol\":1392:1395  buf */\n      dup3\n        /* \"@chainlink/contracts/src/v0.8/vendor/BufferChainlink.sol\":1385:1395  return buf */\n      swap1\n      pop\n        /* \"@chainlink/contracts/src/v0.8/vendor/BufferChainlink.sol\":1001:1400  function init(buffer memory buf, uint256 capacity) internal pure returns (buffer memory) {... */\n      swap3\n      swap2\n      pop\n      pop\n      jump\t// out\n        /* \"@chainlink/contracts/src/v0.8/vendor/CBORChainlink.sol\":682:1307  function encodeFixedNumeric(BufferChainlink.buffer memory buf, uint8 major, uint64 value) private pure {... */\n    tag_60:\n        /* \"@chainlink/contracts/src/v0.8/vendor/CBORChainlink.sol\":803:805  23 */\n      0x17\n        /* \"@chainlink/contracts/src/v0.8/vendor/CBORChainlink.sol\":794:799  value */\n      dup2\n        /* \"@chainlink/contracts/src/v0.8/vendor/CBORChainlink.sol\":794:805  value <= 23 */\n      0xffffffffffffffff\n      and\n      gt\n        /* \"@chainlink/contracts/src/v0.8/vendor/CBORChainlink.sol\":791:1303  if(value <= 23) {... */\n      tag_102\n      jumpi\n        /* \"@chainlink/contracts/src/v0.8/vendor/CBORChainlink.sol\":815:859  buf.appendUint8(uint8((major << 5) | value)) */\n      tag_103\n        /* \"@chainlink/contracts/src/v0.8/vendor/CBORChainlink.sol\":852:857  value */\n      dup2\n        /* \"@chainlink/contracts/src/v0.8/vendor/CBORChainlink.sol\":847:848  5 */\n      0x05\n        /* \"@chainlink/contracts/src/v0.8/vendor/CBORChainlink.sol\":838:843  major */\n      dup5\n        /* \"@chainlink/contracts/src/v0.8/vendor/CBORChainlink.sol\":838:848  major << 5 */\n      0xff\n      and\n      swap1\n      shl\n        /* \"@chainlink/contracts/src/v0.8/vendor/CBORChainlink.sol\":837:857  (major << 5) | value */\n      0xff\n      and\n      or\n        /* \"@chainlink/contracts/src/v0.8/vendor/CBORChainlink.sol\":815:818  buf */\n      dup5\n        /* \"@chainlink/contracts/src/v0.8/vendor/CBORChainlink.sol\":815:830  buf.appendUint8 */\n      tag_104\n      swap1\n        /* \"@chainlink/contracts/src/v0.8/vendor/CBORChainlink.sol\":815:859  buf.appendUint8(uint8((major << 5) | value)) */\n      swap2\n      swap1\n      0xffffffff\n      and\n      jump\t// in\n    tag_103:\n      pop\n        /* \"@chainlink/contracts/src/v0.8/vendor/CBORChainlink.sol\":791:1303  if(value <= 23) {... */\n      jump(tag_105)\n    tag_102:\n        /* \"@chainlink/contracts/src/v0.8/vendor/CBORChainlink.sol\":885:889  0xFF */\n      0xff\n        /* \"@chainlink/contracts/src/v0.8/vendor/CBORChainlink.sol\":876:881  value */\n      dup2\n        /* \"@chainlink/contracts/src/v0.8/vendor/CBORChainlink.sol\":876:889  value <= 0xFF */\n      0xffffffffffffffff\n      and\n      gt\n        /* \"@chainlink/contracts/src/v0.8/vendor/CBORChainlink.sol\":872:1303  if (value <= 0xFF) {... */\n      tag_106\n      jumpi\n        /* \"@chainlink/contracts/src/v0.8/vendor/CBORChainlink.sol\":899:940  buf.appendUint8(uint8((major << 5) | 24)) */\n      tag_107\n        /* \"@chainlink/contracts/src/v0.8/vendor/CBORChainlink.sol\":936:938  24 */\n      0x18\n        /* \"@chainlink/contracts/src/v0.8/vendor/CBORChainlink.sol\":931:932  5 */\n      0x05\n        /* \"@chainlink/contracts/src/v0.8/vendor/CBORChainlink.sol\":922:927  major */\n      dup5\n        /* \"@chainlink/contracts/src/v0.8/vendor/CBORChainlink.sol\":922:932  major << 5 */\n      0xff\n      and\n      swap1\n      shl\n        /* \"@chainlink/contracts/src/v0.8/vendor/CBORChainlink.sol\":921:938  (major << 5) | 24 */\n      or\n        /* \"@chainlink/contracts/src/v0.8/vendor/CBORChainlink.sol\":899:902  buf */\n      dup5\n        /* \"@chainlink/contracts/src/v0.8/vendor/CBORChainlink.sol\":899:914  buf.appendUint8 */\n      tag_104\n      swap1\n        /* \"@chainlink/contracts/src/v0.8/vendor/CBORChainlink.sol\":899:940  buf.appendUint8(uint8((major << 5) | 24)) */\n      swap2\n      swap1\n      0xffffffff\n      and\n      jump\t// in\n    tag_107:\n      pop\n        /* \"@chainlink/contracts/src/v0.8/vendor/CBORChainlink.sol\":948:971  buf.appendInt(value, 1) */\n      tag_108\n        /* \"@chainlink/contracts/src/v0.8/vendor/CBORChainlink.sol\":962:967  value */\n      dup2\n        /* \"@chainlink/contracts/src/v0.8/vendor/CBORChainlink.sol\":948:971  buf.appendInt(value, 1) */\n      0xffffffffffffffff\n      and\n        /* \"@chainlink/contracts/src/v0.8/vendor/CBORChainlink.sol\":969:970  1 */\n      0x01\n        /* \"@chainlink/contracts/src/v0.8/vendor/CBORChainlink.sol\":948:951  buf */\n      dup6\n        /* \"@chainlink/contracts/src/v0.8/vendor/CBORChainlink.sol\":948:961  buf.appendInt */\n      tag_109\n      swap1\n        /* \"@chainlink/contracts/src/v0.8/vendor/CBORChainlink.sol\":948:971  buf.appendInt(value, 1) */\n      swap3\n      swap2\n      swap1\n      0xffffffff\n      and\n      jump\t// in\n    tag_108:\n      pop\n        /* \"@chainlink/contracts/src/v0.8/vendor/CBORChainlink.sol\":872:1303  if (value <= 0xFF) {... */\n      jump(tag_110)\n    tag_106:\n        /* \"@chainlink/contracts/src/v0.8/vendor/CBORChainlink.sol\":997:1003  0xFFFF */\n      0xffff\n        /* \"@chainlink/contracts/src/v0.8/vendor/CBORChainlink.sol\":988:993  value */\n      dup2\n        /* \"@chainlink/contracts/src/v0.8/vendor/CBORChainlink.sol\":988:1003  value <= 0xFFFF */\n      0xffffffffffffffff\n      and\n      gt\n        /* \"@chainlink/contracts/src/v0.8/vendor/CBORChainlink.sol\":984:1303  if (value <= 0xFFFF) {... */\n      tag_111\n      jumpi\n        /* \"@chainlink/contracts/src/v0.8/vendor/CBORChainlink.sol\":1013:1054  buf.appendUint8(uint8((major << 5) | 25)) */\n      tag_112\n        /* \"@chainlink/contracts/src/v0.8/vendor/CBORChainlink.sol\":1050:1052  25 */\n      0x19\n        /* \"@chainlink/contracts/src/v0.8/vendor/CBORChainlink.sol\":1045:1046  5 */\n      0x05\n        /* \"@chainlink/contracts/src/v0.8/vendor/CBORChainlink.sol\":1036:1041  major */\n      dup5\n        /* \"@chainlink/contracts/src/v0.8/vendor/CBORChainlink.sol\":1036:1046  major << 5 */\n      0xff\n      and\n      swap1\n      shl\n        /* \"@chainlink/contracts/src/v0.8/vendor/CBORChainlink.sol\":1035:1052  (major << 5) | 25 */\n      or\n        /* \"@chainlink/contracts/src/v0.8/vendor/CBORChainlink.sol\":1013:1016  buf */\n      dup5\n        /* \"@chainlink/contracts/src/v0.8/vendor/CBORChainlink.sol\":1013:1028  buf.appendUint8 */\n      tag_104\n      swap1\n        /* \"@chainlink/contracts/src/v0.8/vendor/CBORChainlink.sol\":1013:1054  buf.appendUint8(uint8((major << 5) | 25)) */\n      swap2\n      swap1\n      0xffffffff\n      and\n      jump\t// in\n    tag_112:\n      pop\n        /* \"@chainlink/contracts/src/v0.8/vendor/CBORChainlink.sol\":1062:1085  buf.appendInt(value, 2) */\n      tag_113\n        /* \"@chainlink/contracts/src/v0.8/vendor/CBORChainlink.sol\":1076:1081  value */\n      dup2\n        /* \"@chainlink/contracts/src/v0.8/vendor/CBORChainlink.sol\":1062:1085  buf.appendInt(value, 2) */\n      0xffffffffffffffff\n      and\n        /* \"@chainlink/contracts/src/v0.8/vendor/CBORChainlink.sol\":1083:1084  2 */\n      0x02\n        /* \"@chainlink/contracts/src/v0.8/vendor/CBORChainlink.sol\":1062:1065  buf */\n      dup6\n        /* \"@chainlink/contracts/src/v0.8/vendor/CBORChainlink.sol\":1062:1075  buf.appendInt */\n      tag_109\n      swap1\n        /* \"@chainlink/contracts/src/v0.8/vendor/CBORChainlink.sol\":1062:1085  buf.appendInt(value, 2) */\n      swap3\n      swap2\n      swap1\n      0xffffffff\n      and\n      jump\t// in\n    tag_113:\n      pop\n        /* \"@chainlink/contracts/src/v0.8/vendor/CBORChainlink.sol\":984:1303  if (value <= 0xFFFF) {... */\n      jump(tag_114)\n    tag_111:\n        /* \"@chainlink/contracts/src/v0.8/vendor/CBORChainlink.sol\":1111:1121  0xFFFFFFFF */\n      0xffffffff\n        /* \"@chainlink/contracts/src/v0.8/vendor/CBORChainlink.sol\":1102:1107  value */\n      dup2\n        /* \"@chainlink/contracts/src/v0.8/vendor/CBORChainlink.sol\":1102:1121  value <= 0xFFFFFFFF */\n      0xffffffffffffffff\n      and\n      gt\n        /* \"@chainlink/contracts/src/v0.8/vendor/CBORChainlink.sol\":1098:1303  if (value <= 0xFFFFFFFF) {... */\n      tag_115\n      jumpi\n        /* \"@chainlink/contracts/src/v0.8/vendor/CBORChainlink.sol\":1131:1172  buf.appendUint8(uint8((major << 5) | 26)) */\n      tag_116\n        /* \"@chainlink/contracts/src/v0.8/vendor/CBORChainlink.sol\":1168:1170  26 */\n      0x1a\n        /* \"@chainlink/contracts/src/v0.8/vendor/CBORChainlink.sol\":1163:1164  5 */\n      0x05\n        /* \"@chainlink/contracts/src/v0.8/vendor/CBORChainlink.sol\":1154:1159  major */\n      dup5\n        /* \"@chainlink/contracts/src/v0.8/vendor/CBORChainlink.sol\":1154:1164  major << 5 */\n      0xff\n      and\n      swap1\n      shl\n        /* \"@chainlink/contracts/src/v0.8/vendor/CBORChainlink.sol\":1153:1170  (major << 5) | 26 */\n      or\n        /* \"@chainlink/contracts/src/v0.8/vendor/CBORChainlink.sol\":1131:1134  buf */\n      dup5\n        /* \"@chainlink/contracts/src/v0.8/vendor/CBORChainlink.sol\":1131:1146  buf.appendUint8 */\n      tag_104\n      swap1\n        /* \"@chainlink/contracts/src/v0.8/vendor/CBORChainlink.sol\":1131:1172  buf.appendUint8(uint8((major << 5) | 26)) */\n      swap2\n      swap1\n      0xffffffff\n      and\n      jump\t// in\n    tag_116:\n      pop\n        /* \"@chainlink/contracts/src/v0.8/vendor/CBORChainlink.sol\":1180:1203  buf.appendInt(value, 4) */\n      tag_117\n        /* \"@chainlink/contracts/src/v0.8/vendor/CBORChainlink.sol\":1194:1199  value */\n      dup2\n        /* \"@chainlink/contracts/src/v0.8/vendor/CBORChainlink.sol\":1180:1203  buf.appendInt(value, 4) */\n      0xffffffffffffffff\n      and\n        /* \"@chainlink/contracts/src/v0.8/vendor/CBORChainlink.sol\":1201:1202  4 */\n      0x04\n        /* \"@chainlink/contracts/src/v0.8/vendor/CBORChainlink.sol\":1180:1183  buf */\n      dup6\n        /* \"@chainlink/contracts/src/v0.8/vendor/CBORChainlink.sol\":1180:1193  buf.appendInt */\n      tag_109\n      swap1\n        /* \"@chainlink/contracts/src/v0.8/vendor/CBORChainlink.sol\":1180:1203  buf.appendInt(value, 4) */\n      swap3\n      swap2\n      swap1\n      0xffffffff\n      and\n      jump\t// in\n    tag_117:\n      pop\n        /* \"@chainlink/contracts/src/v0.8/vendor/CBORChainlink.sol\":1098:1303  if (value <= 0xFFFFFFFF) {... */\n      jump(tag_118)\n    tag_115:\n        /* \"@chainlink/contracts/src/v0.8/vendor/CBORChainlink.sol\":1224:1265  buf.appendUint8(uint8((major << 5) | 27)) */\n      tag_119\n        /* \"@chainlink/contracts/src/v0.8/vendor/CBORChainlink.sol\":1261:1263  27 */\n      0x1b\n        /* \"@chainlink/contracts/src/v0.8/vendor/CBORChainlink.sol\":1256:1257  5 */\n      0x05\n        /* \"@chainlink/contracts/src/v0.8/vendor/CBORChainlink.sol\":1247:1252  major */\n      dup5\n        /* \"@chainlink/contracts/src/v0.8/vendor/CBORChainlink.sol\":1247:1257  major << 5 */\n      0xff\n      and\n      swap1\n      shl\n        /* \"@chainlink/contracts/src/v0.8/vendor/CBORChainlink.sol\":1246:1263  (major << 5) | 27 */\n      or\n        /* \"@chainlink/contracts/src/v0.8/vendor/CBORChainlink.sol\":1224:1227  buf */\n      dup5\n        /* \"@chainlink/contracts/src/v0.8/vendor/CBORChainlink.sol\":1224:1239  buf.appendUint8 */\n      tag_104\n      swap1\n        /* \"@chainlink/contracts/src/v0.8/vendor/CBORChainlink.sol\":1224:1265  buf.appendUint8(uint8((major << 5) | 27)) */\n      swap2\n      swap1\n      0xffffffff\n      and\n      jump\t// in\n    tag_119:\n      pop\n        /* \"@chainlink/contracts/src/v0.8/vendor/CBORChainlink.sol\":1273:1296  buf.appendInt(value, 8) */\n      tag_120\n        /* \"@chainlink/contracts/src/v0.8/vendor/CBORChainlink.sol\":1287:1292  value */\n      dup2\n        /* \"@chainlink/contracts/src/v0.8/vendor/CBORChainlink.sol\":1273:1296  buf.appendInt(value, 8) */\n      0xffffffffffffffff\n      and\n        /* \"@chainlink/contracts/src/v0.8/vendor/CBORChainlink.sol\":1294:1295  8 */\n      0x08\n        /* \"@chainlink/contracts/src/v0.8/vendor/CBORChainlink.sol\":1273:1276  buf */\n      dup6\n        /* \"@chainlink/contracts/src/v0.8/vendor/CBORChainlink.sol\":1273:1286  buf.appendInt */\n      tag_109\n      swap1\n        /* \"@chainlink/contracts/src/v0.8/vendor/CBORChainlink.sol\":1273:1296  buf.appendInt(value, 8) */\n      swap3\n      swap2\n      swap1\n      0xffffffff\n      and\n      jump\t// in\n    tag_120:\n      pop\n        /* \"@chainlink/contracts/src/v0.8/vendor/CBORChainlink.sol\":1098:1303  if (value <= 0xFFFFFFFF) {... */\n    tag_118:\n        /* \"@chainlink/contracts/src/v0.8/vendor/CBORChainlink.sol\":984:1303  if (value <= 0xFFFF) {... */\n    tag_114:\n        /* \"@chainlink/contracts/src/v0.8/vendor/CBORChainlink.sol\":872:1303  if (value <= 0xFF) {... */\n    tag_110:\n        /* \"@chainlink/contracts/src/v0.8/vendor/CBORChainlink.sol\":791:1303  if(value <= 23) {... */\n    tag_105:\n        /* \"@chainlink/contracts/src/v0.8/vendor/CBORChainlink.sol\":682:1307  function encodeFixedNumeric(BufferChainlink.buffer memory buf, uint8 major, uint64 value) private pure {... */\n      pop\n      pop\n      pop\n      jump\t// out\n        /* \"@chainlink/contracts/src/v0.8/vendor/BufferChainlink.sol\":4692:4847  function append(buffer memory buf, bytes memory data) internal pure returns (buffer memory) {... */\n    tag_62:\n        /* \"@chainlink/contracts/src/v0.8/vendor/BufferChainlink.sol\":4769:4782  buffer memory */\n      tag_121\n      tag_92\n      jump\t// in\n    tag_121:\n        /* \"@chainlink/contracts/src/v0.8/vendor/BufferChainlink.sol\":4797:4842  write(buf, buf.buf.length, data, data.length) */\n      tag_123\n        /* \"@chainlink/contracts/src/v0.8/vendor/BufferChainlink.sol\":4803:4806  buf */\n      dup4\n        /* \"@chainlink/contracts/src/v0.8/vendor/BufferChainlink.sol\":4808:4811  buf */\n      dup5\n        /* \"@chainlink/contracts/src/v0.8/vendor/BufferChainlink.sol\":4808:4815  buf.buf */\n      0x00\n      add\n      mload\n        /* \"@chainlink/contracts/src/v0.8/vendor/BufferChainlink.sol\":4808:4822  buf.buf.length */\n      mload\n        /* \"@chainlink/contracts/src/v0.8/vendor/BufferChainlink.sol\":4824:4828  data */\n      dup5\n        /* \"@chainlink/contracts/src/v0.8/vendor/BufferChainlink.sol\":4830:4834  data */\n      dup6\n        /* \"@chainlink/contracts/src/v0.8/vendor/BufferChainlink.sol\":4830:4841  data.length */\n      mload\n        /* \"@chainlink/contracts/src/v0.8/vendor/BufferChainlink.sol\":4797:4802  write */\n      tag_124\n        /* \"@chainlink/contracts/src/v0.8/vendor/BufferChainlink.sol\":4797:4842  write(buf, buf.buf.length, data, data.length) */\n      jump\t// in\n    tag_123:\n        /* \"@chainlink/contracts/src/v0.8/vendor/BufferChainlink.sol\":4790:4842  return write(buf, buf.buf.length, data, data.length) */\n      swap1\n      pop\n        /* \"@chainlink/contracts/src/v0.8/vendor/BufferChainlink.sol\":4692:4847  function append(buffer memory buf, bytes memory data) internal pure returns (buffer memory) {... */\n      swap3\n      swap2\n      pop\n      pop\n      jump\t// out\n        /* \"@chainlink/contracts/src/v0.8/vendor/CBORChainlink.sol\":2547:2773  function encodeSignedBigNum(BufferChainlink.buffer memory buf, int input) internal pure {... */\n    tag_66:\n        /* \"@chainlink/contracts/src/v0.8/vendor/CBORChainlink.sol\":2641:2713  buf.appendUint8(uint8((MAJOR_TYPE_TAG << 5) | TAG_TYPE_NEGATIVE_BIGNUM)) */\n      tag_126\n        /* \"@chainlink/contracts/src/v0.8/vendor/CBORChainlink.sol\":676:677  3 */\n      0x03\n        /* \"@chainlink/contracts/src/v0.8/vendor/CBORChainlink.sol\":2682:2683  5 */\n      0x05\n        /* \"@chainlink/contracts/src/v0.8/vendor/CBORChainlink.sol\":520:521  6 */\n      0x06\n        /* \"@chainlink/contracts/src/v0.8/vendor/CBORChainlink.sol\":2664:2683  MAJOR_TYPE_TAG << 5 */\n      0xff\n      and\n      swap1\n      shl\n        /* \"@chainlink/contracts/src/v0.8/vendor/CBORChainlink.sol\":2663:2711  (MAJOR_TYPE_TAG << 5) | TAG_TYPE_NEGATIVE_BIGNUM */\n      or\n        /* \"@chainlink/contracts/src/v0.8/vendor/CBORChainlink.sol\":2641:2644  buf */\n      dup4\n        /* \"@chainlink/contracts/src/v0.8/vendor/CBORChainlink.sol\":2641:2656  buf.appendUint8 */\n      tag_104\n      swap1\n        /* \"@chainlink/contracts/src/v0.8/vendor/CBORChainlink.sol\":2641:2713  buf.appendUint8(uint8((MAJOR_TYPE_TAG << 5) | TAG_TYPE_NEGATIVE_BIGNUM)) */\n      swap2\n      swap1\n      0xffffffff\n      and\n      jump\t// in\n    tag_126:\n      pop\n        /* \"@chainlink/contracts/src/v0.8/vendor/CBORChainlink.sol\":2719:2768  encodeBytes(buf, abi.encode(uint256(-1 - input))) */\n      tag_127\n        /* \"@chainlink/contracts/src/v0.8/vendor/CBORChainlink.sol\":2731:2734  buf */\n      dup3\n        /* \"@chainlink/contracts/src/v0.8/vendor/CBORChainlink.sol\":2760:2765  input */\n      dup3\n        /* \"@chainlink/contracts/src/v0.8/vendor/CBORChainlink.sol\":2755:2757  -1 */\n      0xffffffffffffffffffffffffffffffffffffffffffffffffffffffffffffffff\n        /* \"@chainlink/contracts/src/v0.8/vendor/CBORChainlink.sol\":2755:2765  -1 - input */\n      tag_128\n      swap2\n      swap1\n      tag_77\n      jump\t// in\n    tag_128:\n        /* \"@chainlink/contracts/src/v0.8/vendor/CBORChainlink.sol\":2736:2767  abi.encode(uint256(-1 - input)) */\n      add(0x20, mload(0x40))\n      tag_129\n      swap2\n      swap1\n      tag_17\n      jump\t// in\n    tag_129:\n      mload(0x40)\n      0x20\n      dup2\n      dup4\n      sub\n      sub\n      dup2\n      mstore\n      swap1\n      0x40\n      mstore\n        /* \"@chainlink/contracts/src/v0.8/vendor/CBORChainlink.sol\":2719:2730  encodeBytes */\n      tag_130\n        /* \"@chainlink/contracts/src/v0.8/vendor/CBORChainlink.sol\":2719:2768  encodeBytes(buf, abi.encode(uint256(-1 - input))) */\n      jump\t// in\n    tag_127:\n        /* \"@chainlink/contracts/src/v0.8/vendor/CBORChainlink.sol\":2547:2773  function encodeSignedBigNum(BufferChainlink.buffer memory buf, int input) internal pure {... */\n      pop\n      pop\n      jump\t// out\n        /* \"@chainlink/contracts/src/v0.8/vendor/CBORChainlink.sol\":2345:2543  function encodeBigNum(BufferChainlink.buffer memory buf, uint value) internal pure {... */\n    tag_70:\n        /* \"@chainlink/contracts/src/v0.8/vendor/CBORChainlink.sol\":2434:2497  buf.appendUint8(uint8((MAJOR_TYPE_TAG << 5) | TAG_TYPE_BIGNUM)) */\n      tag_132\n        /* \"@chainlink/contracts/src/v0.8/vendor/CBORChainlink.sol\":621:622  2 */\n      0x02\n        /* \"@chainlink/contracts/src/v0.8/vendor/CBORChainlink.sol\":2475:2476  5 */\n      0x05\n        /* \"@chainlink/contracts/src/v0.8/vendor/CBORChainlink.sol\":520:521  6 */\n      0x06\n        /* \"@chainlink/contracts/src/v0.8/vendor/CBORChainlink.sol\":2457:2476  MAJOR_TYPE_TAG << 5 */\n      0xff\n      and\n      swap1\n      shl\n        /* \"@chainlink/contracts/src/v0.8/vendor/CBORChainlink.sol\":2456:2495  (MAJOR_TYPE_TAG << 5) | TAG_TYPE_BIGNUM */\n      or\n        /* \"@chainlink/contracts/src/v0.8/vendor/CBORChainlink.sol\":2434:2437  buf */\n      dup4\n        /* \"@chainlink/contracts/src/v0.8/vendor/CBORChainlink.sol\":2434:2449  buf.appendUint8 */\n      tag_104\n      swap1\n        /* \"@chainlink/contracts/src/v0.8/vendor/CBORChainlink.sol\":2434:2497  buf.appendUint8(uint8((MAJOR_TYPE_TAG << 5) | TAG_TYPE_BIGNUM)) */\n      swap2\n      swap1\n      0xffffffff\n      and\n      jump\t// in\n    tag_132:\n      pop\n        /* \"@chainlink/contracts/src/v0.8/vendor/CBORChainlink.sol\":2503:2538  encodeBytes(buf, abi.encode(value)) */\n      tag_133\n        /* \"@chainlink/contracts/src/v0.8/vendor/CBORChainlink.sol\":2515:2518  buf */\n      dup3\n        /* \"@chainlink/contracts/src/v0.8/vendor/CBORChainlink.sol\":2531:2536  value */\n      dup3\n        /* \"@chainlink/contracts/src/v0.8/vendor/CBORChainlink.sol\":2520:2537  abi.encode(value) */\n      add(0x20, mload(0x40))\n      tag_134\n      swap2\n      swap1\n      tag_17\n      jump\t// in\n    tag_134:\n      mload(0x40)\n      0x20\n      dup2\n      dup4\n      sub\n      sub\n      dup2\n      mstore\n      swap1\n      0x40\n      mstore\n        /* \"@chainlink/contracts/src/v0.8/vendor/CBORChainlink.sol\":2503:2514  encodeBytes */\n      tag_130\n        /* \"@chainlink/contracts/src/v0.8/vendor/CBORChainlink.sol\":2503:2538  encodeBytes(buf, abi.encode(value)) */\n      jump\t// in\n    tag_133:\n        /* \"@chainlink/contracts/src/v0.8/vendor/CBORChainlink.sol\":2345:2543  function encodeBigNum(BufferChainlink.buffer memory buf, uint value) internal pure {... */\n      pop\n      pop\n      jump\t// out\n        /* \"@chainlink/contracts/src/v0.8/vendor/BufferChainlink.sol\":6040:6185  function appendUint8(buffer memory buf, uint8 data) internal pure returns (buffer memory) {... */\n    tag_104:\n        /* \"@chainlink/contracts/src/v0.8/vendor/BufferChainlink.sol\":6115:6128  buffer memory */\n      tag_135\n      tag_92\n      jump\t// in\n    tag_135:\n        /* \"@chainlink/contracts/src/v0.8/vendor/BufferChainlink.sol\":6143:6180  writeUint8(buf, buf.buf.length, data) */\n      tag_137\n        /* \"@chainlink/contracts/src/v0.8/vendor/BufferChainlink.sol\":6154:6157  buf */\n      dup4\n        /* \"@chainlink/contracts/src/v0.8/vendor/BufferChainlink.sol\":6159:6162  buf */\n      dup5\n        /* \"@chainlink/contracts/src/v0.8/vendor/BufferChainlink.sol\":6159:6166  buf.buf */\n      0x00\n      add\n      mload\n        /* \"@chainlink/contracts/src/v0.8/vendor/BufferChainlink.sol\":6159:6173  buf.buf.length */\n      mload\n        /* \"@chainlink/contracts/src/v0.8/vendor/BufferChainlink.sol\":6175:6179  data */\n      dup5\n        /* \"@chainlink/contracts/src/v0.8/vendor/BufferChainlink.sol\":6143:6153  writeUint8 */\n      tag_138\n        /* \"@chainlink/contracts/src/v0.8/vendor/BufferChainlink.sol\":6143:6180  writeUint8(buf, buf.buf.length, data) */\n      jump\t// in\n    tag_137:\n        /* \"@chainlink/contracts/src/v0.8/vendor/BufferChainlink.sol\":6136:6180  return writeUint8(buf, buf.buf.length, data) */\n      swap1\n      pop\n        /* \"@chainlink/contracts/src/v0.8/vendor/BufferChainlink.sol\":6040:6185  function appendUint8(buffer memory buf, uint8 data) internal pure returns (buffer memory) {... */\n      swap3\n      swap2\n      pop\n      pop\n      jump\t// out\n        /* \"@chainlink/contracts/src/v0.8/vendor/BufferChainlink.sol\":9894:10071  function appendInt(... */\n    tag_109:\n        /* \"@chainlink/contracts/src/v0.8/vendor/BufferChainlink.sol\":9998:10011  buffer memory */\n      tag_139\n      tag_92\n      jump\t// in\n    tag_139:\n        /* \"@chainlink/contracts/src/v0.8/vendor/BufferChainlink.sol\":10026:10066  writeInt(buf, buf.buf.length, data, len) */\n      tag_141\n        /* \"@chainlink/contracts/src/v0.8/vendor/BufferChainlink.sol\":10035:10038  buf */\n      dup5\n        /* \"@chainlink/contracts/src/v0.8/vendor/BufferChainlink.sol\":10040:10043  buf */\n      dup6\n        /* \"@chainlink/contracts/src/v0.8/vendor/BufferChainlink.sol\":10040:10047  buf.buf */\n      0x00\n      add\n      mload\n        /* \"@chainlink/contracts/src/v0.8/vendor/BufferChainlink.sol\":10040:10054  buf.buf.length */\n      mload\n        /* \"@chainlink/contracts/src/v0.8/vendor/BufferChainlink.sol\":10056:10060  data */\n      dup6\n        /* \"@chainlink/contracts/src/v0.8/vendor/BufferChainlink.sol\":10062:10065  len */\n      dup6\n        /* \"@chainlink/contracts/src/v0.8/vendor/BufferChainlink.sol\":10026:10034  writeInt */\n      tag_142\n        /* \"@chainlink/contracts/src/v0.8/vendor/BufferChainlink.sol\":10026:10066  writeInt(buf, buf.buf.length, data, len) */\n      jump\t// in\n    tag_141:\n        /* \"@chainlink/contracts/src/v0.8/vendor/BufferChainlink.sol\":10019:10066  return writeInt(buf, buf.buf.length, data, len) */\n      swap1\n      pop\n        /* \"@chainlink/contracts/src/v0.8/vendor/BufferChainlink.sol\":9894:10071  function appendInt(... */\n      swap4\n      swap3\n      pop\n      pop\n      pop\n      jump\t// out\n        /* \"@chainlink/contracts/src/v0.8/vendor/BufferChainlink.sol\":2745:3955  function write(... */\n    tag_124:\n        /* \"@chainlink/contracts/src/v0.8/vendor/BufferChainlink.sol\":2867:2880  buffer memory */\n      tag_143\n      tag_92\n      jump\t// in\n    tag_143:\n        /* \"@chainlink/contracts/src/v0.8/vendor/BufferChainlink.sol\":2903:2907  data */\n      dup3\n        /* \"@chainlink/contracts/src/v0.8/vendor/BufferChainlink.sol\":2903:2914  data.length */\n      mload\n        /* \"@chainlink/contracts/src/v0.8/vendor/BufferChainlink.sol\":2896:2899  len */\n      dup3\n        /* \"@chainlink/contracts/src/v0.8/vendor/BufferChainlink.sol\":2896:2914  len <= data.length */\n      gt\n      iszero\n        /* \"@chainlink/contracts/src/v0.8/vendor/BufferChainlink.sol\":2888:2915  require(len <= data.length) */\n      tag_145\n      jumpi\n      0x00\n      dup1\n      revert\n    tag_145:\n        /* \"@chainlink/contracts/src/v0.8/vendor/BufferChainlink.sol\":2938:2941  buf */\n      dup5\n        /* \"@chainlink/contracts/src/v0.8/vendor/BufferChainlink.sol\":2938:2950  buf.capacity */\n      0x20\n      add\n      mload\n        /* \"@chainlink/contracts/src/v0.8/vendor/BufferChainlink.sol\":2932:2935  len */\n      dup3\n        /* \"@chainlink/contracts/src/v0.8/vendor/BufferChainlink.sol\":2926:2929  off */\n      dup6\n        /* \"@chainlink/contracts/src/v0.8/vendor/BufferChainlink.sol\":2926:2935  off + len */\n      tag_146\n      swap2\n      swap1\n      tag_49\n      jump\t// in\n    tag_146:\n        /* \"@chainlink/contracts/src/v0.8/vendor/BufferChainlink.sol\":2926:2950  off + len > buf.capacity */\n      gt\n        /* \"@chainlink/contracts/src/v0.8/vendor/BufferChainlink.sol\":2922:3012  if (off + len > buf.capacity) {... */\n      iszero\n      tag_147\n      jumpi\n        /* \"@chainlink/contracts/src/v0.8/vendor/BufferChainlink.sol\":2960:3005  resize(buf, max(buf.capacity, len + off) * 2) */\n      tag_148\n        /* \"@chainlink/contracts/src/v0.8/vendor/BufferChainlink.sol\":2967:2970  buf */\n      dup6\n        /* \"@chainlink/contracts/src/v0.8/vendor/BufferChainlink.sol\":3003:3004  2 */\n      0x02\n        /* \"@chainlink/contracts/src/v0.8/vendor/BufferChainlink.sol\":2972:3000  max(buf.capacity, len + off) */\n      tag_149\n        /* \"@chainlink/contracts/src/v0.8/vendor/BufferChainlink.sol\":2976:2979  buf */\n      dup9\n        /* \"@chainlink/contracts/src/v0.8/vendor/BufferChainlink.sol\":2976:2988  buf.capacity */\n      0x20\n      add\n      mload\n        /* \"@chainlink/contracts/src/v0.8/vendor/BufferChainlink.sol\":2996:2999  off */\n      dup9\n        /* \"@chainlink/contracts/src/v0.8/vendor/BufferChainlink.sol\":2990:2993  len */\n      dup8\n        /* \"@chainlink/contracts/src/v0.8/vendor/BufferChainlink.sol\":2990:2999  len + off */\n      tag_150\n      swap2\n      swap1\n      tag_49\n      jump\t// in\n    tag_150:\n        /* \"@chainlink/contracts/src/v0.8/vendor/BufferChainlink.sol\":2972:2975  max */\n      tag_151\n        /* \"@chainlink/contracts/src/v0.8/vendor/BufferChainlink.sol\":2972:3000  max(buf.capacity, len + off) */\n      jump\t// in\n    tag_149:\n        /* \"@chainlink/contracts/src/v0.8/vendor/BufferChainlink.sol\":2972:3004  max(buf.capacity, len + off) * 2 */\n      tag_152\n      swap2\n      swap1\n      tag_153\n      jump\t// in\n    tag_152:\n        /* \"@chainlink/contracts/src/v0.8/vendor/BufferChainlink.sol\":2960:2966  resize */\n      tag_154\n        /* \"@chainlink/contracts/src/v0.8/vendor/BufferChainlink.sol\":2960:3005  resize(buf, max(buf.capacity, len + off) * 2) */\n      jump\t// in\n    tag_148:\n        /* \"@chainlink/contracts/src/v0.8/vendor/BufferChainlink.sol\":2922:3012  if (off + len > buf.capacity) {... */\n    tag_147:\n        /* \"@chainlink/contracts/src/v0.8/vendor/BufferChainlink.sol\":3018:3030  uint256 dest */\n      0x00\n        /* \"@chainlink/contracts/src/v0.8/vendor/BufferChainlink.sol\":3036:3047  uint256 src */\n      dup1\n        /* \"@chainlink/contracts/src/v0.8/vendor/BufferChainlink.sol\":3133:3136  buf */\n      dup7\n        /* \"@chainlink/contracts/src/v0.8/vendor/BufferChainlink.sol\":3127:3137  mload(buf) */\n      mload\n        /* \"@chainlink/contracts/src/v0.8/vendor/BufferChainlink.sol\":3204:3210  bufptr */\n      dup1\n        /* \"@chainlink/contracts/src/v0.8/vendor/BufferChainlink.sol\":3198:3211  mload(bufptr) */\n      mload\n        /* \"@chainlink/contracts/src/v0.8/vendor/BufferChainlink.sol\":3320:3323  off */\n      dup8\n        /* \"@chainlink/contracts/src/v0.8/vendor/BufferChainlink.sol\":3315:3317  32 */\n      0x20\n        /* \"@chainlink/contracts/src/v0.8/vendor/BufferChainlink.sol\":3307:3313  bufptr */\n      dup4\n        /* \"@chainlink/contracts/src/v0.8/vendor/BufferChainlink.sol\":3303:3318  add(bufptr, 32) */\n      add\n        /* \"@chainlink/contracts/src/v0.8/vendor/BufferChainlink.sol\":3299:3324  add(add(bufptr, 32), off) */\n      add\n        /* \"@chainlink/contracts/src/v0.8/vendor/BufferChainlink.sol\":3291:3324  dest := add(add(bufptr, 32), off) */\n      swap4\n      pop\n        /* \"@chainlink/contracts/src/v0.8/vendor/BufferChainlink.sol\":3404:3410  buflen */\n      dup1\n        /* \"@chainlink/contracts/src/v0.8/vendor/BufferChainlink.sol\":3398:3401  off */\n      dup9\n        /* \"@chainlink/contracts/src/v0.8/vendor/BufferChainlink.sol\":3393:3396  len */\n      dup8\n        /* \"@chainlink/contracts/src/v0.8/vendor/BufferChainlink.sol\":3389:3402  add(len, off) */\n      add\n        /* \"@chainlink/contracts/src/v0.8/vendor/BufferChainlink.sol\":3386:3411  gt(add(len, off), buflen) */\n      gt\n        /* \"@chainlink/contracts/src/v0.8/vendor/BufferChainlink.sol\":3383:3459  if gt(add(len, off), buflen) {... */\n      iszero\n      tag_155\n      jumpi\n        /* \"@chainlink/contracts/src/v0.8/vendor/BufferChainlink.sol\":3446:3449  off */\n      dup8\n        /* \"@chainlink/contracts/src/v0.8/vendor/BufferChainlink.sol\":3441:3444  len */\n      dup7\n        /* \"@chainlink/contracts/src/v0.8/vendor/BufferChainlink.sol\":3437:3450  add(len, off) */\n      add\n        /* \"@chainlink/contracts/src/v0.8/vendor/BufferChainlink.sol\":3429:3435  bufptr */\n      dup3\n        /* \"@chainlink/contracts/src/v0.8/vendor/BufferChainlink.sol\":3422:3451  mstore(bufptr, add(len, off)) */\n      mstore\n        /* \"@chainlink/contracts/src/v0.8/vendor/BufferChainlink.sol\":3383:3459  if gt(add(len, off), buflen) {... */\n    tag_155:\n        /* \"@chainlink/contracts/src/v0.8/vendor/BufferChainlink.sol\":3483:3485  32 */\n      0x20\n        /* \"@chainlink/contracts/src/v0.8/vendor/BufferChainlink.sol\":3477:3481  data */\n      dup8\n        /* \"@chainlink/contracts/src/v0.8/vendor/BufferChainlink.sol\":3473:3486  add(data, 32) */\n      add\n        /* \"@chainlink/contracts/src/v0.8/vendor/BufferChainlink.sol\":3466:3486  src := add(data, 32) */\n      swap3\n      pop\n        /* \"@chainlink/contracts/src/v0.8/vendor/BufferChainlink.sol\":3062:3492  {... */\n      pop\n      pop\n        /* \"@chainlink/contracts/src/v0.8/vendor/BufferChainlink.sol\":3544:3673  for (; len >= 32; len -= 32) {... */\n    tag_156:\n        /* \"@chainlink/contracts/src/v0.8/vendor/BufferChainlink.sol\":3558:3560  32 */\n      0x20\n        /* \"@chainlink/contracts/src/v0.8/vendor/BufferChainlink.sol\":3551:3554  len */\n      dup5\n        /* \"@chainlink/contracts/src/v0.8/vendor/BufferChainlink.sol\":3551:3560  len >= 32 */\n      lt\n        /* \"@chainlink/contracts/src/v0.8/vendor/BufferChainlink.sol\":3544:3673  for (; len >= 32; len -= 32) {... */\n      tag_157\n      jumpi\n        /* \"@chainlink/contracts/src/v0.8/vendor/BufferChainlink.sol\":3619:3622  src */\n      dup1\n        /* \"@chainlink/contracts/src/v0.8/vendor/BufferChainlink.sol\":3613:3623  mload(src) */\n      mload\n        /* \"@chainlink/contracts/src/v0.8/vendor/BufferChainlink.sol\":3607:3611  dest */\n      dup3\n        /* \"@chainlink/contracts/src/v0.8/vendor/BufferChainlink.sol\":3600:3624  mstore(dest, mload(src)) */\n      mstore\n        /* \"@chainlink/contracts/src/v0.8/vendor/BufferChainlink.sol\":3647:3649  32 */\n      0x20\n        /* \"@chainlink/contracts/src/v0.8/vendor/BufferChainlink.sol\":3639:3649  dest += 32 */\n      dup3\n      tag_159\n      swap2\n      swap1\n      tag_49\n      jump\t// in\n    tag_159:\n      swap2\n      pop\n        /* \"@chainlink/contracts/src/v0.8/vendor/BufferChainlink.sol\":3664:3666  32 */\n      0x20\n        /* \"@chainlink/contracts/src/v0.8/vendor/BufferChainlink.sol\":3657:3666  src += 32 */\n      dup2\n      tag_160\n      swap2\n      swap1\n      tag_49\n      jump\t// in\n    tag_160:\n      swap1\n      pop\n        /* \"@chainlink/contracts/src/v0.8/vendor/BufferChainlink.sol\":3569:3571  32 */\n      0x20\n        /* \"@chainlink/contracts/src/v0.8/vendor/BufferChainlink.sol\":3562:3571  len -= 32 */\n      dup5\n      tag_161\n      swap2\n      swap1\n      tag_99\n      jump\t// in\n    tag_161:\n      swap4\n      pop\n        /* \"@chainlink/contracts/src/v0.8/vendor/BufferChainlink.sol\":3544:3673  for (; len >= 32; len -= 32) {... */\n      jump(tag_156)\n    tag_157:\n        /* \"@chainlink/contracts/src/v0.8/vendor/BufferChainlink.sol\":3725:3737  uint256 mask */\n      0x00\n        /* \"@chainlink/contracts/src/v0.8/vendor/BufferChainlink.sol\":3760:3761  1 */\n      0x01\n        /* \"@chainlink/contracts/src/v0.8/vendor/BufferChainlink.sol\":3752:3755  len */\n      dup6\n        /* \"@chainlink/contracts/src/v0.8/vendor/BufferChainlink.sol\":3747:3749  32 */\n      0x20\n        /* \"@chainlink/contracts/src/v0.8/vendor/BufferChainlink.sol\":3747:3755  32 - len */\n      sub\n        /* \"@chainlink/contracts/src/v0.8/vendor/BufferChainlink.sol\":3741:3744  256 */\n      0x0100\n        /* \"@chainlink/contracts/src/v0.8/vendor/BufferChainlink.sol\":3741:3756  256**(32 - len) */\n      exp\n        /* \"@chainlink/contracts/src/v0.8/vendor/BufferChainlink.sol\":3740:3761  (256**(32 - len)) - 1 */\n      sub\n        /* \"@chainlink/contracts/src/v0.8/vendor/BufferChainlink.sol\":3725:3761  uint256 mask = (256**(32 - len)) - 1 */\n      swap1\n      pop\n        /* \"@chainlink/contracts/src/v0.8/vendor/BufferChainlink.sol\":3823:3827  mask */\n      dup1\n        /* \"@chainlink/contracts/src/v0.8/vendor/BufferChainlink.sol\":3819:3828  not(mask) */\n      not\n        /* \"@chainlink/contracts/src/v0.8/vendor/BufferChainlink.sol\":3813:3816  src */\n      dup3\n        /* \"@chainlink/contracts/src/v0.8/vendor/BufferChainlink.sol\":3807:3817  mload(src) */\n      mload\n        /* \"@chainlink/contracts/src/v0.8/vendor/BufferChainlink.sol\":3803:3829  and(mload(src), not(mask)) */\n      and\n        /* \"@chainlink/contracts/src/v0.8/vendor/BufferChainlink.sol\":3871:3875  mask */\n      dup2\n        /* \"@chainlink/contracts/src/v0.8/vendor/BufferChainlink.sol\":3864:3868  dest */\n      dup5\n        /* \"@chainlink/contracts/src/v0.8/vendor/BufferChainlink.sol\":3858:3869  mload(dest) */\n      mload\n        /* \"@chainlink/contracts/src/v0.8/vendor/BufferChainlink.sol\":3854:3876  and(mload(dest), mask) */\n      and\n        /* \"@chainlink/contracts/src/v0.8/vendor/BufferChainlink.sol\":3911:3918  srcpart */\n      dup2\n        /* \"@chainlink/contracts/src/v0.8/vendor/BufferChainlink.sol\":3901:3909  destpart */\n      dup2\n        /* \"@chainlink/contracts/src/v0.8/vendor/BufferChainlink.sol\":3898:3919  or(destpart, srcpart) */\n      or\n        /* \"@chainlink/contracts/src/v0.8/vendor/BufferChainlink.sol\":3892:3896  dest */\n      dup6\n        /* \"@chainlink/contracts/src/v0.8/vendor/BufferChainlink.sol\":3885:3920  mstore(dest, or(destpart, srcpart)) */\n      mstore\n        /* \"@chainlink/contracts/src/v0.8/vendor/BufferChainlink.sol\":3778:3928  {... */\n      pop\n      pop\n      pop\n        /* \"@chainlink/contracts/src/v0.8/vendor/BufferChainlink.sol\":3947:3950  buf */\n      dup7\n        /* \"@chainlink/contracts/src/v0.8/vendor/BufferChainlink.sol\":3940:3950  return buf */\n      swap3\n      pop\n      pop\n      pop\n        /* \"@chainlink/contracts/src/v0.8/vendor/BufferChainlink.sol\":2745:3955  function write(... */\n      swap5\n      swap4\n      pop\n      pop\n      pop\n      pop\n      jump\t// out\n        /* \"@chainlink/contracts/src/v0.8/vendor/CBORChainlink.sol\":2154:2341  function encodeBytes(BufferChainlink.buffer memory buf, bytes memory value) internal pure {... */\n    tag_130:\n        /* \"@chainlink/contracts/src/v0.8/vendor/CBORChainlink.sol\":2250:2313  encodeFixedNumeric(buf, MAJOR_TYPE_BYTES, uint64(value.length)) */\n      tag_163\n        /* \"@chainlink/contracts/src/v0.8/vendor/CBORChainlink.sol\":2269:2272  buf */\n      dup3\n        /* \"@chainlink/contracts/src/v0.8/vendor/CBORChainlink.sol\":335:336  2 */\n      0x02\n        /* \"@chainlink/contracts/src/v0.8/vendor/CBORChainlink.sol\":2299:2304  value */\n      dup4\n        /* \"@chainlink/contracts/src/v0.8/vendor/CBORChainlink.sol\":2299:2311  value.length */\n      mload\n        /* \"@chainlink/contracts/src/v0.8/vendor/CBORChainlink.sol\":2250:2268  encodeFixedNumeric */\n      tag_60\n        /* \"@chainlink/contracts/src/v0.8/vendor/CBORChainlink.sol\":2250:2313  encodeFixedNumeric(buf, MAJOR_TYPE_BYTES, uint64(value.length)) */\n      jump\t// in\n    tag_163:\n        /* \"@chainlink/contracts/src/v0.8/vendor/CBORChainlink.sol\":2319:2336  buf.append(value) */\n      tag_164\n        /* \"@chainlink/contracts/src/v0.8/vendor/CBORChainlink.sol\":2330:2335  value */\n      dup2\n        /* \"@chainlink/contracts/src/v0.8/vendor/CBORChainlink.sol\":2319:2322  buf */\n      dup4\n        /* \"@chainlink/contracts/src/v0.8/vendor/CBORChainlink.sol\":2319:2329  buf.append */\n      tag_62\n      swap1\n        /* \"@chainlink/contracts/src/v0.8/vendor/CBORChainlink.sol\":2319:2336  buf.append(value) */\n      swap2\n      swap1\n      0xffffffff\n      and\n      jump\t// in\n    tag_164:\n      pop\n        /* \"@chainlink/contracts/src/v0.8/vendor/CBORChainlink.sol\":2154:2341  function encodeBytes(BufferChainlink.buffer memory buf, bytes memory value) internal pure {... */\n      pop\n      pop\n      jump\t// out\n        /* \"@chainlink/contracts/src/v0.8/vendor/BufferChainlink.sol\":5148:5787  function writeUint8(... */\n    tag_138:\n        /* \"@chainlink/contracts/src/v0.8/vendor/BufferChainlink.sol\":5251:5264  buffer memory */\n      tag_165\n      tag_92\n      jump\t// in\n    tag_165:\n        /* \"@chainlink/contracts/src/v0.8/vendor/BufferChainlink.sol\":5283:5286  buf */\n      dup4\n        /* \"@chainlink/contracts/src/v0.8/vendor/BufferChainlink.sol\":5283:5295  buf.capacity */\n      0x20\n      add\n      mload\n        /* \"@chainlink/contracts/src/v0.8/vendor/BufferChainlink.sol\":5276:5279  off */\n      dup4\n        /* \"@chainlink/contracts/src/v0.8/vendor/BufferChainlink.sol\":5276:5295  off >= buf.capacity */\n      lt\n        /* \"@chainlink/contracts/src/v0.8/vendor/BufferChainlink.sol\":5272:5341  if (off >= buf.capacity) {... */\n      tag_167\n      jumpi\n        /* \"@chainlink/contracts/src/v0.8/vendor/BufferChainlink.sol\":5305:5334  resize(buf, buf.capacity * 2) */\n      tag_168\n        /* \"@chainlink/contracts/src/v0.8/vendor/BufferChainlink.sol\":5312:5315  buf */\n      dup5\n        /* \"@chainlink/contracts/src/v0.8/vendor/BufferChainlink.sol\":5332:5333  2 */\n      0x02\n        /* \"@chainlink/contracts/src/v0.8/vendor/BufferChainlink.sol\":5317:5320  buf */\n      dup7\n        /* \"@chainlink/contracts/src/v0.8/vendor/BufferChainlink.sol\":5317:5329  buf.capacity */\n      0x20\n      add\n      mload\n        /* \"@chainlink/contracts/src/v0.8/vendor/BufferChainlink.sol\":5317:5333  buf.capacity * 2 */\n      tag_169\n      swap2\n      swap1\n      tag_153\n      jump\t// in\n    tag_169:\n        /* \"@chainlink/contracts/src/v0.8/vendor/BufferChainlink.sol\":5305:5311  resize */\n      tag_154\n        /* \"@chainlink/contracts/src/v0.8/vendor/BufferChainlink.sol\":5305:5334  resize(buf, buf.capacity * 2) */\n      jump\t// in\n    tag_168:\n        /* \"@chainlink/contracts/src/v0.8/vendor/BufferChainlink.sol\":5272:5341  if (off >= buf.capacity) {... */\n    tag_167:\n        /* \"@chainlink/contracts/src/v0.8/vendor/BufferChainlink.sol\":5427:5430  buf */\n      dup4\n        /* \"@chainlink/contracts/src/v0.8/vendor/BufferChainlink.sol\":5421:5431  mload(buf) */\n      mload\n        /* \"@chainlink/contracts/src/v0.8/vendor/BufferChainlink.sol\":5498:5504  bufptr */\n      dup1\n        /* \"@chainlink/contracts/src/v0.8/vendor/BufferChainlink.sol\":5492:5505  mload(bufptr) */\n      mload\n        /* \"@chainlink/contracts/src/v0.8/vendor/BufferChainlink.sol\":5610:5612  32 */\n      0x20\n        /* \"@chainlink/contracts/src/v0.8/vendor/BufferChainlink.sol\":5604:5607  off */\n      dup6\n        /* \"@chainlink/contracts/src/v0.8/vendor/BufferChainlink.sol\":5596:5602  bufptr */\n      dup4\n        /* \"@chainlink/contracts/src/v0.8/vendor/BufferChainlink.sol\":5592:5608  add(bufptr, off) */\n      add\n        /* \"@chainlink/contracts/src/v0.8/vendor/BufferChainlink.sol\":5588:5613  add(add(bufptr, off), 32) */\n      add\n        /* \"@chainlink/contracts/src/v0.8/vendor/BufferChainlink.sol\":5634:5638  data */\n      dup5\n        /* \"@chainlink/contracts/src/v0.8/vendor/BufferChainlink.sol\":5628:5632  dest */\n      dup2\n        /* \"@chainlink/contracts/src/v0.8/vendor/BufferChainlink.sol\":5620:5639  mstore8(dest, data) */\n      mstore8\n        /* \"@chainlink/contracts/src/v0.8/vendor/BufferChainlink.sol\":5705:5711  buflen */\n      dup2\n        /* \"@chainlink/contracts/src/v0.8/vendor/BufferChainlink.sol\":5700:5703  off */\n      dup7\n        /* \"@chainlink/contracts/src/v0.8/vendor/BufferChainlink.sol\":5697:5712  eq(off, buflen) */\n      eq\n        /* \"@chainlink/contracts/src/v0.8/vendor/BufferChainlink.sol\":5694:5761  if eq(off, buflen) {... */\n      iszero\n      tag_170\n      jumpi\n        /* \"@chainlink/contracts/src/v0.8/vendor/BufferChainlink.sol\":5750:5751  1 */\n      0x01\n        /* \"@chainlink/contracts/src/v0.8/vendor/BufferChainlink.sol\":5742:5748  buflen */\n      dup3\n        /* \"@chainlink/contracts/src/v0.8/vendor/BufferChainlink.sol\":5738:5752  add(buflen, 1) */\n      add\n        /* \"@chainlink/contracts/src/v0.8/vendor/BufferChainlink.sol\":5730:5736  bufptr */\n      dup4\n        /* \"@chainlink/contracts/src/v0.8/vendor/BufferChainlink.sol\":5723:5753  mstore(bufptr, add(buflen, 1)) */\n      mstore\n        /* \"@chainlink/contracts/src/v0.8/vendor/BufferChainlink.sol\":5694:5761  if eq(off, buflen) {... */\n    tag_170:\n        /* \"@chainlink/contracts/src/v0.8/vendor/BufferChainlink.sol\":5356:5767  {... */\n      pop\n      pop\n      pop\n        /* \"@chainlink/contracts/src/v0.8/vendor/BufferChainlink.sol\":5779:5782  buf */\n      dup4\n        /* \"@chainlink/contracts/src/v0.8/vendor/BufferChainlink.sol\":5772:5782  return buf */\n      swap1\n      pop\n        /* \"@chainlink/contracts/src/v0.8/vendor/BufferChainlink.sol\":5148:5787  function writeUint8(... */\n      swap4\n      swap3\n      pop\n      pop\n      pop\n      jump\t// out\n        /* \"@chainlink/contracts/src/v0.8/vendor/BufferChainlink.sol\":8974:9649  function writeInt(... */\n    tag_142:\n        /* \"@chainlink/contracts/src/v0.8/vendor/BufferChainlink.sol\":9093:9106  buffer memory */\n      tag_171\n      tag_92\n      jump\t// in\n    tag_171:\n        /* \"@chainlink/contracts/src/v0.8/vendor/BufferChainlink.sol\":9130:9133  buf */\n      dup5\n        /* \"@chainlink/contracts/src/v0.8/vendor/BufferChainlink.sol\":9130:9142  buf.capacity */\n      0x20\n      add\n      mload\n        /* \"@chainlink/contracts/src/v0.8/vendor/BufferChainlink.sol\":9124:9127  off */\n      dup5\n        /* \"@chainlink/contracts/src/v0.8/vendor/BufferChainlink.sol\":9118:9121  len */\n      dup4\n        /* \"@chainlink/contracts/src/v0.8/vendor/BufferChainlink.sol\":9118:9127  len + off */\n      tag_173\n      swap2\n      swap1\n      tag_49\n      jump\t// in\n    tag_173:\n        /* \"@chainlink/contracts/src/v0.8/vendor/BufferChainlink.sol\":9118:9142  len + off > buf.capacity */\n      gt\n        /* \"@chainlink/contracts/src/v0.8/vendor/BufferChainlink.sol\":9114:9187  if (len + off > buf.capacity) {... */\n      iszero\n      tag_174\n      jumpi\n        /* \"@chainlink/contracts/src/v0.8/vendor/BufferChainlink.sol\":9152:9180  resize(buf, (len + off) * 2) */\n      tag_175\n        /* \"@chainlink/contracts/src/v0.8/vendor/BufferChainlink.sol\":9159:9162  buf */\n      dup6\n        /* \"@chainlink/contracts/src/v0.8/vendor/BufferChainlink.sol\":9178:9179  2 */\n      0x02\n        /* \"@chainlink/contracts/src/v0.8/vendor/BufferChainlink.sol\":9171:9174  off */\n      dup7\n        /* \"@chainlink/contracts/src/v0.8/vendor/BufferChainlink.sol\":9165:9168  len */\n      dup6\n        /* \"@chainlink/contracts/src/v0.8/vendor/BufferChainlink.sol\":9165:9174  len + off */\n      tag_176\n      swap2\n      swap1\n      tag_49\n      jump\t// in\n    tag_176:\n        /* \"@chainlink/contracts/src/v0.8/vendor/BufferChainlink.sol\":9164:9179  (len + off) * 2 */\n      tag_177\n      swap2\n      swap1\n      tag_153\n      jump\t// in\n    tag_177:\n        /* \"@chainlink/contracts/src/v0.8/vendor/BufferChainlink.sol\":9152:9158  resize */\n      tag_154\n        /* \"@chainlink/contracts/src/v0.8/vendor/BufferChainlink.sol\":9152:9180  resize(buf, (len + off) * 2) */\n      jump\t// in\n    tag_175:\n        /* \"@chainlink/contracts/src/v0.8/vendor/BufferChainlink.sol\":9114:9187  if (len + off > buf.capacity) {... */\n    tag_174:\n        /* \"@chainlink/contracts/src/v0.8/vendor/BufferChainlink.sol\":9193:9205  uint256 mask */\n      0x00\n        /* \"@chainlink/contracts/src/v0.8/vendor/BufferChainlink.sol\":9221:9222  1 */\n      0x01\n        /* \"@chainlink/contracts/src/v0.8/vendor/BufferChainlink.sol\":9214:9217  len */\n      dup4\n        /* \"@chainlink/contracts/src/v0.8/vendor/BufferChainlink.sol\":9209:9212  256 */\n      0x0100\n        /* \"@chainlink/contracts/src/v0.8/vendor/BufferChainlink.sol\":9209:9217  256**len */\n      tag_178\n      swap2\n      swap1\n      tag_179\n      jump\t// in\n    tag_178:\n        /* \"@chainlink/contracts/src/v0.8/vendor/BufferChainlink.sol\":9208:9222  (256**len) - 1 */\n      tag_180\n      swap2\n      swap1\n      tag_99\n      jump\t// in\n    tag_180:\n        /* \"@chainlink/contracts/src/v0.8/vendor/BufferChainlink.sol\":9193:9222  uint256 mask = (256**len) - 1 */\n      swap1\n      pop\n        /* \"@chainlink/contracts/src/v0.8/vendor/BufferChainlink.sol\":9308:9311  buf */\n      dup6\n        /* \"@chainlink/contracts/src/v0.8/vendor/BufferChainlink.sol\":9302:9312  mload(buf) */\n      mload\n        /* \"@chainlink/contracts/src/v0.8/vendor/BufferChainlink.sol\":9423:9426  len */\n      dup4\n        /* \"@chainlink/contracts/src/v0.8/vendor/BufferChainlink.sol\":9417:9420  off */\n      dup7\n        /* \"@chainlink/contracts/src/v0.8/vendor/BufferChainlink.sol\":9409:9415  bufptr */\n      dup3\n        /* \"@chainlink/contracts/src/v0.8/vendor/BufferChainlink.sol\":9405:9421  add(bufptr, off) */\n      add\n        /* \"@chainlink/contracts/src/v0.8/vendor/BufferChainlink.sol\":9401:9427  add(add(bufptr, off), len) */\n      add\n        /* \"@chainlink/contracts/src/v0.8/vendor/BufferChainlink.sol\":9479:9483  data */\n      dup6\n        /* \"@chainlink/contracts/src/v0.8/vendor/BufferChainlink.sol\":9471:9475  mask */\n      dup4\n        /* \"@chainlink/contracts/src/v0.8/vendor/BufferChainlink.sol\":9467:9476  not(mask) */\n      not\n        /* \"@chainlink/contracts/src/v0.8/vendor/BufferChainlink.sol\":9460:9464  dest */\n      dup3\n        /* \"@chainlink/contracts/src/v0.8/vendor/BufferChainlink.sol\":9454:9465  mload(dest) */\n      mload\n        /* \"@chainlink/contracts/src/v0.8/vendor/BufferChainlink.sol\":9450:9477  and(mload(dest), not(mask)) */\n      and\n        /* \"@chainlink/contracts/src/v0.8/vendor/BufferChainlink.sol\":9447:9484  or(and(mload(dest), not(mask)), data) */\n      or\n        /* \"@chainlink/contracts/src/v0.8/vendor/BufferChainlink.sol\":9441:9445  dest */\n      dup2\n        /* \"@chainlink/contracts/src/v0.8/vendor/BufferChainlink.sol\":9434:9485  mstore(dest, or(and(mload(dest), not(mask)), data)) */\n      mstore\n        /* \"@chainlink/contracts/src/v0.8/vendor/BufferChainlink.sol\":9567:9573  bufptr */\n      dup2\n        /* \"@chainlink/contracts/src/v0.8/vendor/BufferChainlink.sol\":9561:9574  mload(bufptr) */\n      mload\n        /* \"@chainlink/contracts/src/v0.8/vendor/BufferChainlink.sol\":9555:9558  len */\n      dup6\n        /* \"@chainlink/contracts/src/v0.8/vendor/BufferChainlink.sol\":9550:9553  off */\n      dup9\n        /* \"@chainlink/contracts/src/v0.8/vendor/BufferChainlink.sol\":9546:9559  add(off, len) */\n      add\n        /* \"@chainlink/contracts/src/v0.8/vendor/BufferChainlink.sol\":9543:9575  gt(add(off, len), mload(bufptr)) */\n      gt\n        /* \"@chainlink/contracts/src/v0.8/vendor/BufferChainlink.sol\":9540:9623  if gt(add(off, len), mload(bufptr)) {... */\n      iszero\n      tag_181\n      jumpi\n        /* \"@chainlink/contracts/src/v0.8/vendor/BufferChainlink.sol\":9610:9613  len */\n      dup5\n        /* \"@chainlink/contracts/src/v0.8/vendor/BufferChainlink.sol\":9605:9608  off */\n      dup8\n        /* \"@chainlink/contracts/src/v0.8/vendor/BufferChainlink.sol\":9601:9614  add(off, len) */\n      add\n        /* \"@chainlink/contracts/src/v0.8/vendor/BufferChainlink.sol\":9593:9599  bufptr */\n      dup3\n        /* \"@chainlink/contracts/src/v0.8/vendor/BufferChainlink.sol\":9586:9615  mstore(bufptr, add(off, len)) */\n      mstore\n        /* \"@chainlink/contracts/src/v0.8/vendor/BufferChainlink.sol\":9540:9623  if gt(add(off, len), mload(bufptr)) {... */\n    tag_181:\n        /* \"@chainlink/contracts/src/v0.8/vendor/BufferChainlink.sol\":9237:9629  {... */\n      pop\n      pop\n        /* \"@chainlink/contracts/src/v0.8/vendor/BufferChainlink.sol\":9641:9644  buf */\n      dup6\n        /* \"@chainlink/contracts/src/v0.8/vendor/BufferChainlink.sol\":9634:9644  return buf */\n      swap2\n      pop\n      pop\n        /* \"@chainlink/contracts/src/v0.8/vendor/BufferChainlink.sol\":8974:9649  function writeInt(... */\n      swap5\n      swap4\n      pop\n      pop\n      pop\n      pop\n      jump\t// out\n        /* \"@chainlink/contracts/src/v0.8/vendor/BufferChainlink.sol\":1961:2085  function max(uint256 a, uint256 b) private pure returns (uint256) {... */\n    tag_151:\n        /* \"@chainlink/contracts/src/v0.8/vendor/BufferChainlink.sol\":2018:2025  uint256 */\n      0x00\n        /* \"@chainlink/contracts/src/v0.8/vendor/BufferChainlink.sol\":2041:2042  b */\n      dup2\n        /* \"@chainlink/contracts/src/v0.8/vendor/BufferChainlink.sol\":2037:2038  a */\n      dup4\n        /* \"@chainlink/contracts/src/v0.8/vendor/BufferChainlink.sol\":2037:2042  a > b */\n      gt\n        /* \"@chainlink/contracts/src/v0.8/vendor/BufferChainlink.sol\":2033:2067  if (a > b) {... */\n      iszero\n      tag_183\n      jumpi\n        /* \"@chainlink/contracts/src/v0.8/vendor/BufferChainlink.sol\":2059:2060  a */\n      dup3\n        /* \"@chainlink/contracts/src/v0.8/vendor/BufferChainlink.sol\":2052:2060  return a */\n      swap1\n      pop\n      jump(tag_182)\n        /* \"@chainlink/contracts/src/v0.8/vendor/BufferChainlink.sol\":2033:2067  if (a > b) {... */\n    tag_183:\n        /* \"@chainlink/contracts/src/v0.8/vendor/BufferChainlink.sol\":2079:2080  b */\n      dup2\n        /* \"@chainlink/contracts/src/v0.8/vendor/BufferChainlink.sol\":2072:2080  return b */\n      swap1\n      pop\n        /* \"@chainlink/contracts/src/v0.8/vendor/BufferChainlink.sol\":1961:2085  function max(uint256 a, uint256 b) private pure returns (uint256) {... */\n    tag_182:\n      swap3\n      swap2\n      pop\n      pop\n      jump\t// out\n        /* \"@chainlink/contracts/src/v0.8/vendor/BufferChainlink.sol\":1801:1957  function resize(buffer memory buf, uint256 capacity) private pure {... */\n    tag_154:\n        /* \"@chainlink/contracts/src/v0.8/vendor/BufferChainlink.sol\":1873:1892  bytes memory oldbuf */\n      0x00\n        /* \"@chainlink/contracts/src/v0.8/vendor/BufferChainlink.sol\":1895:1898  buf */\n      dup3\n        /* \"@chainlink/contracts/src/v0.8/vendor/BufferChainlink.sol\":1895:1902  buf.buf */\n      0x00\n      add\n      mload\n        /* \"@chainlink/contracts/src/v0.8/vendor/BufferChainlink.sol\":1873:1902  bytes memory oldbuf = buf.buf */\n      swap1\n      pop\n        /* \"@chainlink/contracts/src/v0.8/vendor/BufferChainlink.sol\":1908:1927  init(buf, capacity) */\n      tag_185\n        /* \"@chainlink/contracts/src/v0.8/vendor/BufferChainlink.sol\":1913:1916  buf */\n      dup4\n        /* \"@chainlink/contracts/src/v0.8/vendor/BufferChainlink.sol\":1918:1926  capacity */\n      dup4\n        /* \"@chainlink/contracts/src/v0.8/vendor/BufferChainlink.sol\":1908:1912  init */\n      tag_57\n        /* \"@chainlink/contracts/src/v0.8/vendor/BufferChainlink.sol\":1908:1927  init(buf, capacity) */\n      jump\t// in\n    tag_185:\n      pop\n        /* \"@chainlink/contracts/src/v0.8/vendor/BufferChainlink.sol\":1933:1952  append(buf, oldbuf) */\n      tag_186\n        /* \"@chainlink/contracts/src/v0.8/vendor/BufferChainlink.sol\":1940:1943  buf */\n      dup4\n        /* \"@chainlink/contracts/src/v0.8/vendor/BufferChainlink.sol\":1945:1951  oldbuf */\n      dup3\n        /* \"@chainlink/contracts/src/v0.8/vendor/BufferChainlink.sol\":1933:1939  append */\n      tag_62\n        /* \"@chainlink/contracts/src/v0.8/vendor/BufferChainlink.sol\":1933:1952  append(buf, oldbuf) */\n      jump\t// in\n    tag_186:\n      pop\n        /* \"@chainlink/contracts/src/v0.8/vendor/BufferChainlink.sol\":1867:1957  {... */\n      pop\n        /* \"@chainlink/contracts/src/v0.8/vendor/BufferChainlink.sol\":1801:1957  function resize(buffer memory buf, uint256 capacity) private pure {... */\n      pop\n      pop\n      jump\t// out\n    tag_34:\n      mload(0x40)\n      dup1\n      0xa0\n      add\n      0x40\n      mstore\n      dup1\n      0x00\n      dup1\n      not\n      and\n      dup2\n      mstore\n      0x20\n      add\n      and(0xffffffffffffffffffffffffffffffffffffffff, 0x00)\n      dup2\n      mstore\n      0x20\n      add\n      and(not(0xffffffffffffffffffffffffffffffffffffffffffffffffffffffff), 0x00)\n      dup2\n      mstore\n      0x20\n      add\n      0x00\n      dup2\n      mstore\n      0x20\n      add\n      tag_187\n      tag_92\n      jump\t// in\n    tag_187:\n      dup2\n      mstore\n      pop\n      swap1\n      jump\t// out\n    tag_92:\n      mload(0x40)\n      dup1\n      0x40\n      add\n      0x40\n      mstore\n      dup1\n      0x60\n      dup2\n      mstore\n      0x20\n      add\n      0x00\n      dup2\n      mstore\n      pop\n      swap1\n      jump\t// out\n        /* \"#utility.yul\":7:144   */\n    tag_189:\n        /* \"#utility.yul\":61:66   */\n      0x00\n        /* \"#utility.yul\":92:98   */\n      dup2\n        /* \"#utility.yul\":86:99   */\n      mload\n        /* \"#utility.yul\":77:99   */\n      swap1\n      pop\n        /* \"#utility.yul\":108:138   */\n      tag_191\n        /* \"#utility.yul\":132:137   */\n      dup2\n        /* \"#utility.yul\":108:138   */\n      tag_192\n      jump\t// in\n    tag_191:\n        /* \"#utility.yul\":7:144   */\n      swap3\n      swap2\n      pop\n      pop\n      jump\t// out\n        /* \"#utility.yul\":150:289   */\n    tag_193:\n        /* \"#utility.yul\":196:201   */\n      0x00\n        /* \"#utility.yul\":234:240   */\n      dup2\n        /* \"#utility.yul\":221:241   */\n      calldataload\n        /* \"#utility.yul\":212:241   */\n      swap1\n      pop\n        /* \"#utility.yul\":250:283   */\n      tag_195\n        /* \"#utility.yul\":277:282   */\n      dup2\n        /* \"#utility.yul\":250:283   */\n      tag_196\n      jump\t// in\n    tag_195:\n        /* \"#utility.yul\":150:289   */\n      swap3\n      swap2\n      pop\n      pop\n      jump\t// out\n        /* \"#utility.yul\":295:434   */\n    tag_197:\n        /* \"#utility.yul\":341:346   */\n      0x00\n        /* \"#utility.yul\":379:385   */\n      dup2\n        /* \"#utility.yul\":366:386   */\n      calldataload\n        /* \"#utility.yul\":357:386   */\n      swap1\n      pop\n        /* \"#utility.yul\":395:428   */\n      tag_199\n        /* \"#utility.yul\":422:427   */\n      dup2\n        /* \"#utility.yul\":395:428   */\n      tag_200\n      jump\t// in\n    tag_199:\n        /* \"#utility.yul\":295:434   */\n      swap3\n      swap2\n      pop\n      pop\n      jump\t// out\n        /* \"#utility.yul\":440:785   */\n    tag_87:\n        /* \"#utility.yul\":507:513   */\n      0x00\n        /* \"#utility.yul\":556:558   */\n      0x20\n        /* \"#utility.yul\":544:553   */\n      dup3\n        /* \"#utility.yul\":535:542   */\n      dup5\n        /* \"#utility.yul\":531:554   */\n      sub\n        /* \"#utility.yul\":527:559   */\n      slt\n        /* \"#utility.yul\":524:643   */\n      iszero\n      tag_202\n      jumpi\n        /* \"#utility.yul\":562:641   */\n      tag_203\n      tag_204\n      jump\t// in\n    tag_203:\n        /* \"#utility.yul\":524:643   */\n    tag_202:\n        /* \"#utility.yul\":682:683   */\n      0x00\n        /* \"#utility.yul\":707:768   */\n      tag_205\n        /* \"#utility.yul\":760:767   */\n      dup5\n        /* \"#utility.yul\":751:757   */\n      dup3\n        /* \"#utility.yul\":740:749   */\n      dup6\n        /* \"#utility.yul\":736:758   */\n      add\n        /* \"#utility.yul\":707:768   */\n      tag_189\n      jump\t// in\n    tag_205:\n        /* \"#utility.yul\":697:768   */\n      swap2\n      pop\n        /* \"#utility.yul\":653:778   */\n      pop\n        /* \"#utility.yul\":440:785   */\n      swap3\n      swap2\n      pop\n      pop\n      jump\t// out\n        /* \"#utility.yul\":791:1265   */\n    tag_8:\n        /* \"#utility.yul\":859:865   */\n      0x00\n        /* \"#utility.yul\":867:873   */\n      dup1\n        /* \"#utility.yul\":916:918   */\n      0x40\n        /* \"#utility.yul\":904:913   */\n      dup4\n        /* \"#utility.yul\":895:902   */\n      dup6\n        /* \"#utility.yul\":891:914   */\n      sub\n        /* \"#utility.yul\":887:919   */\n      slt\n        /* \"#utility.yul\":884:1003   */\n      iszero\n      tag_207\n      jumpi\n        /* \"#utility.yul\":922:1001   */\n      tag_208\n      tag_204\n      jump\t// in\n    tag_208:\n        /* \"#utility.yul\":884:1003   */\n    tag_207:\n        /* \"#utility.yul\":1042:1043   */\n      0x00\n        /* \"#utility.yul\":1067:1120   */\n      tag_209\n        /* \"#utility.yul\":1112:1119   */\n      dup6\n        /* \"#utility.yul\":1103:1109   */\n      dup3\n        /* \"#utility.yul\":1092:1101   */\n      dup7\n        /* \"#utility.yul\":1088:1110   */\n      add\n        /* \"#utility.yul\":1067:1120   */\n      tag_193\n      jump\t// in\n    tag_209:\n        /* \"#utility.yul\":1057:1120   */\n      swap3\n      pop\n        /* \"#utility.yul\":1013:1130   */\n      pop\n        /* \"#utility.yul\":1169:1171   */\n      0x20\n        /* \"#utility.yul\":1195:1248   */\n      tag_210\n        /* \"#utility.yul\":1240:1247   */\n      dup6\n        /* \"#utility.yul\":1231:1237   */\n      dup3\n        /* \"#utility.yul\":1220:1229   */\n      dup7\n        /* \"#utility.yul\":1216:1238   */\n      add\n        /* \"#utility.yul\":1195:1248   */\n      tag_197\n      jump\t// in\n    tag_210:\n        /* \"#utility.yul\":1185:1248   */\n      swap2\n      pop\n        /* \"#utility.yul\":1140:1258   */\n      pop\n        /* \"#utility.yul\":791:1265   */\n      swap3\n      pop\n      swap3\n      swap1\n      pop\n      jump\t// out\n        /* \"#utility.yul\":1271:1389   */\n    tag_211:\n        /* \"#utility.yul\":1358:1382   */\n      tag_213\n        /* \"#utility.yul\":1376:1381   */\n      dup2\n        /* \"#utility.yul\":1358:1382   */\n      tag_214\n      jump\t// in\n    tag_213:\n        /* \"#utility.yul\":1353:1356   */\n      dup3\n        /* \"#utility.yul\":1346:1383   */\n      mstore\n        /* \"#utility.yul\":1271:1389   */\n      pop\n      pop\n      jump\t// out\n        /* \"#utility.yul\":1395:1513   */\n    tag_215:\n        /* \"#utility.yul\":1482:1506   */\n      tag_217\n        /* \"#utility.yul\":1500:1505   */\n      dup2\n        /* \"#utility.yul\":1482:1506   */\n      tag_218\n      jump\t// in\n    tag_217:\n        /* \"#utility.yul\":1477:1480   */\n      dup3\n        /* \"#utility.yul\":1470:1507   */\n      mstore\n        /* \"#utility.yul\":1395:1513   */\n      pop\n      pop\n      jump\t// out\n        /* \"#utility.yul\":1519:1634   */\n    tag_219:\n        /* \"#utility.yul\":1604:1627   */\n      tag_221\n        /* \"#utility.yul\":1621:1626   */\n      dup2\n        /* \"#utility.yul\":1604:1627   */\n      tag_222\n      jump\t// in\n    tag_221:\n        /* \"#utility.yul\":1599:1602   */\n      dup3\n        /* \"#utility.yul\":1592:1628   */\n      mstore\n        /* \"#utility.yul\":1519:1634   */\n      pop\n      pop\n      jump\t// out\n        /* \"#utility.yul\":1640:2000   */\n    tag_223:\n        /* \"#utility.yul\":1726:1729   */\n      0x00\n        /* \"#utility.yul\":1754:1792   */\n      tag_225\n        /* \"#utility.yul\":1786:1791   */\n      dup3\n        /* \"#utility.yul\":1754:1792   */\n      tag_226\n      jump\t// in\n    tag_225:\n        /* \"#utility.yul\":1808:1878   */\n      tag_227\n        /* \"#utility.yul\":1871:1877   */\n      dup2\n        /* \"#utility.yul\":1866:1869   */\n      dup6\n        /* \"#utility.yul\":1808:1878   */\n      tag_228\n      jump\t// in\n    tag_227:\n        /* \"#utility.yul\":1801:1878   */\n      swap4\n      pop\n        /* \"#utility.yul\":1887:1939   */\n      tag_229\n        /* \"#utility.yul\":1932:1938   */\n      dup2\n        /* \"#utility.yul\":1927:1930   */\n      dup6\n        /* \"#utility.yul\":1920:1924   */\n      0x20\n        /* \"#utility.yul\":1913:1918   */\n      dup7\n        /* \"#utility.yul\":1909:1925   */\n      add\n        /* \"#utility.yul\":1887:1939   */\n      tag_230\n      jump\t// in\n    tag_229:\n        /* \"#utility.yul\":1964:1993   */\n      tag_231\n        /* \"#utility.yul\":1986:1992   */\n      dup2\n        /* \"#utility.yul\":1964:1993   */\n      tag_232\n      jump\t// in\n    tag_231:\n        /* \"#utility.yul\":1959:1962   */\n      dup5\n        /* \"#utility.yul\":1955:1994   */\n      add\n        /* \"#utility.yul\":1948:1994   */\n      swap2\n      pop\n        /* \"#utility.yul\":1730:2000   */\n      pop\n        /* \"#utility.yul\":1640:2000   */\n      swap3\n      swap2\n      pop\n      pop\n      jump\t// out\n        /* \"#utility.yul\":2006:2222   */\n    tag_233:\n        /* \"#utility.yul\":2134:2215   */\n      tag_235\n        /* \"#utility.yul\":2154:2214   */\n      tag_236\n        /* \"#utility.yul\":2208:2213   */\n      dup3\n        /* \"#utility.yul\":2154:2214   */\n      tag_237\n      jump\t// in\n    tag_236:\n        /* \"#utility.yul\":2134:2215   */\n      tag_238\n      jump\t// in\n    tag_235:\n        /* \"#utility.yul\":2129:2132   */\n      dup3\n        /* \"#utility.yul\":2122:2216   */\n      mstore\n        /* \"#utility.yul\":2006:2222   */\n      pop\n      pop\n      jump\t// out\n        /* \"#utility.yul\":2228:2594   */\n    tag_239:\n        /* \"#utility.yul\":2370:2373   */\n      0x00\n        /* \"#utility.yul\":2391:2458   */\n      tag_241\n        /* \"#utility.yul\":2455:2457   */\n      0x23\n        /* \"#utility.yul\":2450:2453   */\n      dup4\n        /* \"#utility.yul\":2391:2458   */\n      tag_242\n      jump\t// in\n    tag_241:\n        /* \"#utility.yul\":2384:2458   */\n      swap2\n      pop\n        /* \"#utility.yul\":2467:2560   */\n      tag_243\n        /* \"#utility.yul\":2556:2559   */\n      dup3\n        /* \"#utility.yul\":2467:2560   */\n      tag_244\n      jump\t// in\n    tag_243:\n        /* \"#utility.yul\":2585:2587   */\n      0x40\n        /* \"#utility.yul\":2580:2583   */\n      dup3\n        /* \"#utility.yul\":2576:2588   */\n      add\n        /* \"#utility.yul\":2569:2588   */\n      swap1\n      pop\n        /* \"#utility.yul\":2228:2594   */\n      swap2\n      swap1\n      pop\n      jump\t// out\n        /* \"#utility.yul\":2600:2966   */\n    tag_245:\n        /* \"#utility.yul\":2742:2745   */\n      0x00\n        /* \"#utility.yul\":2763:2830   */\n      tag_247\n        /* \"#utility.yul\":2827:2829   */\n      0x28\n        /* \"#utility.yul\":2822:2825   */\n      dup4\n        /* \"#utility.yul\":2763:2830   */\n      tag_242\n      jump\t// in\n    tag_247:\n        /* \"#utility.yul\":2756:2830   */\n      swap2\n      pop\n        /* \"#utility.yul\":2839:2932   */\n      tag_248\n        /* \"#utility.yul\":2928:2931   */\n      dup3\n        /* \"#utility.yul\":2839:2932   */\n      tag_249\n      jump\t// in\n    tag_248:\n        /* \"#utility.yul\":2957:2959   */\n      0x40\n        /* \"#utility.yul\":2952:2955   */\n      dup3\n        /* \"#utility.yul\":2948:2960   */\n      add\n        /* \"#utility.yul\":2941:2960   */\n      swap1\n      pop\n        /* \"#utility.yul\":2600:2966   */\n      swap2\n      swap1\n      pop\n      jump\t// out\n        /* \"#utility.yul\":2972:3090   */\n    tag_250:\n        /* \"#utility.yul\":3059:3083   */\n      tag_252\n        /* \"#utility.yul\":3077:3082   */\n      dup2\n        /* \"#utility.yul\":3059:3083   */\n      tag_253\n      jump\t// in\n    tag_252:\n        /* \"#utility.yul\":3054:3057   */\n      dup3\n        /* \"#utility.yul\":3047:3084   */\n      mstore\n        /* \"#utility.yul\":2972:3090   */\n      pop\n      pop\n      jump\t// out\n        /* \"#utility.yul\":3096:3253   */\n    tag_254:\n        /* \"#utility.yul\":3201:3246   */\n      tag_256\n        /* \"#utility.yul\":3221:3245   */\n      tag_257\n        /* \"#utility.yul\":3239:3244   */\n      dup3\n        /* \"#utility.yul\":3221:3245   */\n      tag_253\n      jump\t// in\n    tag_257:\n        /* \"#utility.yul\":3201:3246   */\n      tag_258\n      jump\t// in\n    tag_256:\n        /* \"#utility.yul\":3196:3199   */\n      dup3\n        /* \"#utility.yul\":3189:3247   */\n      mstore\n        /* \"#utility.yul\":3096:3253   */\n      pop\n      pop\n      jump\t// out\n        /* \"#utility.yul\":3259:3702   */\n    tag_80:\n        /* \"#utility.yul\":3422:3425   */\n      0x00\n        /* \"#utility.yul\":3437:3535   */\n      tag_260\n        /* \"#utility.yul\":3531:3534   */\n      dup3\n        /* \"#utility.yul\":3522:3528   */\n      dup6\n        /* \"#utility.yul\":3437:3535   */\n      tag_233\n      jump\t// in\n    tag_260:\n        /* \"#utility.yul\":3560:3562   */\n      0x14\n        /* \"#utility.yul\":3555:3558   */\n      dup3\n        /* \"#utility.yul\":3551:3563   */\n      add\n        /* \"#utility.yul\":3544:3563   */\n      swap2\n      pop\n        /* \"#utility.yul\":3573:3648   */\n      tag_261\n        /* \"#utility.yul\":3644:3647   */\n      dup3\n        /* \"#utility.yul\":3635:3641   */\n      dup5\n        /* \"#utility.yul\":3573:3648   */\n      tag_254\n      jump\t// in\n    tag_261:\n        /* \"#utility.yul\":3673:3675   */\n      0x20\n        /* \"#utility.yul\":3668:3671   */\n      dup3\n        /* \"#utility.yul\":3664:3676   */\n      add\n        /* \"#utility.yul\":3657:3676   */\n      swap2\n      pop\n        /* \"#utility.yul\":3693:3696   */\n      dup2\n        /* \"#utility.yul\":3686:3696   */\n      swap1\n      pop\n        /* \"#utility.yul\":3259:3702   */\n      swap4\n      swap3\n      pop\n      pop\n      pop\n      jump\t// out\n        /* \"#utility.yul\":3708:4788   */\n    tag_51:\n        /* \"#utility.yul\":4013:4017   */\n      0x00\n        /* \"#utility.yul\":4051:4054   */\n      0x0100\n        /* \"#utility.yul\":4040:4049   */\n      dup3\n        /* \"#utility.yul\":4036:4055   */\n      add\n        /* \"#utility.yul\":4028:4055   */\n      swap1\n      pop\n        /* \"#utility.yul\":4065:4136   */\n      tag_263\n        /* \"#utility.yul\":4133:4134   */\n      0x00\n        /* \"#utility.yul\":4122:4131   */\n      dup4\n        /* \"#utility.yul\":4118:4135   */\n      add\n        /* \"#utility.yul\":4109:4115   */\n      dup12\n        /* \"#utility.yul\":4065:4136   */\n      tag_211\n      jump\t// in\n    tag_263:\n        /* \"#utility.yul\":4146:4218   */\n      tag_264\n        /* \"#utility.yul\":4214:4216   */\n      0x20\n        /* \"#utility.yul\":4203:4212   */\n      dup4\n        /* \"#utility.yul\":4199:4217   */\n      add\n        /* \"#utility.yul\":4190:4196   */\n      dup11\n        /* \"#utility.yul\":4146:4218   */\n      tag_250\n      jump\t// in\n    tag_264:\n        /* \"#utility.yul\":4228:4300   */\n      tag_265\n        /* \"#utility.yul\":4296:4298   */\n      0x40\n        /* \"#utility.yul\":4285:4294   */\n      dup4\n        /* \"#utility.yul\":4281:4299   */\n      add\n        /* \"#utility.yul\":4272:4278   */\n      dup10\n        /* \"#utility.yul\":4228:4300   */\n      tag_215\n      jump\t// in\n    tag_265:\n        /* \"#utility.yul\":4310:4382   */\n      tag_266\n        /* \"#utility.yul\":4378:4380   */\n      0x60\n        /* \"#utility.yul\":4367:4376   */\n      dup4\n        /* \"#utility.yul\":4363:4381   */\n      add\n        /* \"#utility.yul\":4354:4360   */\n      dup9\n        /* \"#utility.yul\":4310:4382   */\n      tag_211\n      jump\t// in\n    tag_266:\n        /* \"#utility.yul\":4392:4463   */\n      tag_267\n        /* \"#utility.yul\":4458:4461   */\n      0x80\n        /* \"#utility.yul\":4447:4456   */\n      dup4\n        /* \"#utility.yul\":4443:4462   */\n      add\n        /* \"#utility.yul\":4434:4440   */\n      dup8\n        /* \"#utility.yul\":4392:4463   */\n      tag_219\n      jump\t// in\n    tag_267:\n        /* \"#utility.yul\":4473:4546   */\n      tag_268\n        /* \"#utility.yul\":4541:4544   */\n      0xa0\n        /* \"#utility.yul\":4530:4539   */\n      dup4\n        /* \"#utility.yul\":4526:4545   */\n      add\n        /* \"#utility.yul\":4517:4523   */\n      dup7\n        /* \"#utility.yul\":4473:4546   */\n      tag_250\n      jump\t// in\n    tag_268:\n        /* \"#utility.yul\":4556:4629   */\n      tag_269\n        /* \"#utility.yul\":4624:4627   */\n      0xc0\n        /* \"#utility.yul\":4613:4622   */\n      dup4\n        /* \"#utility.yul\":4609:4628   */\n      add\n        /* \"#utility.yul\":4600:4606   */\n      dup6\n        /* \"#utility.yul\":4556:4629   */\n      tag_250\n      jump\t// in\n    tag_269:\n        /* \"#utility.yul\":4677:4686   */\n      dup2\n        /* \"#utility.yul\":4671:4675   */\n      dup2\n        /* \"#utility.yul\":4667:4687   */\n      sub\n        /* \"#utility.yul\":4661:4664   */\n      0xe0\n        /* \"#utility.yul\":4650:4659   */\n      dup4\n        /* \"#utility.yul\":4646:4665   */\n      add\n        /* \"#utility.yul\":4639:4688   */\n      mstore\n        /* \"#utility.yul\":4705:4781   */\n      tag_270\n        /* \"#utility.yul\":4776:4780   */\n      dup2\n        /* \"#utility.yul\":4767:4773   */\n      dup5\n        /* \"#utility.yul\":4705:4781   */\n      tag_223\n      jump\t// in\n    tag_270:\n        /* \"#utility.yul\":4697:4781   */\n      swap1\n      pop\n        /* \"#utility.yul\":3708:4788   */\n      swap10\n      swap9\n      pop\n      pop\n      pop\n      pop\n      pop\n      pop\n      pop\n      pop\n      pop\n      jump\t// out\n        /* \"#utility.yul\":4794:5323   */\n    tag_82:\n        /* \"#utility.yul\":4961:4965   */\n      0x00\n        /* \"#utility.yul\":4999:5001   */\n      0x60\n        /* \"#utility.yul\":4988:4997   */\n      dup3\n        /* \"#utility.yul\":4984:5002   */\n      add\n        /* \"#utility.yul\":4976:5002   */\n      swap1\n      pop\n        /* \"#utility.yul\":5012:5083   */\n      tag_272\n        /* \"#utility.yul\":5080:5081   */\n      0x00\n        /* \"#utility.yul\":5069:5078   */\n      dup4\n        /* \"#utility.yul\":5065:5082   */\n      add\n        /* \"#utility.yul\":5056:5062   */\n      dup7\n        /* \"#utility.yul\":5012:5083   */\n      tag_211\n      jump\t// in\n    tag_272:\n        /* \"#utility.yul\":5093:5165   */\n      tag_273\n        /* \"#utility.yul\":5161:5163   */\n      0x20\n        /* \"#utility.yul\":5150:5159   */\n      dup4\n        /* \"#utility.yul\":5146:5164   */\n      add\n        /* \"#utility.yul\":5137:5143   */\n      dup6\n        /* \"#utility.yul\":5093:5165   */\n      tag_250\n      jump\t// in\n    tag_273:\n        /* \"#utility.yul\":5212:5221   */\n      dup2\n        /* \"#utility.yul\":5206:5210   */\n      dup2\n        /* \"#utility.yul\":5202:5222   */\n      sub\n        /* \"#utility.yul\":5197:5199   */\n      0x40\n        /* \"#utility.yul\":5186:5195   */\n      dup4\n        /* \"#utility.yul\":5182:5200   */\n      add\n        /* \"#utility.yul\":5175:5223   */\n      mstore\n        /* \"#utility.yul\":5240:5316   */\n      tag_274\n        /* \"#utility.yul\":5311:5315   */\n      dup2\n        /* \"#utility.yul\":5302:5308   */\n      dup5\n        /* \"#utility.yul\":5240:5316   */\n      tag_223\n      jump\t// in\n    tag_274:\n        /* \"#utility.yul\":5232:5316   */\n      swap1\n      pop\n        /* \"#utility.yul\":4794:5323   */\n      swap5\n      swap4\n      pop\n      pop\n      pop\n      pop\n      jump\t// out\n        /* \"#utility.yul\":5329:5551   */\n    tag_13:\n        /* \"#utility.yul\":5422:5426   */\n      0x00\n        /* \"#utility.yul\":5460:5462   */\n      0x20\n        /* \"#utility.yul\":5449:5458   */\n      dup3\n        /* \"#utility.yul\":5445:5463   */\n      add\n        /* \"#utility.yul\":5437:5463   */\n      swap1\n      pop\n        /* \"#utility.yul\":5473:5544   */\n      tag_276\n        /* \"#utility.yul\":5541:5542   */\n      0x00\n        /* \"#utility.yul\":5530:5539   */\n      dup4\n        /* \"#utility.yul\":5526:5543   */\n      add\n        /* \"#utility.yul\":5517:5523   */\n      dup5\n        /* \"#utility.yul\":5473:5544   */\n      tag_215\n      jump\t// in\n    tag_276:\n        /* \"#utility.yul\":5329:5551   */\n      swap3\n      swap2\n      pop\n      pop\n      jump\t// out\n        /* \"#utility.yul\":5557:5976   */\n    tag_90:\n        /* \"#utility.yul\":5723:5727   */\n      0x00\n        /* \"#utility.yul\":5761:5763   */\n      0x20\n        /* \"#utility.yul\":5750:5759   */\n      dup3\n        /* \"#utility.yul\":5746:5764   */\n      add\n        /* \"#utility.yul\":5738:5764   */\n      swap1\n      pop\n        /* \"#utility.yul\":5810:5819   */\n      dup2\n        /* \"#utility.yul\":5804:5808   */\n      dup2\n        /* \"#utility.yul\":5800:5820   */\n      sub\n        /* \"#utility.yul\":5796:5797   */\n      0x00\n        /* \"#utility.yul\":5785:5794   */\n      dup4\n        /* \"#utility.yul\":5781:5798   */\n      add\n        /* \"#utility.yul\":5774:5821   */\n      mstore\n        /* \"#utility.yul\":5838:5969   */\n      tag_278\n        /* \"#utility.yul\":5964:5968   */\n      dup2\n        /* \"#utility.yul\":5838:5969   */\n      tag_239\n      jump\t// in\n    tag_278:\n        /* \"#utility.yul\":5830:5969   */\n      swap1\n      pop\n        /* \"#utility.yul\":5557:5976   */\n      swap2\n      swap1\n      pop\n      jump\t// out\n        /* \"#utility.yul\":5982:6401   */\n    tag_21:\n        /* \"#utility.yul\":6148:6152   */\n      0x00\n        /* \"#utility.yul\":6186:6188   */\n      0x20\n        /* \"#utility.yul\":6175:6184   */\n      dup3\n        /* \"#utility.yul\":6171:6189   */\n      add\n        /* \"#utility.yul\":6163:6189   */\n      swap1\n      pop\n        /* \"#utility.yul\":6235:6244   */\n      dup2\n        /* \"#utility.yul\":6229:6233   */\n      dup2\n        /* \"#utility.yul\":6225:6245   */\n      sub\n        /* \"#utility.yul\":6221:6222   */\n      0x00\n        /* \"#utility.yul\":6210:6219   */\n      dup4\n        /* \"#utility.yul\":6206:6223   */\n      add\n        /* \"#utility.yul\":6199:6246   */\n      mstore\n        /* \"#utility.yul\":6263:6394   */\n      tag_280\n        /* \"#utility.yul\":6389:6393   */\n      dup2\n        /* \"#utility.yul\":6263:6394   */\n      tag_245\n      jump\t// in\n    tag_280:\n        /* \"#utility.yul\":6255:6394   */\n      swap1\n      pop\n        /* \"#utility.yul\":5982:6401   */\n      swap2\n      swap1\n      pop\n      jump\t// out\n        /* \"#utility.yul\":6407:6629   */\n    tag_17:\n        /* \"#utility.yul\":6500:6504   */\n      0x00\n        /* \"#utility.yul\":6538:6540   */\n      0x20\n        /* \"#utility.yul\":6527:6536   */\n      dup3\n        /* \"#utility.yul\":6523:6541   */\n      add\n        /* \"#utility.yul\":6515:6541   */\n      swap1\n      pop\n        /* \"#utility.yul\":6551:6622   */\n      tag_282\n        /* \"#utility.yul\":6619:6620   */\n      0x00\n        /* \"#utility.yul\":6608:6617   */\n      dup4\n        /* \"#utility.yul\":6604:6621   */\n      add\n        /* \"#utility.yul\":6595:6601   */\n      dup5\n        /* \"#utility.yul\":6551:6622   */\n      tag_250\n      jump\t// in\n    tag_282:\n        /* \"#utility.yul\":6407:6629   */\n      swap3\n      swap2\n      pop\n      pop\n      jump\t// out\n        /* \"#utility.yul\":6716:6814   */\n    tag_226:\n        /* \"#utility.yul\":6767:6773   */\n      0x00\n        /* \"#utility.yul\":6801:6806   */\n      dup2\n        /* \"#utility.yul\":6795:6807   */\n      mload\n        /* \"#utility.yul\":6785:6807   */\n      swap1\n      pop\n        /* \"#utility.yul\":6716:6814   */\n      swap2\n      swap1\n      pop\n      jump\t// out\n        /* \"#utility.yul\":6820:6988   */\n    tag_228:\n        /* \"#utility.yul\":6903:6914   */\n      0x00\n        /* \"#utility.yul\":6937:6943   */\n      dup3\n        /* \"#utility.yul\":6932:6935   */\n      dup3\n        /* \"#utility.yul\":6925:6944   */\n      mstore\n        /* \"#utility.yul\":6977:6981   */\n      0x20\n        /* \"#utility.yul\":6972:6975   */\n      dup3\n        /* \"#utility.yul\":6968:6982   */\n      add\n        /* \"#utility.yul\":6953:6982   */\n      swap1\n      pop\n        /* \"#utility.yul\":6820:6988   */\n      swap3\n      swap2\n      pop\n      pop\n      jump\t// out\n        /* \"#utility.yul\":6994:7163   */\n    tag_242:\n        /* \"#utility.yul\":7078:7089   */\n      0x00\n        /* \"#utility.yul\":7112:7118   */\n      dup3\n        /* \"#utility.yul\":7107:7110   */\n      dup3\n        /* \"#utility.yul\":7100:7119   */\n      mstore\n        /* \"#utility.yul\":7152:7156   */\n      0x20\n        /* \"#utility.yul\":7147:7150   */\n      dup3\n        /* \"#utility.yul\":7143:7157   */\n      add\n        /* \"#utility.yul\":7128:7157   */\n      swap1\n      pop\n        /* \"#utility.yul\":6994:7163   */\n      swap3\n      swap2\n      pop\n      pop\n      jump\t// out\n        /* \"#utility.yul\":7169:7474   */\n    tag_49:\n        /* \"#utility.yul\":7209:7212   */\n      0x00\n        /* \"#utility.yul\":7228:7248   */\n      tag_289\n        /* \"#utility.yul\":7246:7247   */\n      dup3\n        /* \"#utility.yul\":7228:7248   */\n      tag_253\n      jump\t// in\n    tag_289:\n        /* \"#utility.yul\":7223:7248   */\n      swap2\n      pop\n        /* \"#utility.yul\":7262:7282   */\n      tag_290\n        /* \"#utility.yul\":7280:7281   */\n      dup4\n        /* \"#utility.yul\":7262:7282   */\n      tag_253\n      jump\t// in\n    tag_290:\n        /* \"#utility.yul\":7257:7282   */\n      swap3\n      pop\n        /* \"#utility.yul\":7416:7417   */\n      dup3\n        /* \"#utility.yul\":7348:7414   */\n      0xffffffffffffffffffffffffffffffffffffffffffffffffffffffffffffffff\n        /* \"#utility.yul\":7344:7418   */\n      sub\n        /* \"#utility.yul\":7341:7342   */\n      dup3\n        /* \"#utility.yul\":7338:7419   */\n      gt\n        /* \"#utility.yul\":7335:7442   */\n      iszero\n      tag_291\n      jumpi\n        /* \"#utility.yul\":7422:7440   */\n      tag_292\n      tag_293\n      jump\t// in\n    tag_292:\n        /* \"#utility.yul\":7335:7442   */\n    tag_291:\n        /* \"#utility.yul\":7466:7467   */\n      dup3\n        /* \"#utility.yul\":7463:7464   */\n      dup3\n        /* \"#utility.yul\":7459:7468   */\n      add\n        /* \"#utility.yul\":7452:7468   */\n      swap1\n      pop\n        /* \"#utility.yul\":7169:7474   */\n      swap3\n      swap2\n      pop\n      pop\n      jump\t// out\n        /* \"#utility.yul\":7480:8328   */\n    tag_294:\n        /* \"#utility.yul\":7541:7546   */\n      0x00\n        /* \"#utility.yul\":7548:7552   */\n      dup1\n        /* \"#utility.yul\":7572:7578   */\n      dup3\n        /* \"#utility.yul\":7563:7578   */\n      swap2\n      pop\n        /* \"#utility.yul\":7596:7601   */\n      dup4\n        /* \"#utility.yul\":7587:7601   */\n      swap1\n      pop\n        /* \"#utility.yul\":7610:8322   */\n    tag_296:\n        /* \"#utility.yul\":7631:7632   */\n      0x01\n        /* \"#utility.yul\":7621:7629   */\n      dup6\n        /* \"#utility.yul\":7618:7633   */\n      gt\n        /* \"#utility.yul\":7610:8322   */\n      iszero\n      tag_298\n      jumpi\n        /* \"#utility.yul\":7726:7730   */\n      dup1\n        /* \"#utility.yul\":7721:7724   */\n      dup7\n        /* \"#utility.yul\":7717:7731   */\n      div\n        /* \"#utility.yul\":7711:7715   */\n      dup2\n        /* \"#utility.yul\":7708:7732   */\n      gt\n        /* \"#utility.yul\":7705:7755   */\n      iszero\n      tag_299\n      jumpi\n        /* \"#utility.yul\":7735:7753   */\n      tag_300\n      tag_293\n      jump\t// in\n    tag_300:\n        /* \"#utility.yul\":7705:7755   */\n    tag_299:\n        /* \"#utility.yul\":7785:7786   */\n      0x01\n        /* \"#utility.yul\":7775:7783   */\n      dup6\n        /* \"#utility.yul\":7771:7787   */\n      and\n        /* \"#utility.yul\":7768:8219   */\n      iszero\n      tag_301\n      jumpi\n        /* \"#utility.yul\":8200:8204   */\n      dup1\n        /* \"#utility.yul\":8193:8198   */\n      dup3\n        /* \"#utility.yul\":8189:8205   */\n      mul\n        /* \"#utility.yul\":8180:8205   */\n      swap2\n      pop\n        /* \"#utility.yul\":7768:8219   */\n    tag_301:\n        /* \"#utility.yul\":8250:8254   */\n      dup1\n        /* \"#utility.yul\":8244:8248   */\n      dup2\n        /* \"#utility.yul\":8240:8255   */\n      mul\n        /* \"#utility.yul\":8232:8255   */\n      swap1\n      pop\n        /* \"#utility.yul\":8280:8312   */\n      tag_302\n        /* \"#utility.yul\":8303:8311   */\n      dup6\n        /* \"#utility.yul\":8280:8312   */\n      tag_303\n      jump\t// in\n    tag_302:\n        /* \"#utility.yul\":8268:8312   */\n      swap5\n      pop\n        /* \"#utility.yul\":7610:8322   */\n      jump(tag_296)\n    tag_298:\n        /* \"#utility.yul\":7480:8328   */\n      swap5\n      pop\n      swap5\n      swap3\n      pop\n      pop\n      pop\n      jump\t// out\n        /* \"#utility.yul\":8334:8619   */\n    tag_179:\n        /* \"#utility.yul\":8394:8399   */\n      0x00\n        /* \"#utility.yul\":8418:8441   */\n      tag_305\n        /* \"#utility.yul\":8436:8440   */\n      dup3\n        /* \"#utility.yul\":8418:8441   */\n      tag_253\n      jump\t// in\n    tag_305:\n        /* \"#utility.yul\":8410:8441   */\n      swap2\n      pop\n        /* \"#utility.yul\":8462:8489   */\n      tag_306\n        /* \"#utility.yul\":8480:8488   */\n      dup4\n        /* \"#utility.yul\":8462:8489   */\n      tag_253\n      jump\t// in\n    tag_306:\n        /* \"#utility.yul\":8450:8489   */\n      swap3\n      pop\n        /* \"#utility.yul\":8508:8612   */\n      tag_307\n        /* \"#utility.yul\":8545:8611   */\n      0xffffffffffffffffffffffffffffffffffffffffffffffffffffffffffffffff\n        /* \"#utility.yul\":8535:8543   */\n      dup5\n        /* \"#utility.yul\":8529:8533   */\n      dup5\n        /* \"#utility.yul\":8508:8612   */\n      tag_308\n      jump\t// in\n    tag_307:\n        /* \"#utility.yul\":8499:8612   */\n      swap1\n      pop\n        /* \"#utility.yul\":8334:8619   */\n      swap3\n      swap2\n      pop\n      pop\n      jump\t// out\n        /* \"#utility.yul\":8625:9698   */\n    tag_308:\n        /* \"#utility.yul\":8679:8684   */\n      0x00\n        /* \"#utility.yul\":8870:8878   */\n      dup3\n        /* \"#utility.yul\":8860:8900   */\n      tag_310\n      jumpi\n        /* \"#utility.yul\":8891:8892   */\n      0x01\n        /* \"#utility.yul\":8882:8892   */\n      swap1\n      pop\n        /* \"#utility.yul\":8893:8898   */\n      jump(tag_309)\n        /* \"#utility.yul\":8860:8900   */\n    tag_310:\n        /* \"#utility.yul\":8919:8923   */\n      dup2\n        /* \"#utility.yul\":8909:8945   */\n      tag_311\n      jumpi\n        /* \"#utility.yul\":8936:8937   */\n      0x00\n        /* \"#utility.yul\":8927:8937   */\n      swap1\n      pop\n        /* \"#utility.yul\":8938:8943   */\n      jump(tag_309)\n        /* \"#utility.yul\":8909:8945   */\n    tag_311:\n        /* \"#utility.yul\":9005:9009   */\n      dup2\n        /* \"#utility.yul\":9053:9054   */\n      0x01\n        /* \"#utility.yul\":9048:9075   */\n      dup2\n      eq\n      tag_313\n      jumpi\n        /* \"#utility.yul\":9089:9090   */\n      0x02\n        /* \"#utility.yul\":9084:9275   */\n      dup2\n      eq\n      tag_314\n      jumpi\n        /* \"#utility.yul\":8998:9275   */\n      jump(tag_312)\n        /* \"#utility.yul\":9048:9075   */\n    tag_313:\n        /* \"#utility.yul\":9066:9067   */\n      0x01\n        /* \"#utility.yul\":9057:9067   */\n      swap2\n      pop\n        /* \"#utility.yul\":9068:9073   */\n      pop\n      jump(tag_309)\n        /* \"#utility.yul\":9084:9275   */\n    tag_314:\n        /* \"#utility.yul\":9129:9132   */\n      0xff\n        /* \"#utility.yul\":9119:9127   */\n      dup5\n        /* \"#utility.yul\":9116:9133   */\n      gt\n        /* \"#utility.yul\":9113:9156   */\n      iszero\n      tag_315\n      jumpi\n        /* \"#utility.yul\":9136:9154   */\n      tag_316\n      tag_293\n      jump\t// in\n    tag_316:\n        /* \"#utility.yul\":9113:9156   */\n    tag_315:\n        /* \"#utility.yul\":9185:9193   */\n      dup4\n        /* \"#utility.yul\":9182:9183   */\n      0x02\n        /* \"#utility.yul\":9178:9194   */\n      exp\n        /* \"#utility.yul\":9169:9194   */\n      swap2\n      pop\n        /* \"#utility.yul\":9220:9223   */\n      dup5\n        /* \"#utility.yul\":9213:9218   */\n      dup3\n        /* \"#utility.yul\":9210:9224   */\n      gt\n        /* \"#utility.yul\":9207:9247   */\n      iszero\n      tag_317\n      jumpi\n        /* \"#utility.yul\":9227:9245   */\n      tag_318\n      tag_293\n      jump\t// in\n    tag_318:\n        /* \"#utility.yul\":9207:9247   */\n    tag_317:\n        /* \"#utility.yul\":9260:9265   */\n      pop\n      jump(tag_309)\n        /* \"#utility.yul\":8998:9275   */\n    tag_312:\n      pop\n        /* \"#utility.yul\":9384:9386   */\n      0x20\n        /* \"#utility.yul\":9374:9382   */\n      dup4\n        /* \"#utility.yul\":9371:9387   */\n      lt\n        /* \"#utility.yul\":9365:9368   */\n      0x0133\n        /* \"#utility.yul\":9359:9363   */\n      dup4\n        /* \"#utility.yul\":9356:9369   */\n      lt\n        /* \"#utility.yul\":9352:9388   */\n      and\n        /* \"#utility.yul\":9334:9336   */\n      0x4e\n        /* \"#utility.yul\":9324:9332   */\n      dup5\n        /* \"#utility.yul\":9321:9337   */\n      lt\n        /* \"#utility.yul\":9316:9318   */\n      0x0b\n        /* \"#utility.yul\":9310:9314   */\n      dup5\n        /* \"#utility.yul\":9307:9319   */\n      lt\n        /* \"#utility.yul\":9303:9338   */\n      and\n        /* \"#utility.yul\":9287:9398   */\n      or\n        /* \"#utility.yul\":9284:9530   */\n      iszero\n      tag_319\n      jumpi\n        /* \"#utility.yul\":9440:9448   */\n      dup3\n        /* \"#utility.yul\":9434:9438   */\n      dup3\n        /* \"#utility.yul\":9430:9449   */\n      exp\n        /* \"#utility.yul\":9421:9449   */\n      swap1\n      pop\n        /* \"#utility.yul\":9475:9478   */\n      dup4\n        /* \"#utility.yul\":9468:9473   */\n      dup2\n        /* \"#utility.yul\":9465:9479   */\n      gt\n        /* \"#utility.yul\":9462:9502   */\n      iszero\n      tag_320\n      jumpi\n        /* \"#utility.yul\":9482:9500   */\n      tag_321\n      tag_293\n      jump\t// in\n    tag_321:\n        /* \"#utility.yul\":9462:9502   */\n    tag_320:\n        /* \"#utility.yul\":9515:9520   */\n      jump(tag_309)\n        /* \"#utility.yul\":9284:9530   */\n    tag_319:\n        /* \"#utility.yul\":9555:9597   */\n      tag_322\n        /* \"#utility.yul\":9593:9596   */\n      dup5\n        /* \"#utility.yul\":9583:9591   */\n      dup5\n        /* \"#utility.yul\":9577:9581   */\n      dup5\n        /* \"#utility.yul\":9574:9575   */\n      0x01\n        /* \"#utility.yul\":9555:9597   */\n      tag_294\n      jump\t// in\n    tag_322:\n        /* \"#utility.yul\":9540:9597   */\n      swap3\n      pop\n      swap1\n      pop\n        /* \"#utility.yul\":9629:9633   */\n      dup2\n        /* \"#utility.yul\":9624:9627   */\n      dup5\n        /* \"#utility.yul\":9620:9634   */\n      div\n        /* \"#utility.yul\":9613:9618   */\n      dup2\n        /* \"#utility.yul\":9610:9635   */\n      gt\n        /* \"#utility.yul\":9607:9658   */\n      iszero\n      tag_323\n      jumpi\n        /* \"#utility.yul\":9638:9656   */\n      tag_324\n      tag_293\n      jump\t// in\n    tag_324:\n        /* \"#utility.yul\":9607:9658   */\n    tag_323:\n        /* \"#utility.yul\":9687:9691   */\n      dup2\n        /* \"#utility.yul\":9680:9685   */\n      dup2\n        /* \"#utility.yul\":9676:9692   */\n      mul\n        /* \"#utility.yul\":9667:9692   */\n      swap1\n      pop\n        /* \"#utility.yul\":8625:9698   */\n    tag_309:\n      swap4\n      swap3\n      pop\n      pop\n      pop\n      jump\t// out\n        /* \"#utility.yul\":9704:10052   */\n    tag_153:\n        /* \"#utility.yul\":9744:9751   */\n      0x00\n        /* \"#utility.yul\":9767:9787   */\n      tag_326\n        /* \"#utility.yul\":9785:9786   */\n      dup3\n        /* \"#utility.yul\":9767:9787   */\n      tag_253\n      jump\t// in\n    tag_326:\n        /* \"#utility.yul\":9762:9787   */\n      swap2\n      pop\n        /* \"#utility.yul\":9801:9821   */\n      tag_327\n        /* \"#utility.yul\":9819:9820   */\n      dup4\n        /* \"#utility.yul\":9801:9821   */\n      tag_253\n      jump\t// in\n    tag_327:\n        /* \"#utility.yul\":9796:9821   */\n      swap3\n      pop\n        /* \"#utility.yul\":9989:9990   */\n      dup2\n        /* \"#utility.yul\":9921:9987   */\n      0xffffffffffffffffffffffffffffffffffffffffffffffffffffffffffffffff\n        /* \"#utility.yul\":9917:9991   */\n      div\n        /* \"#utility.yul\":9914:9915   */\n      dup4\n        /* \"#utility.yul\":9911:9992   */\n      gt\n        /* \"#utility.yul\":9906:9907   */\n      dup3\n        /* \"#utility.yul\":9899:9908   */\n      iszero\n        /* \"#utility.yul\":9892:9909   */\n      iszero\n        /* \"#utility.yul\":9888:9993   */\n      and\n        /* \"#utility.yul\":9885:10016   */\n      iszero\n      tag_328\n      jumpi\n        /* \"#utility.yul\":9996:10014   */\n      tag_329\n      tag_293\n      jump\t// in\n    tag_329:\n        /* \"#utility.yul\":9885:10016   */\n    tag_328:\n        /* \"#utility.yul\":10044:10045   */\n      dup3\n        /* \"#utility.yul\":10041:10042   */\n      dup3\n        /* \"#utility.yul\":10037:10046   */\n      mul\n        /* \"#utility.yul\":10026:10046   */\n      swap1\n      pop\n        /* \"#utility.yul\":9704:10052   */\n      swap3\n      swap2\n      pop\n      pop\n      jump\t// out\n        /* \"#utility.yul\":10058:10585   */\n    tag_77:\n        /* \"#utility.yul\":10097:10101   */\n      0x00\n        /* \"#utility.yul\":10117:10136   */\n      tag_331\n        /* \"#utility.yul\":10134:10135   */\n      dup3\n        /* \"#utility.yul\":10117:10136   */\n      tag_332\n      jump\t// in\n    tag_331:\n        /* \"#utility.yul\":10112:10136   */\n      swap2\n      pop\n        /* \"#utility.yul\":10150:10169   */\n      tag_333\n        /* \"#utility.yul\":10167:10168   */\n      dup4\n        /* \"#utility.yul\":10150:10169   */\n      tag_332\n      jump\t// in\n    tag_333:\n        /* \"#utility.yul\":10145:10169   */\n      swap3\n      pop\n        /* \"#utility.yul\":10339:10340   */\n      dup3\n        /* \"#utility.yul\":10271:10337   */\n      0x8000000000000000000000000000000000000000000000000000000000000000\n        /* \"#utility.yul\":10267:10341   */\n      add\n        /* \"#utility.yul\":10264:10265   */\n      dup3\n        /* \"#utility.yul\":10260:10342   */\n      slt\n        /* \"#utility.yul\":10255:10256   */\n      0x00\n        /* \"#utility.yul\":10252:10253   */\n      dup5\n        /* \"#utility.yul\":10248:10257   */\n      slt\n        /* \"#utility.yul\":10241:10258   */\n      iszero\n        /* \"#utility.yul\":10237:10343   */\n      and\n        /* \"#utility.yul\":10234:10366   */\n      iszero\n      tag_334\n      jumpi\n        /* \"#utility.yul\":10346:10364   */\n      tag_335\n      tag_293\n      jump\t// in\n    tag_335:\n        /* \"#utility.yul\":10234:10366   */\n    tag_334:\n        /* \"#utility.yul\":10525:10526   */\n      dup3\n        /* \"#utility.yul\":10457:10523   */\n      0x7fffffffffffffffffffffffffffffffffffffffffffffffffffffffffffffff\n        /* \"#utility.yul\":10453:10527   */\n      add\n        /* \"#utility.yul\":10450:10451   */\n      dup3\n        /* \"#utility.yul\":10446:10528   */\n      sgt\n        /* \"#utility.yul\":10442:10443   */\n      0x00\n        /* \"#utility.yul\":10439:10440   */\n      dup5\n        /* \"#utility.yul\":10435:10444   */\n      slt\n        /* \"#utility.yul\":10431:10529   */\n      and\n        /* \"#utility.yul\":10428:10552   */\n      iszero\n      tag_336\n      jumpi\n        /* \"#utility.yul\":10532:10550   */\n      tag_337\n      tag_293\n      jump\t// in\n    tag_337:\n        /* \"#utility.yul\":10428:10552   */\n    tag_336:\n        /* \"#utility.yul\":10577:10578   */\n      dup3\n        /* \"#utility.yul\":10574:10575   */\n      dup3\n        /* \"#utility.yul\":10570:10579   */\n      sub\n        /* \"#utility.yul\":10562:10579   */\n      swap1\n      pop\n        /* \"#utility.yul\":10058:10585   */\n      swap3\n      swap2\n      pop\n      pop\n      jump\t// out\n        /* \"#utility.yul\":10591:10782   */\n    tag_99:\n        /* \"#utility.yul\":10631:10635   */\n      0x00\n        /* \"#utility.yul\":10651:10671   */\n      tag_339\n        /* \"#utility.yul\":10669:10670   */\n      dup3\n        /* \"#utility.yul\":10651:10671   */\n      tag_253\n      jump\t// in\n    tag_339:\n        /* \"#utility.yul\":10646:10671   */\n      swap2\n      pop\n        /* \"#utility.yul\":10685:10705   */\n      tag_340\n        /* \"#utility.yul\":10703:10704   */\n      dup4\n        /* \"#utility.yul\":10685:10705   */\n      tag_253\n      jump\t// in\n    tag_340:\n        /* \"#utility.yul\":10680:10705   */\n      swap3\n      pop\n        /* \"#utility.yul\":10724:10725   */\n      dup3\n        /* \"#utility.yul\":10721:10722   */\n      dup3\n        /* \"#utility.yul\":10718:10726   */\n      lt\n        /* \"#utility.yul\":10715:10749   */\n      iszero\n      tag_341\n      jumpi\n        /* \"#utility.yul\":10729:10747   */\n      tag_342\n      tag_293\n      jump\t// in\n    tag_342:\n        /* \"#utility.yul\":10715:10749   */\n    tag_341:\n        /* \"#utility.yul\":10774:10775   */\n      dup3\n        /* \"#utility.yul\":10771:10772   */\n      dup3\n        /* \"#utility.yul\":10767:10776   */\n      sub\n        /* \"#utility.yul\":10759:10776   */\n      swap1\n      pop\n        /* \"#utility.yul\":10591:10782   */\n      swap3\n      swap2\n      pop\n      pop\n      jump\t// out\n        /* \"#utility.yul\":10788:10884   */\n    tag_214:\n        /* \"#utility.yul\":10825:10832   */\n      0x00\n        /* \"#utility.yul\":10854:10878   */\n      tag_344\n        /* \"#utility.yul\":10872:10877   */\n      dup3\n        /* \"#utility.yul\":10854:10878   */\n      tag_345\n      jump\t// in\n    tag_344:\n        /* \"#utility.yul\":10843:10878   */\n      swap1\n      pop\n        /* \"#utility.yul\":10788:10884   */\n      swap2\n      swap1\n      pop\n      jump\t// out\n        /* \"#utility.yul\":10890:10980   */\n    tag_346:\n        /* \"#utility.yul\":10924:10931   */\n      0x00\n        /* \"#utility.yul\":10967:10972   */\n      dup2\n        /* \"#utility.yul\":10960:10973   */\n      iszero\n        /* \"#utility.yul\":10953:10974   */\n      iszero\n        /* \"#utility.yul\":10942:10974   */\n      swap1\n      pop\n        /* \"#utility.yul\":10890:10980   */\n      swap2\n      swap1\n      pop\n      jump\t// out\n        /* \"#utility.yul\":10986:11063   */\n    tag_218:\n        /* \"#utility.yul\":11023:11030   */\n      0x00\n        /* \"#utility.yul\":11052:11057   */\n      dup2\n        /* \"#utility.yul\":11041:11057   */\n      swap1\n      pop\n        /* \"#utility.yul\":10986:11063   */\n      swap2\n      swap1\n      pop\n      jump\t// out\n        /* \"#utility.yul\":11069:11218   */\n    tag_222:\n        /* \"#utility.yul\":11105:11112   */\n      0x00\n        /* \"#utility.yul\":11145:11211   */\n      0xffffffff00000000000000000000000000000000000000000000000000000000\n        /* \"#utility.yul\":11138:11143   */\n      dup3\n        /* \"#utility.yul\":11134:11212   */\n      and\n        /* \"#utility.yul\":11123:11212   */\n      swap1\n      pop\n        /* \"#utility.yul\":11069:11218   */\n      swap2\n      swap1\n      pop\n      jump\t// out\n        /* \"#utility.yul\":11224:11300   */\n    tag_332:\n        /* \"#utility.yul\":11260:11267   */\n      0x00\n        /* \"#utility.yul\":11289:11294   */\n      dup2\n        /* \"#utility.yul\":11278:11294   */\n      swap1\n      pop\n        /* \"#utility.yul\":11224:11300   */\n      swap2\n      swap1\n      pop\n      jump\t// out\n        /* \"#utility.yul\":11306:11432   */\n    tag_345:\n        /* \"#utility.yul\":11343:11350   */\n      0x00\n        /* \"#utility.yul\":11383:11425   */\n      0xffffffffffffffffffffffffffffffffffffffff\n        /* \"#utility.yul\":11376:11381   */\n      dup3\n        /* \"#utility.yul\":11372:11426   */\n      and\n        /* \"#utility.yul\":11361:11426   */\n      swap1\n      pop\n        /* \"#utility.yul\":11306:11432   */\n      swap2\n      swap1\n      pop\n      jump\t// out\n        /* \"#utility.yul\":11438:11515   */\n    tag_253:\n        /* \"#utility.yul\":11475:11482   */\n      0x00\n        /* \"#utility.yul\":11504:11509   */\n      dup2\n        /* \"#utility.yul\":11493:11509   */\n      swap1\n      pop\n        /* \"#utility.yul\":11438:11515   */\n      swap2\n      swap1\n      pop\n      jump\t// out\n        /* \"#utility.yul\":11521:11670   */\n    tag_237:\n        /* \"#utility.yul\":11594:11603   */\n      0x00\n        /* \"#utility.yul\":11627:11664   */\n      tag_354\n        /* \"#utility.yul\":11658:11663   */\n      dup3\n        /* \"#utility.yul\":11627:11664   */\n      tag_355\n      jump\t// in\n    tag_354:\n        /* \"#utility.yul\":11614:11664   */\n      swap1\n      pop\n        /* \"#utility.yul\":11521:11670   */\n      swap2\n      swap1\n      pop\n      jump\t// out\n        /* \"#utility.yul\":11676:11802   */\n    tag_355:\n        /* \"#utility.yul\":11726:11735   */\n      0x00\n        /* \"#utility.yul\":11759:11796   */\n      tag_357\n        /* \"#utility.yul\":11790:11795   */\n      dup3\n        /* \"#utility.yul\":11759:11796   */\n      tag_358\n      jump\t// in\n    tag_357:\n        /* \"#utility.yul\":11746:11796   */\n      swap1\n      pop\n        /* \"#utility.yul\":11676:11802   */\n      swap2\n      swap1\n      pop\n      jump\t// out\n        /* \"#utility.yul\":11808:11921   */\n    tag_358:\n        /* \"#utility.yul\":11858:11867   */\n      0x00\n        /* \"#utility.yul\":11891:11915   */\n      tag_360\n        /* \"#utility.yul\":11909:11914   */\n      dup3\n        /* \"#utility.yul\":11891:11915   */\n      tag_345\n      jump\t// in\n    tag_360:\n        /* \"#utility.yul\":11878:11915   */\n      swap1\n      pop\n        /* \"#utility.yul\":11808:11921   */\n      swap2\n      swap1\n      pop\n      jump\t// out\n        /* \"#utility.yul\":11927:12234   */\n    tag_230:\n        /* \"#utility.yul\":11995:11996   */\n      0x00\n        /* \"#utility.yul\":12005:12118   */\n    tag_362:\n        /* \"#utility.yul\":12019:12025   */\n      dup4\n        /* \"#utility.yul\":12016:12017   */\n      dup2\n        /* \"#utility.yul\":12013:12026   */\n      lt\n        /* \"#utility.yul\":12005:12118   */\n      iszero\n      tag_364\n      jumpi\n        /* \"#utility.yul\":12104:12105   */\n      dup1\n        /* \"#utility.yul\":12099:12102   */\n      dup3\n        /* \"#utility.yul\":12095:12106   */\n      add\n        /* \"#utility.yul\":12089:12107   */\n      mload\n        /* \"#utility.yul\":12085:12086   */\n      dup2\n        /* \"#utility.yul\":12080:12083   */\n      dup5\n        /* \"#utility.yul\":12076:12087   */\n      add\n        /* \"#utility.yul\":12069:12108   */\n      mstore\n        /* \"#utility.yul\":12041:12043   */\n      0x20\n        /* \"#utility.yul\":12038:12039   */\n      dup2\n        /* \"#utility.yul\":12034:12044   */\n      add\n        /* \"#utility.yul\":12029:12044   */\n      swap1\n      pop\n        /* \"#utility.yul\":12005:12118   */\n      jump(tag_362)\n    tag_364:\n        /* \"#utility.yul\":12136:12142   */\n      dup4\n        /* \"#utility.yul\":12133:12134   */\n      dup2\n        /* \"#utility.yul\":12130:12143   */\n      gt\n        /* \"#utility.yul\":12127:12228   */\n      iszero\n      tag_365\n      jumpi\n        /* \"#utility.yul\":12216:12217   */\n      0x00\n        /* \"#utility.yul\":12207:12213   */\n      dup5\n        /* \"#utility.yul\":12202:12205   */\n      dup5\n        /* \"#utility.yul\":12198:12214   */\n      add\n        /* \"#utility.yul\":12191:12218   */\n      mstore\n        /* \"#utility.yul\":12127:12228   */\n    tag_365:\n        /* \"#utility.yul\":11976:12234   */\n      pop\n        /* \"#utility.yul\":11927:12234   */\n      pop\n      pop\n      pop\n      jump\t// out\n        /* \"#utility.yul\":12240:12340   */\n    tag_238:\n        /* \"#utility.yul\":12279:12286   */\n      0x00\n        /* \"#utility.yul\":12308:12334   */\n      tag_367\n        /* \"#utility.yul\":12328:12333   */\n      dup3\n        /* \"#utility.yul\":12308:12334   */\n      tag_368\n      jump\t// in\n    tag_367:\n        /* \"#utility.yul\":12297:12334   */\n      swap1\n      pop\n        /* \"#utility.yul\":12240:12340   */\n      swap2\n      swap1\n      pop\n      jump\t// out\n        /* \"#utility.yul\":12346:12440   */\n    tag_368:\n        /* \"#utility.yul\":12385:12392   */\n      0x00\n        /* \"#utility.yul\":12414:12434   */\n      tag_370\n        /* \"#utility.yul\":12428:12433   */\n      dup3\n        /* \"#utility.yul\":12414:12434   */\n      tag_371\n      jump\t// in\n    tag_370:\n        /* \"#utility.yul\":12403:12434   */\n      swap1\n      pop\n        /* \"#utility.yul\":12346:12440   */\n      swap2\n      swap1\n      pop\n      jump\t// out\n        /* \"#utility.yul\":12446:12525   */\n    tag_258:\n        /* \"#utility.yul\":12485:12492   */\n      0x00\n        /* \"#utility.yul\":12514:12519   */\n      dup2\n        /* \"#utility.yul\":12503:12519   */\n      swap1\n      pop\n        /* \"#utility.yul\":12446:12525   */\n      swap2\n      swap1\n      pop\n      jump\t// out\n        /* \"#utility.yul\":12531:12707   */\n    tag_95:\n        /* \"#utility.yul\":12563:12564   */\n      0x00\n        /* \"#utility.yul\":12580:12600   */\n      tag_374\n        /* \"#utility.yul\":12598:12599   */\n      dup3\n        /* \"#utility.yul\":12580:12600   */\n      tag_253\n      jump\t// in\n    tag_374:\n        /* \"#utility.yul\":12575:12600   */\n      swap2\n      pop\n        /* \"#utility.yul\":12614:12634   */\n      tag_375\n        /* \"#utility.yul\":12632:12633   */\n      dup4\n        /* \"#utility.yul\":12614:12634   */\n      tag_253\n      jump\t// in\n    tag_375:\n        /* \"#utility.yul\":12609:12634   */\n      swap3\n      pop\n        /* \"#utility.yul\":12653:12654   */\n      dup3\n        /* \"#utility.yul\":12643:12678   */\n      tag_376\n      jumpi\n        /* \"#utility.yul\":12658:12676   */\n      tag_377\n      tag_378\n      jump\t// in\n    tag_377:\n        /* \"#utility.yul\":12643:12678   */\n    tag_376:\n        /* \"#utility.yul\":12699:12700   */\n      dup3\n        /* \"#utility.yul\":12696:12697   */\n      dup3\n        /* \"#utility.yul\":12692:12701   */\n      mod\n        /* \"#utility.yul\":12687:12701   */\n      swap1\n      pop\n        /* \"#utility.yul\":12531:12707   */\n      swap3\n      swap2\n      pop\n      pop\n      jump\t// out\n        /* \"#utility.yul\":12713:12893   */\n    tag_293:\n        /* \"#utility.yul\":12761:12838   */\n      0x4e487b7100000000000000000000000000000000000000000000000000000000\n        /* \"#utility.yul\":12758:12759   */\n      0x00\n        /* \"#utility.yul\":12751:12839   */\n      mstore\n        /* \"#utility.yul\":12858:12862   */\n      0x11\n        /* \"#utility.yul\":12855:12856   */\n      0x04\n        /* \"#utility.yul\":12848:12863   */\n      mstore\n        /* \"#utility.yul\":12882:12886   */\n      0x24\n        /* \"#utility.yul\":12879:12880   */\n      0x00\n        /* \"#utility.yul\":12872:12887   */\n      revert\n        /* \"#utility.yul\":12899:13079   */\n    tag_378:\n        /* \"#utility.yul\":12947:13024   */\n      0x4e487b7100000000000000000000000000000000000000000000000000000000\n        /* \"#utility.yul\":12944:12945   */\n      0x00\n        /* \"#utility.yul\":12937:13025   */\n      mstore\n        /* \"#utility.yul\":13044:13048   */\n      0x12\n        /* \"#utility.yul\":13041:13042   */\n      0x04\n        /* \"#utility.yul\":13034:13049   */\n      mstore\n        /* \"#utility.yul\":13068:13072   */\n      0x24\n        /* \"#utility.yul\":13065:13066   */\n      0x00\n        /* \"#utility.yul\":13058:13073   */\n      revert\n        /* \"#utility.yul\":13208:13325   */\n    tag_204:\n        /* \"#utility.yul\":13317:13318   */\n      0x00\n        /* \"#utility.yul\":13314:13315   */\n      dup1\n        /* \"#utility.yul\":13307:13319   */\n      revert\n        /* \"#utility.yul\":13331:13433   */\n    tag_232:\n        /* \"#utility.yul\":13372:13378   */\n      0x00\n        /* \"#utility.yul\":13423:13425   */\n      0x1f\n        /* \"#utility.yul\":13419:13426   */\n      not\n        /* \"#utility.yul\":13414:13416   */\n      0x1f\n        /* \"#utility.yul\":13407:13412   */\n      dup4\n        /* \"#utility.yul\":13403:13417   */\n      add\n        /* \"#utility.yul\":13399:13427   */\n      and\n        /* \"#utility.yul\":13389:13427   */\n      swap1\n      pop\n        /* \"#utility.yul\":13331:13433   */\n      swap2\n      swap1\n      pop\n      jump\t// out\n        /* \"#utility.yul\":13439:13533   */\n    tag_371:\n        /* \"#utility.yul\":13472:13480   */\n      0x00\n        /* \"#utility.yul\":13520:13525   */\n      dup2\n        /* \"#utility.yul\":13516:13518   */\n      0x60\n        /* \"#utility.yul\":13512:13526   */\n      shl\n        /* \"#utility.yul\":13491:13526   */\n      swap1\n      pop\n        /* \"#utility.yul\":13439:13533   */\n      swap2\n      swap1\n      pop\n      jump\t// out\n        /* \"#utility.yul\":13539:13641   */\n    tag_303:\n        /* \"#utility.yul\":13581:13589   */\n      0x00\n        /* \"#utility.yul\":13628:13633   */\n      dup2\n        /* \"#utility.yul\":13625:13626   */\n      0x01\n        /* \"#utility.yul\":13621:13634   */\n      shr\n        /* \"#utility.yul\":13600:13634   */\n      swap1\n      pop\n        /* \"#utility.yul\":13539:13641   */\n      swap2\n      swap1\n      pop\n      jump\t// out\n        /* \"#utility.yul\":13647:13869   */\n    tag_244:\n        /* \"#utility.yul\":13787:13821   */\n      0x756e61626c6520746f207472616e73666572416e6443616c6c20746f206f7261\n        /* \"#utility.yul\":13783:13784   */\n      0x00\n        /* \"#utility.yul\":13775:13781   */\n      dup3\n        /* \"#utility.yul\":13771:13785   */\n      add\n        /* \"#utility.yul\":13764:13822   */\n      mstore\n        /* \"#utility.yul\":13856:13861   */\n      0x636c650000000000000000000000000000000000000000000000000000000000\n        /* \"#utility.yul\":13851:13853   */\n      0x20\n        /* \"#utility.yul\":13843:13849   */\n      dup3\n        /* \"#utility.yul\":13839:13854   */\n      add\n        /* \"#utility.yul\":13832:13862   */\n      mstore\n        /* \"#utility.yul\":13647:13869   */\n      pop\n      jump\t// out\n        /* \"#utility.yul\":13875:14102   */\n    tag_249:\n        /* \"#utility.yul\":14015:14049   */\n      0x536f75726365206d75737420626520746865206f7261636c65206f6620746865\n        /* \"#utility.yul\":14011:14012   */\n      0x00\n        /* \"#utility.yul\":14003:14009   */\n      dup3\n        /* \"#utility.yul\":13999:14013   */\n      add\n        /* \"#utility.yul\":13992:14050   */\n      mstore\n        /* \"#utility.yul\":14084:14094   */\n      0x2072657175657374000000000000000000000000000000000000000000000000\n        /* \"#utility.yul\":14079:14081   */\n      0x20\n        /* \"#utility.yul\":14071:14077   */\n      dup3\n        /* \"#utility.yul\":14067:14082   */\n      add\n        /* \"#utility.yul\":14060:14095   */\n      mstore\n        /* \"#utility.yul\":13875:14102   */\n      pop\n      jump\t// out\n        /* \"#utility.yul\":14108:14224   */\n    tag_192:\n        /* \"#utility.yul\":14178:14199   */\n      tag_390\n        /* \"#utility.yul\":14193:14198   */\n      dup2\n        /* \"#utility.yul\":14178:14199   */\n      tag_346\n      jump\t// in\n    tag_390:\n        /* \"#utility.yul\":14171:14176   */\n      dup2\n        /* \"#utility.yul\":14168:14200   */\n      eq\n        /* \"#utility.yul\":14158:14218   */\n      tag_391\n      jumpi\n        /* \"#utility.yul\":14214:14215   */\n      0x00\n        /* \"#utility.yul\":14211:14212   */\n      dup1\n        /* \"#utility.yul\":14204:14216   */\n      revert\n        /* \"#utility.yul\":14158:14218   */\n    tag_391:\n        /* \"#utility.yul\":14108:14224   */\n      pop\n      jump\t// out\n        /* \"#utility.yul\":14230:14352   */\n    tag_196:\n        /* \"#utility.yul\":14303:14327   */\n      tag_393\n        /* \"#utility.yul\":14321:14326   */\n      dup2\n        /* \"#utility.yul\":14303:14327   */\n      tag_218\n      jump\t// in\n    tag_393:\n        /* \"#utility.yul\":14296:14301   */\n      dup2\n        /* \"#utility.yul\":14293:14328   */\n      eq\n        /* \"#utility.yul\":14283:14346   */\n      tag_394\n      jumpi\n        /* \"#utility.yul\":14342:14343   */\n      0x00\n        /* \"#utility.yul\":14339:14340   */\n      dup1\n        /* \"#utility.yul\":14332:14344   */\n      revert\n        /* \"#utility.yul\":14283:14346   */\n    tag_394:\n        /* \"#utility.yul\":14230:14352   */\n      pop\n      jump\t// out\n        /* \"#utility.yul\":14358:14480   */\n    tag_200:\n        /* \"#utility.yul\":14431:14455   */\n      tag_396\n        /* \"#utility.yul\":14449:14454   */\n      dup2\n        /* \"#utility.yul\":14431:14455   */\n      tag_253\n      jump\t// in\n    tag_396:\n        /* \"#utility.yul\":14424:14429   */\n      dup2\n        /* \"#utility.yul\":14421:14456   */\n      eq\n        /* \"#utility.yul\":14411:14474   */\n      tag_397\n      jumpi\n        /* \"#utility.yul\":14470:14471   */\n      0x00\n        /* \"#utility.yul\":14467:14468   */\n      dup1\n        /* \"#utility.yul\":14460:14472   */\n      revert\n        /* \"#utility.yul\":14411:14474   */\n    tag_397:\n        /* \"#utility.yul\":14358:14480   */\n      pop\n      jump\t// out\n    stop\n    data_f3fa6b402eb4c49347f9ac6c8c8e0baf0eacaf39bcd59583feb12d9b90720124 68747470733a2f2f6d696e2d6170692e63727970746f636f6d706172652e636f6d2f646174612f70726963656d756c746966756c6c3f6673796d733d455448267473796d733d555344\n\n    auxdata: 0xa26469706673582212203b52d02d7bbad7b4ac3509d7c399a3080c425d83b64f7a57ad6867ea3d94984064736f6c63430008070033\n}\n",
				"bytecode": {
					"linkReferences": {},
					"object": "608060405260016004553480156200001657600080fd5b5062000027620000b860201b60201c565b73c57b33452b4f7bb189bb5afae9cc4aba1f7a4fd8600760006101000a81548173ffffffffffffffffffffffffffffffffffffffff021916908373ffffffffffffffffffffffffffffffffffffffff1602179055507f643532373064316333313139343164306230386265616432316665613737343760088190555067016345785d8a000060098190555062000240565b6200015e73c89bd4e1632d3a43cb03aaad5262cbe4038bc57173ffffffffffffffffffffffffffffffffffffffff166338cc48316040518163ffffffff1660e01b815260040160206040518083038186803b1580156200011757600080fd5b505afa1580156200012c573d6000803e3d6000fd5b505050506040513d601f19601f82011682018060405250810190620001529190620001bb565b6200016060201b60201c565b565b80600260006101000a81548173ffffffffffffffffffffffffffffffffffffffff021916908373ffffffffffffffffffffffffffffffffffffffff16021790555050565b600081519050620001b58162000226565b92915050565b600060208284031215620001d457620001d362000221565b5b6000620001e484828501620001a4565b91505092915050565b6000620001fa8262000201565b9050919050565b600073ffffffffffffffffffffffffffffffffffffffff82169050919050565b600080fd5b6200023181620001ed565b81146200023d57600080fd5b50565b6116eb80620002506000396000f3fe608060405234801561001057600080fd5b50600436106100415760003560e01c80634357855e146100465780636021abac14610062578063c618a1e414610080575b600080fd5b610060600480360381019061005b9190610e07565b61009e565b005b61006a6101af565b604051610077919061101f565b60405180910390f35b610088610336565b604051610095919061107a565b60405180910390f35b816005600082815260200190815260200160002060009054906101000a900473ffffffffffffffffffffffffffffffffffffffff1673ffffffffffffffffffffffffffffffffffffffff163373ffffffffffffffffffffffffffffffffffffffff1614610140576040517f08c379a00000000000000000000000000000000000000000000000000000000081526004016101379061105a565b60405180910390fd5b6005600082815260200190815260200160002060006101000a81549073ffffffffffffffffffffffffffffffffffffffff0219169055807f7cc135e0cebb02c3480ae5d74d377283180a2601f8f644edf7987b009316c63a60405160405180910390a281600681905550505050565b6000806101c660085430634357855e60e01b61033c565b905061022a6040518060400160405280600381526020017f676574000000000000000000000000000000000000000000000000000000000081525060405180608001604052806049815260200161166d604991398361036d9092919063ffffffff16565b6102a96040518060400160405280600481526020017f70617468000000000000000000000000000000000000000000000000000000008152506040518060400160405280601881526020017f5241572c4554482c5553442c564f4c554d453234484f555200000000000000008152508361036d9092919063ffffffff16565b6000670de0b6b3a764000090506103006040518060400160405280600581526020017f74696d657300000000000000000000000000000000000000000000000000000081525082846103a09092919063ffffffff16565b61032f600760009054906101000a900473ffffffffffffffffffffffffffffffffffffffff16836009546103d3565b9250505090565b60065481565b610344610d14565b61034c610d14565b6103638585858461049f909392919063ffffffff16565b9150509392505050565b61038482846080015161054f90919063ffffffff16565b61039b81846080015161054f90919063ffffffff16565b505050565b6103b782846080015161054f90919063ffffffff16565b6103ce81846080015161057490919063ffffffff16565b505050565b60008060045490506001816103e891906110c2565b6004819055506000634042994660e01b60008087600001513089604001518760018c6080015160000151604051602401610429989796959493929190610f5c565b604051602081830303815290604052907bffffffffffffffffffffffffffffffffffffffffffffffffffffffff19166020820180517bffffffffffffffffffffffffffffffffffffffffffffffffffffffff8381831617835250505050905061049486838684610621565b925050509392505050565b6104a7610d14565b6104b785608001516101006107c5565b508385600001818152505082856020019073ffffffffffffffffffffffffffffffffffffffff16908173ffffffffffffffffffffffffffffffffffffffff16815250508185604001907bffffffffffffffffffffffffffffffffffffffffffffffffffffffff191690817bffffffffffffffffffffffffffffffffffffffffffffffffffffffff191681525050849050949350505050565b61055c826003835161082f565b61056f81836109b490919063ffffffff16565b505050565b7fffffffffffffffffffffffffffffffffffffffffffffffff00000000000000008112156105ab576105a682826109d6565b61061d565b67ffffffffffffffff8113156105ca576105c58282610a4d565b61061c565b600081126105e3576105de8260008361082f565b61061b565b61061a826001837fffffffffffffffffffffffffffffffffffffffffffffffffffffffffffffffff61061591906112e3565b61082f565b5b5b5b5050565b60003084604051602001610636929190610f30565b604051602081830303815290604052805190602001209050846005600083815260200190815260200160002060006101000a81548173ffffffffffffffffffffffffffffffffffffffff021916908373ffffffffffffffffffffffffffffffffffffffff160217905550807fb5e6e01e79f91267dc17b4e6314d5d4d03593d2ceee0fbb452b750bd70ea5af960405160405180910390a2600260009054906101000a900473ffffffffffffffffffffffffffffffffffffffff1673ffffffffffffffffffffffffffffffffffffffff16634000aea08685856040518463ffffffff1660e01b815260040161072c93929190610fe1565b602060405180830381600087803b15801561074657600080fd5b505af115801561075a573d6000803e3d6000fd5b505050506040513d601f19601f8201168201806040525081019061077e9190610dda565b6107bd576040517f08c379a00000000000000000000000000000000000000000000000000000000081526004016107b49061103a565b60405180910390fd5b949350505050565b6107cd610d81565b60006020836107dc91906114ca565b14610808576020826107ee91906114ca565b60206107fa9190611377565b8261080591906110c2565b91505b81836020018181525050604051808452600081528281016020016040525082905092915050565b60178167ffffffffffffffff1611610866576108608160058460ff16901b60ff161784610a9990919063ffffffff16565b506109af565b60ff8167ffffffffffffffff16116108bc57610895601860058460ff16901b1784610a9990919063ffffffff16565b506108b68167ffffffffffffffff16600185610ab99092919063ffffffff16565b506109ae565b61ffff8167ffffffffffffffff1611610913576108ec601960058460ff16901b1784610a9990919063ffffffff16565b5061090d8167ffffffffffffffff16600285610ab99092919063ffffffff16565b506109ad565b63ffffffff8167ffffffffffffffff161161096c57610945601a60058460ff16901b1784610a9990919063ffffffff16565b506109668167ffffffffffffffff16600485610ab99092919063ffffffff16565b506109ac565b610989601b60058460ff16901b1784610a9990919063ffffffff16565b506109aa8167ffffffffffffffff16600885610ab99092919063ffffffff16565b505b5b5b5b505050565b6109bc610d81565b6109ce83846000015151848551610adb565b905092915050565b6109f460036005600660ff16901b1783610a9990919063ffffffff16565b50610a4982827fffffffffffffffffffffffffffffffffffffffffffffffffffffffffffffffff610a2591906112e3565b604051602001610a35919061107a565b604051602081830303815290604052610bca565b5050565b610a6b60026005600660ff16901b1783610a9990919063ffffffff16565b50610a958282604051602001610a81919061107a565b604051602081830303815290604052610bca565b5050565b610aa1610d81565b610ab18384600001515184610bef565b905092915050565b610ac1610d81565b610ad2848560000151518585610c46565b90509392505050565b610ae3610d81565b8251821115610af157600080fd5b84602001518285610b0291906110c2565b1115610b3757610b36856002610b2788602001518887610b2291906110c2565b610cd4565b610b319190611289565b610cf0565b5b600080865180518760208301019350808887011115610b565787860182525b60208701925050505b60208410610b9d5780518252602082610b7891906110c2565b9150602081610b8791906110c2565b9050602084610b969190611377565b9350610b5f565b60006001856020036101000a03905080198251168184511681811785525050508692505050949350505050565b610bd7826002835161082f565b610bea81836109b490919063ffffffff16565b505050565b610bf7610d81565b83602001518310610c1d57610c1c8460028660200151610c179190611289565b610cf0565b5b8351805160208583010184815381861415610c39576001820183525b5050508390509392505050565b610c4e610d81565b84602001518483610c5f91906110c2565b1115610c8757610c868560028685610c7791906110c2565b610c819190611289565b610cf0565b5b6000600183610100610c99919061116b565b610ca39190611377565b90508551838682010185831982511617815281518588011115610cc65784870182525b505085915050949350505050565b600081831115610ce657829050610cea565b8190505b92915050565b600082600001519050610d0383836107c5565b50610d0e83826109b4565b50505050565b6040518060a0016040528060008019168152602001600073ffffffffffffffffffffffffffffffffffffffff16815260200160007bffffffffffffffffffffffffffffffffffffffffffffffffffffffff1916815260200160008152602001610d7b610d81565b81525090565b604051806040016040528060608152602001600081525090565b600081519050610daa81611627565b92915050565b600081359050610dbf8161163e565b92915050565b600081359050610dd481611655565b92915050565b600060208284031215610df057610def611559565b5b6000610dfe84828501610d9b565b91505092915050565b60008060408385031215610e1e57610e1d611559565b5b6000610e2c85828601610db0565b9250506020610e3d85828601610dc5565b9150509250929050565b610e50816113ab565b82525050565b610e5f816113c9565b82525050565b610e6e816113d3565b82525050565b6000610e7f82611095565b610e8981856110a0565b9350610e99818560208601611469565b610ea28161155e565b840191505092915050565b610ebe610eb982611433565b61149c565b82525050565b6000610ed16023836110b1565b9150610edc82611589565b604082019050919050565b6000610ef46028836110b1565b9150610eff826115d8565b604082019050919050565b610f1381611429565b82525050565b610f2a610f2582611429565b6114c0565b82525050565b6000610f3c8285610ead565b601482019150610f4c8284610f19565b6020820191508190509392505050565b600061010082019050610f72600083018b610e47565b610f7f602083018a610f0a565b610f8c6040830189610e56565b610f996060830188610e47565b610fa66080830187610e65565b610fb360a0830186610f0a565b610fc060c0830185610f0a565b81810360e0830152610fd28184610e74565b90509998505050505050505050565b6000606082019050610ff66000830186610e47565b6110036020830185610f0a565b81810360408301526110158184610e74565b9050949350505050565b60006020820190506110346000830184610e56565b92915050565b6000602082019050818103600083015261105381610ec4565b9050919050565b6000602082019050818103600083015261107381610ee7565b9050919050565b600060208201905061108f6000830184610f0a565b92915050565b600081519050919050565b600082825260208201905092915050565b600082825260208201905092915050565b60006110cd82611429565b91506110d883611429565b9250827fffffffffffffffffffffffffffffffffffffffffffffffffffffffffffffffff0382111561110d5761110c6114fb565b5b828201905092915050565b6000808291508390505b60018511156111625780860481111561113e5761113d6114fb565b5b600185161561114d5780820291505b808102905061115b8561157c565b9450611122565b94509492505050565b600061117682611429565b915061118183611429565b92506111ae7fffffffffffffffffffffffffffffffffffffffffffffffffffffffffffffffff84846111b6565b905092915050565b6000826111c65760019050611282565b816111d45760009050611282565b81600181146111ea57600281146111f457611223565b6001915050611282565b60ff841115611206576112056114fb565b5b8360020a91508482111561121d5761121c6114fb565b5b50611282565b5060208310610133831016604e8410600b84101617156112585782820a905083811115611253576112526114fb565b5b611282565b6112658484846001611118565b9250905081840481111561127c5761127b6114fb565b5b81810290505b9392505050565b600061129482611429565b915061129f83611429565b9250817fffffffffffffffffffffffffffffffffffffffffffffffffffffffffffffffff04831182151516156112d8576112d76114fb565b5b828202905092915050565b60006112ee826113ff565b91506112f9836113ff565b9250827f800000000000000000000000000000000000000000000000000000000000000001821260008412151615611334576113336114fb565b5b827f7fffffffffffffffffffffffffffffffffffffffffffffffffffffffffffffff01821360008412161561136c5761136b6114fb565b5b828203905092915050565b600061138282611429565b915061138d83611429565b9250828210156113a05761139f6114fb565b5b828203905092915050565b60006113b682611409565b9050919050565b60008115159050919050565b6000819050919050565b60007fffffffff0000000000000000000000000000000000000000000000000000000082169050919050565b6000819050919050565b600073ffffffffffffffffffffffffffffffffffffffff82169050919050565b6000819050919050565b600061143e82611445565b9050919050565b600061145082611457565b9050919050565b600061146282611409565b9050919050565b60005b8381101561148757808201518184015260208101905061146c565b83811115611496576000848401525b50505050565b60006114a7826114ae565b9050919050565b60006114b98261156f565b9050919050565b6000819050919050565b60006114d582611429565b91506114e083611429565b9250826114f0576114ef61152a565b5b828206905092915050565b7f4e487b7100000000000000000000000000000000000000000000000000000000600052601160045260246000fd5b7f4e487b7100000000000000000000000000000000000000000000000000000000600052601260045260246000fd5b600080fd5b6000601f19601f8301169050919050565b60008160601b9050919050565b60008160011c9050919050565b7f756e61626c6520746f207472616e73666572416e6443616c6c20746f206f726160008201527f636c650000000000000000000000000000000000000000000000000000000000602082015250565b7f536f75726365206d75737420626520746865206f7261636c65206f662074686560008201527f2072657175657374000000000000000000000000000000000000000000000000602082015250565b611630816113bd565b811461163b57600080fd5b50565b611647816113c9565b811461165257600080fd5b50565b61165e81611429565b811461166957600080fd5b5056fe68747470733a2f2f6d696e2d6170692e63727970746f636f6d706172652e636f6d2f646174612f70726963656d756c746966756c6c3f6673796d733d455448267473796d733d555344a26469706673582212203b52d02d7bbad7b4ac3509d7c399a3080c425d83b64f7a57ad6867ea3d94984064736f6c63430008070033",
					"opcodes": "PUSH1 0x80 PUSH1 0x40 MSTORE PUSH1 0x1 PUSH1 0x4 SSTORE CALLVALUE DUP1 ISZERO PUSH3 0x16 JUMPI PUSH1 0x0 DUP1 REVERT JUMPDEST POP PUSH3 0x27 PUSH3 0xB8 PUSH1 0x20 SHL PUSH1 0x20 SHR JUMP JUMPDEST PUSH20 0xC57B33452B4F7BB189BB5AFAE9CC4ABA1F7A4FD8 PUSH1 0x7 PUSH1 0x0 PUSH2 0x100 EXP DUP2 SLOAD DUP2 PUSH20 0xFFFFFFFFFFFFFFFFFFFFFFFFFFFFFFFFFFFFFFFF MUL NOT AND SWAP1 DUP4 PUSH20 0xFFFFFFFFFFFFFFFFFFFFFFFFFFFFFFFFFFFFFFFF AND MUL OR SWAP1 SSTORE POP PUSH32 0x6435323730643163333131393431643062303862656164323166656137373437 PUSH1 0x8 DUP2 SWAP1 SSTORE POP PUSH8 0x16345785D8A0000 PUSH1 0x9 DUP2 SWAP1 SSTORE POP PUSH3 0x240 JUMP JUMPDEST PUSH3 0x15E PUSH20 0xC89BD4E1632D3A43CB03AAAD5262CBE4038BC571 PUSH20 0xFFFFFFFFFFFFFFFFFFFFFFFFFFFFFFFFFFFFFFFF AND PUSH4 0x38CC4831 PUSH1 0x40 MLOAD DUP2 PUSH4 0xFFFFFFFF AND PUSH1 0xE0 SHL DUP2 MSTORE PUSH1 0x4 ADD PUSH1 0x20 PUSH1 0x40 MLOAD DUP1 DUP4 SUB DUP2 DUP7 DUP1 EXTCODESIZE ISZERO DUP1 ISZERO PUSH3 0x117 JUMPI PUSH1 0x0 DUP1 REVERT JUMPDEST POP GAS STATICCALL ISZERO DUP1 ISZERO PUSH3 0x12C JUMPI RETURNDATASIZE PUSH1 0x0 DUP1 RETURNDATACOPY RETURNDATASIZE PUSH1 0x0 REVERT JUMPDEST POP POP POP POP PUSH1 0x40 MLOAD RETURNDATASIZE PUSH1 0x1F NOT PUSH1 0x1F DUP3 ADD AND DUP3 ADD DUP1 PUSH1 0x40 MSTORE POP DUP2 ADD SWAP1 PUSH3 0x152 SWAP2 SWAP1 PUSH3 0x1BB JUMP JUMPDEST PUSH3 0x160 PUSH1 0x20 SHL PUSH1 0x20 SHR JUMP JUMPDEST JUMP JUMPDEST DUP1 PUSH1 0x2 PUSH1 0x0 PUSH2 0x100 EXP DUP2 SLOAD DUP2 PUSH20 0xFFFFFFFFFFFFFFFFFFFFFFFFFFFFFFFFFFFFFFFF MUL NOT AND SWAP1 DUP4 PUSH20 0xFFFFFFFFFFFFFFFFFFFFFFFFFFFFFFFFFFFFFFFF AND MUL OR SWAP1 SSTORE POP POP JUMP JUMPDEST PUSH1 0x0 DUP2 MLOAD SWAP1 POP PUSH3 0x1B5 DUP2 PUSH3 0x226 JUMP JUMPDEST SWAP3 SWAP2 POP POP JUMP JUMPDEST PUSH1 0x0 PUSH1 0x20 DUP3 DUP5 SUB SLT ISZERO PUSH3 0x1D4 JUMPI PUSH3 0x1D3 PUSH3 0x221 JUMP JUMPDEST JUMPDEST PUSH1 0x0 PUSH3 0x1E4 DUP5 DUP3 DUP6 ADD PUSH3 0x1A4 JUMP JUMPDEST SWAP2 POP POP SWAP3 SWAP2 POP POP JUMP JUMPDEST PUSH1 0x0 PUSH3 0x1FA DUP3 PUSH3 0x201 JUMP JUMPDEST SWAP1 POP SWAP2 SWAP1 POP JUMP JUMPDEST PUSH1 0x0 PUSH20 0xFFFFFFFFFFFFFFFFFFFFFFFFFFFFFFFFFFFFFFFF DUP3 AND SWAP1 POP SWAP2 SWAP1 POP JUMP JUMPDEST PUSH1 0x0 DUP1 REVERT JUMPDEST PUSH3 0x231 DUP2 PUSH3 0x1ED JUMP JUMPDEST DUP2 EQ PUSH3 0x23D JUMPI PUSH1 0x0 DUP1 REVERT JUMPDEST POP JUMP JUMPDEST PUSH2 0x16EB DUP1 PUSH3 0x250 PUSH1 0x0 CODECOPY PUSH1 0x0 RETURN INVALID PUSH1 0x80 PUSH1 0x40 MSTORE CALLVALUE DUP1 ISZERO PUSH2 0x10 JUMPI PUSH1 0x0 DUP1 REVERT JUMPDEST POP PUSH1 0x4 CALLDATASIZE LT PUSH2 0x41 JUMPI PUSH1 0x0 CALLDATALOAD PUSH1 0xE0 SHR DUP1 PUSH4 0x4357855E EQ PUSH2 0x46 JUMPI DUP1 PUSH4 0x6021ABAC EQ PUSH2 0x62 JUMPI DUP1 PUSH4 0xC618A1E4 EQ PUSH2 0x80 JUMPI JUMPDEST PUSH1 0x0 DUP1 REVERT JUMPDEST PUSH2 0x60 PUSH1 0x4 DUP1 CALLDATASIZE SUB DUP2 ADD SWAP1 PUSH2 0x5B SWAP2 SWAP1 PUSH2 0xE07 JUMP JUMPDEST PUSH2 0x9E JUMP JUMPDEST STOP JUMPDEST PUSH2 0x6A PUSH2 0x1AF JUMP JUMPDEST PUSH1 0x40 MLOAD PUSH2 0x77 SWAP2 SWAP1 PUSH2 0x101F JUMP JUMPDEST PUSH1 0x40 MLOAD DUP1 SWAP2 SUB SWAP1 RETURN JUMPDEST PUSH2 0x88 PUSH2 0x336 JUMP JUMPDEST PUSH1 0x40 MLOAD PUSH2 0x95 SWAP2 SWAP1 PUSH2 0x107A JUMP JUMPDEST PUSH1 0x40 MLOAD DUP1 SWAP2 SUB SWAP1 RETURN JUMPDEST DUP2 PUSH1 0x5 PUSH1 0x0 DUP3 DUP2 MSTORE PUSH1 0x20 ADD SWAP1 DUP2 MSTORE PUSH1 0x20 ADD PUSH1 0x0 KECCAK256 PUSH1 0x0 SWAP1 SLOAD SWAP1 PUSH2 0x100 EXP SWAP1 DIV PUSH20 0xFFFFFFFFFFFFFFFFFFFFFFFFFFFFFFFFFFFFFFFF AND PUSH20 0xFFFFFFFFFFFFFFFFFFFFFFFFFFFFFFFFFFFFFFFF AND CALLER PUSH20 0xFFFFFFFFFFFFFFFFFFFFFFFFFFFFFFFFFFFFFFFF AND EQ PUSH2 0x140 JUMPI PUSH1 0x40 MLOAD PUSH32 0x8C379A000000000000000000000000000000000000000000000000000000000 DUP2 MSTORE PUSH1 0x4 ADD PUSH2 0x137 SWAP1 PUSH2 0x105A JUMP JUMPDEST PUSH1 0x40 MLOAD DUP1 SWAP2 SUB SWAP1 REVERT JUMPDEST PUSH1 0x5 PUSH1 0x0 DUP3 DUP2 MSTORE PUSH1 0x20 ADD SWAP1 DUP2 MSTORE PUSH1 0x20 ADD PUSH1 0x0 KECCAK256 PUSH1 0x0 PUSH2 0x100 EXP DUP2 SLOAD SWAP1 PUSH20 0xFFFFFFFFFFFFFFFFFFFFFFFFFFFFFFFFFFFFFFFF MUL NOT AND SWAP1 SSTORE DUP1 PUSH32 0x7CC135E0CEBB02C3480AE5D74D377283180A2601F8F644EDF7987B009316C63A PUSH1 0x40 MLOAD PUSH1 0x40 MLOAD DUP1 SWAP2 SUB SWAP1 LOG2 DUP2 PUSH1 0x6 DUP2 SWAP1 SSTORE POP POP POP POP JUMP JUMPDEST PUSH1 0x0 DUP1 PUSH2 0x1C6 PUSH1 0x8 SLOAD ADDRESS PUSH4 0x4357855E PUSH1 0xE0 SHL PUSH2 0x33C JUMP JUMPDEST SWAP1 POP PUSH2 0x22A PUSH1 0x40 MLOAD DUP1 PUSH1 0x40 ADD PUSH1 0x40 MSTORE DUP1 PUSH1 0x3 DUP2 MSTORE PUSH1 0x20 ADD PUSH32 0x6765740000000000000000000000000000000000000000000000000000000000 DUP2 MSTORE POP PUSH1 0x40 MLOAD DUP1 PUSH1 0x80 ADD PUSH1 0x40 MSTORE DUP1 PUSH1 0x49 DUP2 MSTORE PUSH1 0x20 ADD PUSH2 0x166D PUSH1 0x49 SWAP2 CODECOPY DUP4 PUSH2 0x36D SWAP1 SWAP3 SWAP2 SWAP1 PUSH4 0xFFFFFFFF AND JUMP JUMPDEST PUSH2 0x2A9 PUSH1 0x40 MLOAD DUP1 PUSH1 0x40 ADD PUSH1 0x40 MSTORE DUP1 PUSH1 0x4 DUP2 MSTORE PUSH1 0x20 ADD PUSH32 0x7061746800000000000000000000000000000000000000000000000000000000 DUP2 MSTORE POP PUSH1 0x40 MLOAD DUP1 PUSH1 0x40 ADD PUSH1 0x40 MSTORE DUP1 PUSH1 0x18 DUP2 MSTORE PUSH1 0x20 ADD PUSH32 0x5241572C4554482C5553442C564F4C554D453234484F55520000000000000000 DUP2 MSTORE POP DUP4 PUSH2 0x36D SWAP1 SWAP3 SWAP2 SWAP1 PUSH4 0xFFFFFFFF AND JUMP JUMPDEST PUSH1 0x0 PUSH8 0xDE0B6B3A7640000 SWAP1 POP PUSH2 0x300 PUSH1 0x40 MLOAD DUP1 PUSH1 0x40 ADD PUSH1 0x40 MSTORE DUP1 PUSH1 0x5 DUP2 MSTORE PUSH1 0x20 ADD PUSH32 0x74696D6573000000000000000000000000000000000000000000000000000000 DUP2 MSTORE POP DUP3 DUP5 PUSH2 0x3A0 SWAP1 SWAP3 SWAP2 SWAP1 PUSH4 0xFFFFFFFF AND JUMP JUMPDEST PUSH2 0x32F PUSH1 0x7 PUSH1 0x0 SWAP1 SLOAD SWAP1 PUSH2 0x100 EXP SWAP1 DIV PUSH20 0xFFFFFFFFFFFFFFFFFFFFFFFFFFFFFFFFFFFFFFFF AND DUP4 PUSH1 0x9 SLOAD PUSH2 0x3D3 JUMP JUMPDEST SWAP3 POP POP POP SWAP1 JUMP JUMPDEST PUSH1 0x6 SLOAD DUP2 JUMP JUMPDEST PUSH2 0x344 PUSH2 0xD14 JUMP JUMPDEST PUSH2 0x34C PUSH2 0xD14 JUMP JUMPDEST PUSH2 0x363 DUP6 DUP6 DUP6 DUP5 PUSH2 0x49F SWAP1 SWAP4 SWAP3 SWAP2 SWAP1 PUSH4 0xFFFFFFFF AND JUMP JUMPDEST SWAP2 POP POP SWAP4 SWAP3 POP POP POP JUMP JUMPDEST PUSH2 0x384 DUP3 DUP5 PUSH1 0x80 ADD MLOAD PUSH2 0x54F SWAP1 SWAP2 SWAP1 PUSH4 0xFFFFFFFF AND JUMP JUMPDEST PUSH2 0x39B DUP2 DUP5 PUSH1 0x80 ADD MLOAD PUSH2 0x54F SWAP1 SWAP2 SWAP1 PUSH4 0xFFFFFFFF AND JUMP JUMPDEST POP POP POP JUMP JUMPDEST PUSH2 0x3B7 DUP3 DUP5 PUSH1 0x80 ADD MLOAD PUSH2 0x54F SWAP1 SWAP2 SWAP1 PUSH4 0xFFFFFFFF AND JUMP JUMPDEST PUSH2 0x3CE DUP2 DUP5 PUSH1 0x80 ADD MLOAD PUSH2 0x574 SWAP1 SWAP2 SWAP1 PUSH4 0xFFFFFFFF AND JUMP JUMPDEST POP POP POP JUMP JUMPDEST PUSH1 0x0 DUP1 PUSH1 0x4 SLOAD SWAP1 POP PUSH1 0x1 DUP2 PUSH2 0x3E8 SWAP2 SWAP1 PUSH2 0x10C2 JUMP JUMPDEST PUSH1 0x4 DUP2 SWAP1 SSTORE POP PUSH1 0x0 PUSH4 0x40429946 PUSH1 0xE0 SHL PUSH1 0x0 DUP1 DUP8 PUSH1 0x0 ADD MLOAD ADDRESS DUP10 PUSH1 0x40 ADD MLOAD DUP8 PUSH1 0x1 DUP13 PUSH1 0x80 ADD MLOAD PUSH1 0x0 ADD MLOAD PUSH1 0x40 MLOAD PUSH1 0x24 ADD PUSH2 0x429 SWAP9 SWAP8 SWAP7 SWAP6 SWAP5 SWAP4 SWAP3 SWAP2 SWAP1 PUSH2 0xF5C JUMP JUMPDEST PUSH1 0x40 MLOAD PUSH1 0x20 DUP2 DUP4 SUB SUB DUP2 MSTORE SWAP1 PUSH1 0x40 MSTORE SWAP1 PUSH28 0xFFFFFFFFFFFFFFFFFFFFFFFFFFFFFFFFFFFFFFFFFFFFFFFFFFFFFFFF NOT AND PUSH1 0x20 DUP3 ADD DUP1 MLOAD PUSH28 0xFFFFFFFFFFFFFFFFFFFFFFFFFFFFFFFFFFFFFFFFFFFFFFFFFFFFFFFF DUP4 DUP2 DUP4 AND OR DUP4 MSTORE POP POP POP POP SWAP1 POP PUSH2 0x494 DUP7 DUP4 DUP7 DUP5 PUSH2 0x621 JUMP JUMPDEST SWAP3 POP POP POP SWAP4 SWAP3 POP POP POP JUMP JUMPDEST PUSH2 0x4A7 PUSH2 0xD14 JUMP JUMPDEST PUSH2 0x4B7 DUP6 PUSH1 0x80 ADD MLOAD PUSH2 0x100 PUSH2 0x7C5 JUMP JUMPDEST POP DUP4 DUP6 PUSH1 0x0 ADD DUP2 DUP2 MSTORE POP POP DUP3 DUP6 PUSH1 0x20 ADD SWAP1 PUSH20 0xFFFFFFFFFFFFFFFFFFFFFFFFFFFFFFFFFFFFFFFF AND SWAP1 DUP2 PUSH20 0xFFFFFFFFFFFFFFFFFFFFFFFFFFFFFFFFFFFFFFFF AND DUP2 MSTORE POP POP DUP2 DUP6 PUSH1 0x40 ADD SWAP1 PUSH28 0xFFFFFFFFFFFFFFFFFFFFFFFFFFFFFFFFFFFFFFFFFFFFFFFFFFFFFFFF NOT AND SWAP1 DUP2 PUSH28 0xFFFFFFFFFFFFFFFFFFFFFFFFFFFFFFFFFFFFFFFFFFFFFFFFFFFFFFFF NOT AND DUP2 MSTORE POP POP DUP5 SWAP1 POP SWAP5 SWAP4 POP POP POP POP JUMP JUMPDEST PUSH2 0x55C DUP3 PUSH1 0x3 DUP4 MLOAD PUSH2 0x82F JUMP JUMPDEST PUSH2 0x56F DUP2 DUP4 PUSH2 0x9B4 SWAP1 SWAP2 SWAP1 PUSH4 0xFFFFFFFF AND JUMP JUMPDEST POP POP POP JUMP JUMPDEST PUSH32 0xFFFFFFFFFFFFFFFFFFFFFFFFFFFFFFFFFFFFFFFFFFFFFFFF0000000000000000 DUP2 SLT ISZERO PUSH2 0x5AB JUMPI PUSH2 0x5A6 DUP3 DUP3 PUSH2 0x9D6 JUMP JUMPDEST PUSH2 0x61D JUMP JUMPDEST PUSH8 0xFFFFFFFFFFFFFFFF DUP2 SGT ISZERO PUSH2 0x5CA JUMPI PUSH2 0x5C5 DUP3 DUP3 PUSH2 0xA4D JUMP JUMPDEST PUSH2 0x61C JUMP JUMPDEST PUSH1 0x0 DUP2 SLT PUSH2 0x5E3 JUMPI PUSH2 0x5DE DUP3 PUSH1 0x0 DUP4 PUSH2 0x82F JUMP JUMPDEST PUSH2 0x61B JUMP JUMPDEST PUSH2 0x61A DUP3 PUSH1 0x1 DUP4 PUSH32 0xFFFFFFFFFFFFFFFFFFFFFFFFFFFFFFFFFFFFFFFFFFFFFFFFFFFFFFFFFFFFFFFF PUSH2 0x615 SWAP2 SWAP1 PUSH2 0x12E3 JUMP JUMPDEST PUSH2 0x82F JUMP JUMPDEST JUMPDEST JUMPDEST JUMPDEST POP POP JUMP JUMPDEST PUSH1 0x0 ADDRESS DUP5 PUSH1 0x40 MLOAD PUSH1 0x20 ADD PUSH2 0x636 SWAP3 SWAP2 SWAP1 PUSH2 0xF30 JUMP JUMPDEST PUSH1 0x40 MLOAD PUSH1 0x20 DUP2 DUP4 SUB SUB DUP2 MSTORE SWAP1 PUSH1 0x40 MSTORE DUP1 MLOAD SWAP1 PUSH1 0x20 ADD KECCAK256 SWAP1 POP DUP5 PUSH1 0x5 PUSH1 0x0 DUP4 DUP2 MSTORE PUSH1 0x20 ADD SWAP1 DUP2 MSTORE PUSH1 0x20 ADD PUSH1 0x0 KECCAK256 PUSH1 0x0 PUSH2 0x100 EXP DUP2 SLOAD DUP2 PUSH20 0xFFFFFFFFFFFFFFFFFFFFFFFFFFFFFFFFFFFFFFFF MUL NOT AND SWAP1 DUP4 PUSH20 0xFFFFFFFFFFFFFFFFFFFFFFFFFFFFFFFFFFFFFFFF AND MUL OR SWAP1 SSTORE POP DUP1 PUSH32 0xB5E6E01E79F91267DC17B4E6314D5D4D03593D2CEEE0FBB452B750BD70EA5AF9 PUSH1 0x40 MLOAD PUSH1 0x40 MLOAD DUP1 SWAP2 SUB SWAP1 LOG2 PUSH1 0x2 PUSH1 0x0 SWAP1 SLOAD SWAP1 PUSH2 0x100 EXP SWAP1 DIV PUSH20 0xFFFFFFFFFFFFFFFFFFFFFFFFFFFFFFFFFFFFFFFF AND PUSH20 0xFFFFFFFFFFFFFFFFFFFFFFFFFFFFFFFFFFFFFFFF AND PUSH4 0x4000AEA0 DUP7 DUP6 DUP6 PUSH1 0x40 MLOAD DUP5 PUSH4 0xFFFFFFFF AND PUSH1 0xE0 SHL DUP2 MSTORE PUSH1 0x4 ADD PUSH2 0x72C SWAP4 SWAP3 SWAP2 SWAP1 PUSH2 0xFE1 JUMP JUMPDEST PUSH1 0x20 PUSH1 0x40 MLOAD DUP1 DUP4 SUB DUP2 PUSH1 0x0 DUP8 DUP1 EXTCODESIZE ISZERO DUP1 ISZERO PUSH2 0x746 JUMPI PUSH1 0x0 DUP1 REVERT JUMPDEST POP GAS CALL ISZERO DUP1 ISZERO PUSH2 0x75A JUMPI RETURNDATASIZE PUSH1 0x0 DUP1 RETURNDATACOPY RETURNDATASIZE PUSH1 0x0 REVERT JUMPDEST POP POP POP POP PUSH1 0x40 MLOAD RETURNDATASIZE PUSH1 0x1F NOT PUSH1 0x1F DUP3 ADD AND DUP3 ADD DUP1 PUSH1 0x40 MSTORE POP DUP2 ADD SWAP1 PUSH2 0x77E SWAP2 SWAP1 PUSH2 0xDDA JUMP JUMPDEST PUSH2 0x7BD JUMPI PUSH1 0x40 MLOAD PUSH32 0x8C379A000000000000000000000000000000000000000000000000000000000 DUP2 MSTORE PUSH1 0x4 ADD PUSH2 0x7B4 SWAP1 PUSH2 0x103A JUMP JUMPDEST PUSH1 0x40 MLOAD DUP1 SWAP2 SUB SWAP1 REVERT JUMPDEST SWAP5 SWAP4 POP POP POP POP JUMP JUMPDEST PUSH2 0x7CD PUSH2 0xD81 JUMP JUMPDEST PUSH1 0x0 PUSH1 0x20 DUP4 PUSH2 0x7DC SWAP2 SWAP1 PUSH2 0x14CA JUMP JUMPDEST EQ PUSH2 0x808 JUMPI PUSH1 0x20 DUP3 PUSH2 0x7EE SWAP2 SWAP1 PUSH2 0x14CA JUMP JUMPDEST PUSH1 0x20 PUSH2 0x7FA SWAP2 SWAP1 PUSH2 0x1377 JUMP JUMPDEST DUP3 PUSH2 0x805 SWAP2 SWAP1 PUSH2 0x10C2 JUMP JUMPDEST SWAP2 POP JUMPDEST DUP2 DUP4 PUSH1 0x20 ADD DUP2 DUP2 MSTORE POP POP PUSH1 0x40 MLOAD DUP1 DUP5 MSTORE PUSH1 0x0 DUP2 MSTORE DUP3 DUP2 ADD PUSH1 0x20 ADD PUSH1 0x40 MSTORE POP DUP3 SWAP1 POP SWAP3 SWAP2 POP POP JUMP JUMPDEST PUSH1 0x17 DUP2 PUSH8 0xFFFFFFFFFFFFFFFF AND GT PUSH2 0x866 JUMPI PUSH2 0x860 DUP2 PUSH1 0x5 DUP5 PUSH1 0xFF AND SWAP1 SHL PUSH1 0xFF AND OR DUP5 PUSH2 0xA99 SWAP1 SWAP2 SWAP1 PUSH4 0xFFFFFFFF AND JUMP JUMPDEST POP PUSH2 0x9AF JUMP JUMPDEST PUSH1 0xFF DUP2 PUSH8 0xFFFFFFFFFFFFFFFF AND GT PUSH2 0x8BC JUMPI PUSH2 0x895 PUSH1 0x18 PUSH1 0x5 DUP5 PUSH1 0xFF AND SWAP1 SHL OR DUP5 PUSH2 0xA99 SWAP1 SWAP2 SWAP1 PUSH4 0xFFFFFFFF AND JUMP JUMPDEST POP PUSH2 0x8B6 DUP2 PUSH8 0xFFFFFFFFFFFFFFFF AND PUSH1 0x1 DUP6 PUSH2 0xAB9 SWAP1 SWAP3 SWAP2 SWAP1 PUSH4 0xFFFFFFFF AND JUMP JUMPDEST POP PUSH2 0x9AE JUMP JUMPDEST PUSH2 0xFFFF DUP2 PUSH8 0xFFFFFFFFFFFFFFFF AND GT PUSH2 0x913 JUMPI PUSH2 0x8EC PUSH1 0x19 PUSH1 0x5 DUP5 PUSH1 0xFF AND SWAP1 SHL OR DUP5 PUSH2 0xA99 SWAP1 SWAP2 SWAP1 PUSH4 0xFFFFFFFF AND JUMP JUMPDEST POP PUSH2 0x90D DUP2 PUSH8 0xFFFFFFFFFFFFFFFF AND PUSH1 0x2 DUP6 PUSH2 0xAB9 SWAP1 SWAP3 SWAP2 SWAP1 PUSH4 0xFFFFFFFF AND JUMP JUMPDEST POP PUSH2 0x9AD JUMP JUMPDEST PUSH4 0xFFFFFFFF DUP2 PUSH8 0xFFFFFFFFFFFFFFFF AND GT PUSH2 0x96C JUMPI PUSH2 0x945 PUSH1 0x1A PUSH1 0x5 DUP5 PUSH1 0xFF AND SWAP1 SHL OR DUP5 PUSH2 0xA99 SWAP1 SWAP2 SWAP1 PUSH4 0xFFFFFFFF AND JUMP JUMPDEST POP PUSH2 0x966 DUP2 PUSH8 0xFFFFFFFFFFFFFFFF AND PUSH1 0x4 DUP6 PUSH2 0xAB9 SWAP1 SWAP3 SWAP2 SWAP1 PUSH4 0xFFFFFFFF AND JUMP JUMPDEST POP PUSH2 0x9AC JUMP JUMPDEST PUSH2 0x989 PUSH1 0x1B PUSH1 0x5 DUP5 PUSH1 0xFF AND SWAP1 SHL OR DUP5 PUSH2 0xA99 SWAP1 SWAP2 SWAP1 PUSH4 0xFFFFFFFF AND JUMP JUMPDEST POP PUSH2 0x9AA DUP2 PUSH8 0xFFFFFFFFFFFFFFFF AND PUSH1 0x8 DUP6 PUSH2 0xAB9 SWAP1 SWAP3 SWAP2 SWAP1 PUSH4 0xFFFFFFFF AND JUMP JUMPDEST POP JUMPDEST JUMPDEST JUMPDEST JUMPDEST POP POP POP JUMP JUMPDEST PUSH2 0x9BC PUSH2 0xD81 JUMP JUMPDEST PUSH2 0x9CE DUP4 DUP5 PUSH1 0x0 ADD MLOAD MLOAD DUP5 DUP6 MLOAD PUSH2 0xADB JUMP JUMPDEST SWAP1 POP SWAP3 SWAP2 POP POP JUMP JUMPDEST PUSH2 0x9F4 PUSH1 0x3 PUSH1 0x5 PUSH1 0x6 PUSH1 0xFF AND SWAP1 SHL OR DUP4 PUSH2 0xA99 SWAP1 SWAP2 SWAP1 PUSH4 0xFFFFFFFF AND JUMP JUMPDEST POP PUSH2 0xA49 DUP3 DUP3 PUSH32 0xFFFFFFFFFFFFFFFFFFFFFFFFFFFFFFFFFFFFFFFFFFFFFFFFFFFFFFFFFFFFFFFF PUSH2 0xA25 SWAP2 SWAP1 PUSH2 0x12E3 JUMP JUMPDEST PUSH1 0x40 MLOAD PUSH1 0x20 ADD PUSH2 0xA35 SWAP2 SWAP1 PUSH2 0x107A JUMP JUMPDEST PUSH1 0x40 MLOAD PUSH1 0x20 DUP2 DUP4 SUB SUB DUP2 MSTORE SWAP1 PUSH1 0x40 MSTORE PUSH2 0xBCA JUMP JUMPDEST POP POP JUMP JUMPDEST PUSH2 0xA6B PUSH1 0x2 PUSH1 0x5 PUSH1 0x6 PUSH1 0xFF AND SWAP1 SHL OR DUP4 PUSH2 0xA99 SWAP1 SWAP2 SWAP1 PUSH4 0xFFFFFFFF AND JUMP JUMPDEST POP PUSH2 0xA95 DUP3 DUP3 PUSH1 0x40 MLOAD PUSH1 0x20 ADD PUSH2 0xA81 SWAP2 SWAP1 PUSH2 0x107A JUMP JUMPDEST PUSH1 0x40 MLOAD PUSH1 0x20 DUP2 DUP4 SUB SUB DUP2 MSTORE SWAP1 PUSH1 0x40 MSTORE PUSH2 0xBCA JUMP JUMPDEST POP POP JUMP JUMPDEST PUSH2 0xAA1 PUSH2 0xD81 JUMP JUMPDEST PUSH2 0xAB1 DUP4 DUP5 PUSH1 0x0 ADD MLOAD MLOAD DUP5 PUSH2 0xBEF JUMP JUMPDEST SWAP1 POP SWAP3 SWAP2 POP POP JUMP JUMPDEST PUSH2 0xAC1 PUSH2 0xD81 JUMP JUMPDEST PUSH2 0xAD2 DUP5 DUP6 PUSH1 0x0 ADD MLOAD MLOAD DUP6 DUP6 PUSH2 0xC46 JUMP JUMPDEST SWAP1 POP SWAP4 SWAP3 POP POP POP JUMP JUMPDEST PUSH2 0xAE3 PUSH2 0xD81 JUMP JUMPDEST DUP3 MLOAD DUP3 GT ISZERO PUSH2 0xAF1 JUMPI PUSH1 0x0 DUP1 REVERT JUMPDEST DUP5 PUSH1 0x20 ADD MLOAD DUP3 DUP6 PUSH2 0xB02 SWAP2 SWAP1 PUSH2 0x10C2 JUMP JUMPDEST GT ISZERO PUSH2 0xB37 JUMPI PUSH2 0xB36 DUP6 PUSH1 0x2 PUSH2 0xB27 DUP9 PUSH1 0x20 ADD MLOAD DUP9 DUP8 PUSH2 0xB22 SWAP2 SWAP1 PUSH2 0x10C2 JUMP JUMPDEST PUSH2 0xCD4 JUMP JUMPDEST PUSH2 0xB31 SWAP2 SWAP1 PUSH2 0x1289 JUMP JUMPDEST PUSH2 0xCF0 JUMP JUMPDEST JUMPDEST PUSH1 0x0 DUP1 DUP7 MLOAD DUP1 MLOAD DUP8 PUSH1 0x20 DUP4 ADD ADD SWAP4 POP DUP1 DUP9 DUP8 ADD GT ISZERO PUSH2 0xB56 JUMPI DUP8 DUP7 ADD DUP3 MSTORE JUMPDEST PUSH1 0x20 DUP8 ADD SWAP3 POP POP POP JUMPDEST PUSH1 0x20 DUP5 LT PUSH2 0xB9D JUMPI DUP1 MLOAD DUP3 MSTORE PUSH1 0x20 DUP3 PUSH2 0xB78 SWAP2 SWAP1 PUSH2 0x10C2 JUMP JUMPDEST SWAP2 POP PUSH1 0x20 DUP2 PUSH2 0xB87 SWAP2 SWAP1 PUSH2 0x10C2 JUMP JUMPDEST SWAP1 POP PUSH1 0x20 DUP5 PUSH2 0xB96 SWAP2 SWAP1 PUSH2 0x1377 JUMP JUMPDEST SWAP4 POP PUSH2 0xB5F JUMP JUMPDEST PUSH1 0x0 PUSH1 0x1 DUP6 PUSH1 0x20 SUB PUSH2 0x100 EXP SUB SWAP1 POP DUP1 NOT DUP3 MLOAD AND DUP2 DUP5 MLOAD AND DUP2 DUP2 OR DUP6 MSTORE POP POP POP DUP7 SWAP3 POP POP POP SWAP5 SWAP4 POP POP POP POP JUMP JUMPDEST PUSH2 0xBD7 DUP3 PUSH1 0x2 DUP4 MLOAD PUSH2 0x82F JUMP JUMPDEST PUSH2 0xBEA DUP2 DUP4 PUSH2 0x9B4 SWAP1 SWAP2 SWAP1 PUSH4 0xFFFFFFFF AND JUMP JUMPDEST POP POP POP JUMP JUMPDEST PUSH2 0xBF7 PUSH2 0xD81 JUMP JUMPDEST DUP4 PUSH1 0x20 ADD MLOAD DUP4 LT PUSH2 0xC1D JUMPI PUSH2 0xC1C DUP5 PUSH1 0x2 DUP7 PUSH1 0x20 ADD MLOAD PUSH2 0xC17 SWAP2 SWAP1 PUSH2 0x1289 JUMP JUMPDEST PUSH2 0xCF0 JUMP JUMPDEST JUMPDEST DUP4 MLOAD DUP1 MLOAD PUSH1 0x20 DUP6 DUP4 ADD ADD DUP5 DUP2 MSTORE8 DUP2 DUP7 EQ ISZERO PUSH2 0xC39 JUMPI PUSH1 0x1 DUP3 ADD DUP4 MSTORE JUMPDEST POP POP POP DUP4 SWAP1 POP SWAP4 SWAP3 POP POP POP JUMP JUMPDEST PUSH2 0xC4E PUSH2 0xD81 JUMP JUMPDEST DUP5 PUSH1 0x20 ADD MLOAD DUP5 DUP4 PUSH2 0xC5F SWAP2 SWAP1 PUSH2 0x10C2 JUMP JUMPDEST GT ISZERO PUSH2 0xC87 JUMPI PUSH2 0xC86 DUP6 PUSH1 0x2 DUP7 DUP6 PUSH2 0xC77 SWAP2 SWAP1 PUSH2 0x10C2 JUMP JUMPDEST PUSH2 0xC81 SWAP2 SWAP1 PUSH2 0x1289 JUMP JUMPDEST PUSH2 0xCF0 JUMP JUMPDEST JUMPDEST PUSH1 0x0 PUSH1 0x1 DUP4 PUSH2 0x100 PUSH2 0xC99 SWAP2 SWAP1 PUSH2 0x116B JUMP JUMPDEST PUSH2 0xCA3 SWAP2 SWAP1 PUSH2 0x1377 JUMP JUMPDEST SWAP1 POP DUP6 MLOAD DUP4 DUP7 DUP3 ADD ADD DUP6 DUP4 NOT DUP3 MLOAD AND OR DUP2 MSTORE DUP2 MLOAD DUP6 DUP9 ADD GT ISZERO PUSH2 0xCC6 JUMPI DUP5 DUP8 ADD DUP3 MSTORE JUMPDEST POP POP DUP6 SWAP2 POP POP SWAP5 SWAP4 POP POP POP POP JUMP JUMPDEST PUSH1 0x0 DUP2 DUP4 GT ISZERO PUSH2 0xCE6 JUMPI DUP3 SWAP1 POP PUSH2 0xCEA JUMP JUMPDEST DUP2 SWAP1 POP JUMPDEST SWAP3 SWAP2 POP POP JUMP JUMPDEST PUSH1 0x0 DUP3 PUSH1 0x0 ADD MLOAD SWAP1 POP PUSH2 0xD03 DUP4 DUP4 PUSH2 0x7C5 JUMP JUMPDEST POP PUSH2 0xD0E DUP4 DUP3 PUSH2 0x9B4 JUMP JUMPDEST POP POP POP POP JUMP JUMPDEST PUSH1 0x40 MLOAD DUP1 PUSH1 0xA0 ADD PUSH1 0x40 MSTORE DUP1 PUSH1 0x0 DUP1 NOT AND DUP2 MSTORE PUSH1 0x20 ADD PUSH1 0x0 PUSH20 0xFFFFFFFFFFFFFFFFFFFFFFFFFFFFFFFFFFFFFFFF AND DUP2 MSTORE PUSH1 0x20 ADD PUSH1 0x0 PUSH28 0xFFFFFFFFFFFFFFFFFFFFFFFFFFFFFFFFFFFFFFFFFFFFFFFFFFFFFFFF NOT AND DUP2 MSTORE PUSH1 0x20 ADD PUSH1 0x0 DUP2 MSTORE PUSH1 0x20 ADD PUSH2 0xD7B PUSH2 0xD81 JUMP JUMPDEST DUP2 MSTORE POP SWAP1 JUMP JUMPDEST PUSH1 0x40 MLOAD DUP1 PUSH1 0x40 ADD PUSH1 0x40 MSTORE DUP1 PUSH1 0x60 DUP2 MSTORE PUSH1 0x20 ADD PUSH1 0x0 DUP2 MSTORE POP SWAP1 JUMP JUMPDEST PUSH1 0x0 DUP2 MLOAD SWAP1 POP PUSH2 0xDAA DUP2 PUSH2 0x1627 JUMP JUMPDEST SWAP3 SWAP2 POP POP JUMP JUMPDEST PUSH1 0x0 DUP2 CALLDATALOAD SWAP1 POP PUSH2 0xDBF DUP2 PUSH2 0x163E JUMP JUMPDEST SWAP3 SWAP2 POP POP JUMP JUMPDEST PUSH1 0x0 DUP2 CALLDATALOAD SWAP1 POP PUSH2 0xDD4 DUP2 PUSH2 0x1655 JUMP JUMPDEST SWAP3 SWAP2 POP POP JUMP JUMPDEST PUSH1 0x0 PUSH1 0x20 DUP3 DUP5 SUB SLT ISZERO PUSH2 0xDF0 JUMPI PUSH2 0xDEF PUSH2 0x1559 JUMP JUMPDEST JUMPDEST PUSH1 0x0 PUSH2 0xDFE DUP5 DUP3 DUP6 ADD PUSH2 0xD9B JUMP JUMPDEST SWAP2 POP POP SWAP3 SWAP2 POP POP JUMP JUMPDEST PUSH1 0x0 DUP1 PUSH1 0x40 DUP4 DUP6 SUB SLT ISZERO PUSH2 0xE1E JUMPI PUSH2 0xE1D PUSH2 0x1559 JUMP JUMPDEST JUMPDEST PUSH1 0x0 PUSH2 0xE2C DUP6 DUP3 DUP7 ADD PUSH2 0xDB0 JUMP JUMPDEST SWAP3 POP POP PUSH1 0x20 PUSH2 0xE3D DUP6 DUP3 DUP7 ADD PUSH2 0xDC5 JUMP JUMPDEST SWAP2 POP POP SWAP3 POP SWAP3 SWAP1 POP JUMP JUMPDEST PUSH2 0xE50 DUP2 PUSH2 0x13AB JUMP JUMPDEST DUP3 MSTORE POP POP JUMP JUMPDEST PUSH2 0xE5F DUP2 PUSH2 0x13C9 JUMP JUMPDEST DUP3 MSTORE POP POP JUMP JUMPDEST PUSH2 0xE6E DUP2 PUSH2 0x13D3 JUMP JUMPDEST DUP3 MSTORE POP POP JUMP JUMPDEST PUSH1 0x0 PUSH2 0xE7F DUP3 PUSH2 0x1095 JUMP JUMPDEST PUSH2 0xE89 DUP2 DUP6 PUSH2 0x10A0 JUMP JUMPDEST SWAP4 POP PUSH2 0xE99 DUP2 DUP6 PUSH1 0x20 DUP7 ADD PUSH2 0x1469 JUMP JUMPDEST PUSH2 0xEA2 DUP2 PUSH2 0x155E JUMP JUMPDEST DUP5 ADD SWAP2 POP POP SWAP3 SWAP2 POP POP JUMP JUMPDEST PUSH2 0xEBE PUSH2 0xEB9 DUP3 PUSH2 0x1433 JUMP JUMPDEST PUSH2 0x149C JUMP JUMPDEST DUP3 MSTORE POP POP JUMP JUMPDEST PUSH1 0x0 PUSH2 0xED1 PUSH1 0x23 DUP4 PUSH2 0x10B1 JUMP JUMPDEST SWAP2 POP PUSH2 0xEDC DUP3 PUSH2 0x1589 JUMP JUMPDEST PUSH1 0x40 DUP3 ADD SWAP1 POP SWAP2 SWAP1 POP JUMP JUMPDEST PUSH1 0x0 PUSH2 0xEF4 PUSH1 0x28 DUP4 PUSH2 0x10B1 JUMP JUMPDEST SWAP2 POP PUSH2 0xEFF DUP3 PUSH2 0x15D8 JUMP JUMPDEST PUSH1 0x40 DUP3 ADD SWAP1 POP SWAP2 SWAP1 POP JUMP JUMPDEST PUSH2 0xF13 DUP2 PUSH2 0x1429 JUMP JUMPDEST DUP3 MSTORE POP POP JUMP JUMPDEST PUSH2 0xF2A PUSH2 0xF25 DUP3 PUSH2 0x1429 JUMP JUMPDEST PUSH2 0x14C0 JUMP JUMPDEST DUP3 MSTORE POP POP JUMP JUMPDEST PUSH1 0x0 PUSH2 0xF3C DUP3 DUP6 PUSH2 0xEAD JUMP JUMPDEST PUSH1 0x14 DUP3 ADD SWAP2 POP PUSH2 0xF4C DUP3 DUP5 PUSH2 0xF19 JUMP JUMPDEST PUSH1 0x20 DUP3 ADD SWAP2 POP DUP2 SWAP1 POP SWAP4 SWAP3 POP POP POP JUMP JUMPDEST PUSH1 0x0 PUSH2 0x100 DUP3 ADD SWAP1 POP PUSH2 0xF72 PUSH1 0x0 DUP4 ADD DUP12 PUSH2 0xE47 JUMP JUMPDEST PUSH2 0xF7F PUSH1 0x20 DUP4 ADD DUP11 PUSH2 0xF0A JUMP JUMPDEST PUSH2 0xF8C PUSH1 0x40 DUP4 ADD DUP10 PUSH2 0xE56 JUMP JUMPDEST PUSH2 0xF99 PUSH1 0x60 DUP4 ADD DUP9 PUSH2 0xE47 JUMP JUMPDEST PUSH2 0xFA6 PUSH1 0x80 DUP4 ADD DUP8 PUSH2 0xE65 JUMP JUMPDEST PUSH2 0xFB3 PUSH1 0xA0 DUP4 ADD DUP7 PUSH2 0xF0A JUMP JUMPDEST PUSH2 0xFC0 PUSH1 0xC0 DUP4 ADD DUP6 PUSH2 0xF0A JUMP JUMPDEST DUP2 DUP2 SUB PUSH1 0xE0 DUP4 ADD MSTORE PUSH2 0xFD2 DUP2 DUP5 PUSH2 0xE74 JUMP JUMPDEST SWAP1 POP SWAP10 SWAP9 POP POP POP POP POP POP POP POP POP JUMP JUMPDEST PUSH1 0x0 PUSH1 0x60 DUP3 ADD SWAP1 POP PUSH2 0xFF6 PUSH1 0x0 DUP4 ADD DUP7 PUSH2 0xE47 JUMP JUMPDEST PUSH2 0x1003 PUSH1 0x20 DUP4 ADD DUP6 PUSH2 0xF0A JUMP JUMPDEST DUP2 DUP2 SUB PUSH1 0x40 DUP4 ADD MSTORE PUSH2 0x1015 DUP2 DUP5 PUSH2 0xE74 JUMP JUMPDEST SWAP1 POP SWAP5 SWAP4 POP POP POP POP JUMP JUMPDEST PUSH1 0x0 PUSH1 0x20 DUP3 ADD SWAP1 POP PUSH2 0x1034 PUSH1 0x0 DUP4 ADD DUP5 PUSH2 0xE56 JUMP JUMPDEST SWAP3 SWAP2 POP POP JUMP JUMPDEST PUSH1 0x0 PUSH1 0x20 DUP3 ADD SWAP1 POP DUP2 DUP2 SUB PUSH1 0x0 DUP4 ADD MSTORE PUSH2 0x1053 DUP2 PUSH2 0xEC4 JUMP JUMPDEST SWAP1 POP SWAP2 SWAP1 POP JUMP JUMPDEST PUSH1 0x0 PUSH1 0x20 DUP3 ADD SWAP1 POP DUP2 DUP2 SUB PUSH1 0x0 DUP4 ADD MSTORE PUSH2 0x1073 DUP2 PUSH2 0xEE7 JUMP JUMPDEST SWAP1 POP SWAP2 SWAP1 POP JUMP JUMPDEST PUSH1 0x0 PUSH1 0x20 DUP3 ADD SWAP1 POP PUSH2 0x108F PUSH1 0x0 DUP4 ADD DUP5 PUSH2 0xF0A JUMP JUMPDEST SWAP3 SWAP2 POP POP JUMP JUMPDEST PUSH1 0x0 DUP2 MLOAD SWAP1 POP SWAP2 SWAP1 POP JUMP JUMPDEST PUSH1 0x0 DUP3 DUP3 MSTORE PUSH1 0x20 DUP3 ADD SWAP1 POP SWAP3 SWAP2 POP POP JUMP JUMPDEST PUSH1 0x0 DUP3 DUP3 MSTORE PUSH1 0x20 DUP3 ADD SWAP1 POP SWAP3 SWAP2 POP POP JUMP JUMPDEST PUSH1 0x0 PUSH2 0x10CD DUP3 PUSH2 0x1429 JUMP JUMPDEST SWAP2 POP PUSH2 0x10D8 DUP4 PUSH2 0x1429 JUMP JUMPDEST SWAP3 POP DUP3 PUSH32 0xFFFFFFFFFFFFFFFFFFFFFFFFFFFFFFFFFFFFFFFFFFFFFFFFFFFFFFFFFFFFFFFF SUB DUP3 GT ISZERO PUSH2 0x110D JUMPI PUSH2 0x110C PUSH2 0x14FB JUMP JUMPDEST JUMPDEST DUP3 DUP3 ADD SWAP1 POP SWAP3 SWAP2 POP POP JUMP JUMPDEST PUSH1 0x0 DUP1 DUP3 SWAP2 POP DUP4 SWAP1 POP JUMPDEST PUSH1 0x1 DUP6 GT ISZERO PUSH2 0x1162 JUMPI DUP1 DUP7 DIV DUP2 GT ISZERO PUSH2 0x113E JUMPI PUSH2 0x113D PUSH2 0x14FB JUMP JUMPDEST JUMPDEST PUSH1 0x1 DUP6 AND ISZERO PUSH2 0x114D JUMPI DUP1 DUP3 MUL SWAP2 POP JUMPDEST DUP1 DUP2 MUL SWAP1 POP PUSH2 0x115B DUP6 PUSH2 0x157C JUMP JUMPDEST SWAP5 POP PUSH2 0x1122 JUMP JUMPDEST SWAP5 POP SWAP5 SWAP3 POP POP POP JUMP JUMPDEST PUSH1 0x0 PUSH2 0x1176 DUP3 PUSH2 0x1429 JUMP JUMPDEST SWAP2 POP PUSH2 0x1181 DUP4 PUSH2 0x1429 JUMP JUMPDEST SWAP3 POP PUSH2 0x11AE PUSH32 0xFFFFFFFFFFFFFFFFFFFFFFFFFFFFFFFFFFFFFFFFFFFFFFFFFFFFFFFFFFFFFFFF DUP5 DUP5 PUSH2 0x11B6 JUMP JUMPDEST SWAP1 POP SWAP3 SWAP2 POP POP JUMP JUMPDEST PUSH1 0x0 DUP3 PUSH2 0x11C6 JUMPI PUSH1 0x1 SWAP1 POP PUSH2 0x1282 JUMP JUMPDEST DUP2 PUSH2 0x11D4 JUMPI PUSH1 0x0 SWAP1 POP PUSH2 0x1282 JUMP JUMPDEST DUP2 PUSH1 0x1 DUP2 EQ PUSH2 0x11EA JUMPI PUSH1 0x2 DUP2 EQ PUSH2 0x11F4 JUMPI PUSH2 0x1223 JUMP JUMPDEST PUSH1 0x1 SWAP2 POP POP PUSH2 0x1282 JUMP JUMPDEST PUSH1 0xFF DUP5 GT ISZERO PUSH2 0x1206 JUMPI PUSH2 0x1205 PUSH2 0x14FB JUMP JUMPDEST JUMPDEST DUP4 PUSH1 0x2 EXP SWAP2 POP DUP5 DUP3 GT ISZERO PUSH2 0x121D JUMPI PUSH2 0x121C PUSH2 0x14FB JUMP JUMPDEST JUMPDEST POP PUSH2 0x1282 JUMP JUMPDEST POP PUSH1 0x20 DUP4 LT PUSH2 0x133 DUP4 LT AND PUSH1 0x4E DUP5 LT PUSH1 0xB DUP5 LT AND OR ISZERO PUSH2 0x1258 JUMPI DUP3 DUP3 EXP SWAP1 POP DUP4 DUP2 GT ISZERO PUSH2 0x1253 JUMPI PUSH2 0x1252 PUSH2 0x14FB JUMP JUMPDEST JUMPDEST PUSH2 0x1282 JUMP JUMPDEST PUSH2 0x1265 DUP5 DUP5 DUP5 PUSH1 0x1 PUSH2 0x1118 JUMP JUMPDEST SWAP3 POP SWAP1 POP DUP2 DUP5 DIV DUP2 GT ISZERO PUSH2 0x127C JUMPI PUSH2 0x127B PUSH2 0x14FB JUMP JUMPDEST JUMPDEST DUP2 DUP2 MUL SWAP1 POP JUMPDEST SWAP4 SWAP3 POP POP POP JUMP JUMPDEST PUSH1 0x0 PUSH2 0x1294 DUP3 PUSH2 0x1429 JUMP JUMPDEST SWAP2 POP PUSH2 0x129F DUP4 PUSH2 0x1429 JUMP JUMPDEST SWAP3 POP DUP2 PUSH32 0xFFFFFFFFFFFFFFFFFFFFFFFFFFFFFFFFFFFFFFFFFFFFFFFFFFFFFFFFFFFFFFFF DIV DUP4 GT DUP3 ISZERO ISZERO AND ISZERO PUSH2 0x12D8 JUMPI PUSH2 0x12D7 PUSH2 0x14FB JUMP JUMPDEST JUMPDEST DUP3 DUP3 MUL SWAP1 POP SWAP3 SWAP2 POP POP JUMP JUMPDEST PUSH1 0x0 PUSH2 0x12EE DUP3 PUSH2 0x13FF JUMP JUMPDEST SWAP2 POP PUSH2 0x12F9 DUP4 PUSH2 0x13FF JUMP JUMPDEST SWAP3 POP DUP3 PUSH32 0x8000000000000000000000000000000000000000000000000000000000000000 ADD DUP3 SLT PUSH1 0x0 DUP5 SLT ISZERO AND ISZERO PUSH2 0x1334 JUMPI PUSH2 0x1333 PUSH2 0x14FB JUMP JUMPDEST JUMPDEST DUP3 PUSH32 0x7FFFFFFFFFFFFFFFFFFFFFFFFFFFFFFFFFFFFFFFFFFFFFFFFFFFFFFFFFFFFFFF ADD DUP3 SGT PUSH1 0x0 DUP5 SLT AND ISZERO PUSH2 0x136C JUMPI PUSH2 0x136B PUSH2 0x14FB JUMP JUMPDEST JUMPDEST DUP3 DUP3 SUB SWAP1 POP SWAP3 SWAP2 POP POP JUMP JUMPDEST PUSH1 0x0 PUSH2 0x1382 DUP3 PUSH2 0x1429 JUMP JUMPDEST SWAP2 POP PUSH2 0x138D DUP4 PUSH2 0x1429 JUMP JUMPDEST SWAP3 POP DUP3 DUP3 LT ISZERO PUSH2 0x13A0 JUMPI PUSH2 0x139F PUSH2 0x14FB JUMP JUMPDEST JUMPDEST DUP3 DUP3 SUB SWAP1 POP SWAP3 SWAP2 POP POP JUMP JUMPDEST PUSH1 0x0 PUSH2 0x13B6 DUP3 PUSH2 0x1409 JUMP JUMPDEST SWAP1 POP SWAP2 SWAP1 POP JUMP JUMPDEST PUSH1 0x0 DUP2 ISZERO ISZERO SWAP1 POP SWAP2 SWAP1 POP JUMP JUMPDEST PUSH1 0x0 DUP2 SWAP1 POP SWAP2 SWAP1 POP JUMP JUMPDEST PUSH1 0x0 PUSH32 0xFFFFFFFF00000000000000000000000000000000000000000000000000000000 DUP3 AND SWAP1 POP SWAP2 SWAP1 POP JUMP JUMPDEST PUSH1 0x0 DUP2 SWAP1 POP SWAP2 SWAP1 POP JUMP JUMPDEST PUSH1 0x0 PUSH20 0xFFFFFFFFFFFFFFFFFFFFFFFFFFFFFFFFFFFFFFFF DUP3 AND SWAP1 POP SWAP2 SWAP1 POP JUMP JUMPDEST PUSH1 0x0 DUP2 SWAP1 POP SWAP2 SWAP1 POP JUMP JUMPDEST PUSH1 0x0 PUSH2 0x143E DUP3 PUSH2 0x1445 JUMP JUMPDEST SWAP1 POP SWAP2 SWAP1 POP JUMP JUMPDEST PUSH1 0x0 PUSH2 0x1450 DUP3 PUSH2 0x1457 JUMP JUMPDEST SWAP1 POP SWAP2 SWAP1 POP JUMP JUMPDEST PUSH1 0x0 PUSH2 0x1462 DUP3 PUSH2 0x1409 JUMP JUMPDEST SWAP1 POP SWAP2 SWAP1 POP JUMP JUMPDEST PUSH1 0x0 JUMPDEST DUP4 DUP2 LT ISZERO PUSH2 0x1487 JUMPI DUP1 DUP3 ADD MLOAD DUP2 DUP5 ADD MSTORE PUSH1 0x20 DUP2 ADD SWAP1 POP PUSH2 0x146C JUMP JUMPDEST DUP4 DUP2 GT ISZERO PUSH2 0x1496 JUMPI PUSH1 0x0 DUP5 DUP5 ADD MSTORE JUMPDEST POP POP POP POP JUMP JUMPDEST PUSH1 0x0 PUSH2 0x14A7 DUP3 PUSH2 0x14AE JUMP JUMPDEST SWAP1 POP SWAP2 SWAP1 POP JUMP JUMPDEST PUSH1 0x0 PUSH2 0x14B9 DUP3 PUSH2 0x156F JUMP JUMPDEST SWAP1 POP SWAP2 SWAP1 POP JUMP JUMPDEST PUSH1 0x0 DUP2 SWAP1 POP SWAP2 SWAP1 POP JUMP JUMPDEST PUSH1 0x0 PUSH2 0x14D5 DUP3 PUSH2 0x1429 JUMP JUMPDEST SWAP2 POP PUSH2 0x14E0 DUP4 PUSH2 0x1429 JUMP JUMPDEST SWAP3 POP DUP3 PUSH2 0x14F0 JUMPI PUSH2 0x14EF PUSH2 0x152A JUMP JUMPDEST JUMPDEST DUP3 DUP3 MOD SWAP1 POP SWAP3 SWAP2 POP POP JUMP JUMPDEST PUSH32 0x4E487B7100000000000000000000000000000000000000000000000000000000 PUSH1 0x0 MSTORE PUSH1 0x11 PUSH1 0x4 MSTORE PUSH1 0x24 PUSH1 0x0 REVERT JUMPDEST PUSH32 0x4E487B7100000000000000000000000000000000000000000000000000000000 PUSH1 0x0 MSTORE PUSH1 0x12 PUSH1 0x4 MSTORE PUSH1 0x24 PUSH1 0x0 REVERT JUMPDEST PUSH1 0x0 DUP1 REVERT JUMPDEST PUSH1 0x0 PUSH1 0x1F NOT PUSH1 0x1F DUP4 ADD AND SWAP1 POP SWAP2 SWAP1 POP JUMP JUMPDEST PUSH1 0x0 DUP2 PUSH1 0x60 SHL SWAP1 POP SWAP2 SWAP1 POP JUMP JUMPDEST PUSH1 0x0 DUP2 PUSH1 0x1 SHR SWAP1 POP SWAP2 SWAP1 POP JUMP JUMPDEST PUSH32 0x756E61626C6520746F207472616E73666572416E6443616C6C20746F206F7261 PUSH1 0x0 DUP3 ADD MSTORE PUSH32 0x636C650000000000000000000000000000000000000000000000000000000000 PUSH1 0x20 DUP3 ADD MSTORE POP JUMP JUMPDEST PUSH32 0x536F75726365206D75737420626520746865206F7261636C65206F6620746865 PUSH1 0x0 DUP3 ADD MSTORE PUSH32 0x2072657175657374000000000000000000000000000000000000000000000000 PUSH1 0x20 DUP3 ADD MSTORE POP JUMP JUMPDEST PUSH2 0x1630 DUP2 PUSH2 0x13BD JUMP JUMPDEST DUP2 EQ PUSH2 0x163B JUMPI PUSH1 0x0 DUP1 REVERT JUMPDEST POP JUMP JUMPDEST PUSH2 0x1647 DUP2 PUSH2 0x13C9 JUMP JUMPDEST DUP2 EQ PUSH2 0x1652 JUMPI PUSH1 0x0 DUP1 REVERT JUMPDEST POP JUMP JUMPDEST PUSH2 0x165E DUP2 PUSH2 0x1429 JUMP JUMPDEST DUP2 EQ PUSH2 0x1669 JUMPI PUSH1 0x0 DUP1 REVERT JUMPDEST POP JUMP INVALID PUSH9 0x747470733A2F2F6D69 PUSH15 0x2D6170692E63727970746F636F6D70 PUSH2 0x7265 0x2E PUSH4 0x6F6D2F64 PUSH2 0x7461 0x2F PUSH17 0x726963656D756C746966756C6C3F667379 PUSH14 0x733D455448267473796D733D5553 DIFFICULTY LOG2 PUSH5 0x6970667358 0x22 SLT KECCAK256 EXTCODESIZE MSTORE 0xD0 0x2D PUSH28 0xBAD7B4AC3509D7C399A3080C425D83B64F7A57AD6867EA3D94984064 PUSH20 0x6F6C634300080700330000000000000000000000 "
				},
				"gasEstimates": {
					"creation": {
						"codeDepositCost": "1173400",
						"executionCost": "infinite",
						"totalCost": "infinite"
					},
					"external": {
						"fulfill(bytes32,uint256)": "50399",
						"requestVolumeData()": "infinite",
						"volume()": "2451"
					}
				},
				"methodIdentifiers": {
					"fulfill(bytes32,uint256)": "4357855e",
					"requestVolumeData()": "6021abac",
					"volume()": "c618a1e4"
				}
			},
			"userdoc": {
				"kind": "user",
				"methods": {
					"constructor": {
						"notice": "Network: Kovan Oracle: 0xc57B33452b4F7BB189bB5AfaE9cc4aBa1f7a4FD8 (Chainlink Devrel    Node) Job ID: d5270d1c311941d0b08bead21fea7747 Fee: 0.1 LINK"
					},
					"fulfill(bytes32,uint256)": {
						"notice": "Receive the response in the form of uint256"
					},
					"requestVolumeData()": {
						"notice": "Create a Chainlink request to retrieve API response, find the target data, then multiply by 1000000000000000000 (to remove decimal places from data)."
					}
				},
				"notice": "THIS IS AN EXAMPLE CONTRACT WHICH USES HARDCODED VALUES FOR CLARITY. PLEASE DO NOT USE THIS CODE IN PRODUCTION.",
				"version": 1
			}
		}
	}
}